:020000040800F2
:1000000000000320899C0008839B0008859B000852
:10001000879B0008899B00088B9B0008000000005C
:100020000000000000000000000000008D9B0008A0
:100030008F9B000800000000919B0008939B000824
:10004000E19C0008E19C0008E19C00089B9B0008E3
:10005000E19C0008E19C0008E19C0008A39B0008CB
:10006000E19C0008AD9B0008B79B0008C19B0008FD
:10007000D19B0008E19C0008E19C0008E19C00087D
:10008000E19C0008E19C0008E19C0008E19C00085C
:10009000E19C0008E19C0008E19C0008E19C00084C
:1000A000E19C0008E19C0008E19C0008E19C00083C
:1000B000119C0008E19C0008E19C0008E19C0008FC
:1000C000E19C0008E19C0008E19C0008E19C00081C
:1000D000E19C0008E19C0008E19B0008E19C00080D
:1000E000E19C0008E19C0008E19C0008E19C0008FC
:1000F000F99B0008019C0008099C0008E19C00088D
:10010000E19C0008E19C0008E19C0008E19C0008DB
:10011000E19C0008E19C0008E19C0008E19C0008CB
:10012000E19C0008E19C0008E19C0008E19C0008BB
:0C013000E19C0008E19C0008E19C000834
:1001400010B5054C237833B9044B13B10448AFF311
:1001500000800123237010BD800A002000000000F1
:1001600078BE000808B5034B1BB103490348AFF341
:10017000008008BD00000000840A002078BE00084E
:10018000034613F8012B002AFBD1181A01387047D7
:1001900081F0004102E000BF83F0004330B54FEA38
:1001A00041044FEA430594EA050F08BF90EA020FA5
:1001B0001FBF54EA000C55EA020C7FEA645C7FEA38
:1001C000655C00F0E2804FEA5454D4EB5555B8BF5B
:1001D0006D420CDD2C4480EA020281EA030382EACC
:1001E000000083EA010180EA020281EA0303362D5E
:1001F00088BF30BD11F0004F4FEA01314FF4801C31
:100200004CEA113102D0404261EB410113F0004F42
:100210004FEA03334CEA133302D0524263EB4303F9
:1002200094EA050F00F0A780A4F10104D5F1200E97
:100230000DDB02FA0EFC22FA05F2801841F10001F2
:1002400003FA0EF2801843FA05F359410EE0A5F1C6
:1002500020050EF1200E012A03FA0EFC28BF4CF0F7
:10026000020C43FA05F3C01851EBE37101F00045AD
:1002700007D54FF0000EDCF1000C7EEB00006EEBBA
:100280000101B1F5801F1BD3B1F5001F0CD3490844
:100290005FEA30004FEA3C0C04F101044FEA44529B
:1002A00012F5800F80F09A80BCF1004F08BF5FEA22
:1002B000500C50F1000041EB045141EA050130BD02
:1002C0005FEA4C0C404141EB0101013C28BFB1F514
:1002D000801FE9D291F0000F04BF01460020B1FA5F
:1002E00081F308BF2033A3F10B03B3F120020CDA32
:1002F0000C3208DD02F1140CC2F10C0201FA0CF010
:1003000021FA02F10CE002F11402D8BFC2F1200C74
:1003100001FA02F120FA0CFCDCBF41EA0C0190402A
:10032000E41AA2BF01EB0451294330BD6FEA040473
:100330001F3C1CDA0C340EDC04F11404C4F120025E
:1003400020FA04F001FA02F340EA030021FA04F370
:1003500045EA030130BDC4F10C04C4F1200220FAC7
:1003600002F001FA04F340EA0300294630BD21FA05
:1003700004F0294630BD94F0000F83F4801306BFCB
:1003800081F480110134013D4EE77FEA645C18BFBF
:100390007FEA655C29D094EA050F08BF90EA020F56
:1003A00005D054EA000C04BF1946104630BD91EA4E
:1003B000030F1EBF0021002030BD5FEA545C05D151
:1003C0004000494128BF41F0004130BD14F5800490
:1003D0003CBF01F5801130BD01F0004545F0FE4104
:1003E00041F470014FF0000030BD7FEA645C1ABF39
:1003F000194610467FEA655C1CBF0B46024650EA70
:10040000013406BF52EA033591EA030F41F400219B
:1004100030BD00BF90F0000F04BF0021704730B521
:100420004FF4806404F132044FF000054FF00001F6
:1004300050E700BF90F0000F04BF0021704730B5B7
:100440004FF4806404F1320410F0004548BF40428C
:100450004FF000013EE700BF42004FEAE2014FEAE1
:1004600031014FEA02701FBF12F07F4393F07F4FBC
:1004700081F06051704732F07F4208BF704793F0BF
:100480007F4F04BF41F40021704730B54FF46074D2
:1004900001F0004521F000411CE700BF50EA0102D5
:1004A00008BF704730B54FF000050AE050EA01027E
:1004B00008BF704730B511F0004502D5404261EBEE
:1004C00041014FF4806404F132045FEA915C3FF42F
:1004D000D8AE4FF003025FEADC0C18BF03325FEACC
:1004E000DC0C18BF033202EBDC02C2F1200300FA7D
:1004F00003FC20FA02F001FA03FE40EA0E0021FAA2
:1005000002F11444BDE600BF70B54FF0FF0C4CF48F
:10051000E06C1CEA11541DBF1CEA135594EA0C0F41
:1005200095EA0C0F00F0DEF82C4481EA030621EA7C
:100530004C5123EA4C5350EA013518BF52EA0335B7
:1005400041F4801143F4801338D0A0FB02CE4FF069
:100550000005E1FB02E506F00042E0FB03E54FF099
:100560000006E1FB03569CF0000F18BF4EF0010E91
:10057000A4F1FF04B6F5007F64F5407404D25FEA8D
:100580004E0E6D4146EB060642EAC62141EA555140
:100590004FEAC52040EA5E504FEACE2EB4F1FD0C82
:1005A00088BFBCF5E06F1ED8BEF1004F08BF5FEA00
:1005B000500E50F1000041EB045170BD06F00046B2
:1005C00046EA010140EA020081EA0301B4EB5C045F
:1005D000C2BFD4EB0C0541EA045170BD41F4801157
:1005E0004FF0000E013C00F3AB8014F1360FDEBF7C
:1005F000002001F0004170BDC4F10004203C35DA58
:100600000C341BDC04F11404C4F1200500FA05F3DA
:1006100020FA04F001FA05F240EA020001F000427B
:1006200021F0004110EBD37021FA04F642EB0601F1
:100630005EEA430E08BF20EAD37070BDC4F10C041B
:10064000C4F1200500FA04F320FA05F001FA04F2DF
:1006500040EA020001F0004110EBD37041F10001CB
:100660005EEA430E08BF20EAD37070BDC4F12005D6
:1006700000FA05F24EEA020E20FA04F301FA05F23E
:1006800043EA020321FA04F001F0004121FA04F2E6
:1006900020EA020000EBD3705EEA430E08BF20EAB6
:1006A000D37070BD94F0000F0FD101F000464000F0
:1006B00041EB010111F4801F08BF013CF7D041EA72
:1006C000060195F0000F18BF704703F00046520076
:1006D00043EB030313F4801F08BF013DF7D043EA47
:1006E0000603704794EA0C0F0CEA135518BF95EAFD
:1006F0000C0F0CD050EA410618BF52EA4306D1D184
:1007000081EA030101F000414FF0000070BD50EAA2
:10071000410606BF1046194652EA430619D094EA2C
:100720000C0F02D150EA013613D195EA0C0F05D116
:1007300052EA03361CBF104619460AD181EA03016A
:1007400001F0004141F0FE4141F470014FF0000022
:1007500070BD41F0FE4141F4780170BD70B54FF0BD
:10076000FF0C4CF4E06C1CEA11541DBF1CEA13553D
:1007700094EA0C0F95EA0C0F00F0A7F8A4EB05041F
:1007800081EA030E52EA03354FEA013100F0888016
:100790004FEA03334FF0805545EA131343EA1263DF
:1007A0004FEA022245EA111545EA10654FEA002694
:1007B0000EF000419D4208BF964244F1FD0404F54D
:1007C000407402D25B084FEA3202B61A65EB0305A9
:1007D0005B084FEA32024FF480104FF4002CB6EB66
:1007E000020E75EB030E22BFB61A754640EA0C00E6
:1007F0005B084FEA3202B6EB020E75EB030E22BF26
:10080000B61A754640EA5C005B084FEA3202B6EB66
:10081000020E75EB030E22BFB61A754640EA9C0025
:100820005B084FEA3202B6EB020E75EB030E22BFF5
:10083000B61A754640EADC0055EA060E18D04FEAB3
:10084000051545EA16754FEA06164FEAC30343EA53
:1008500052734FEAC2025FEA1C1CC0D111F4801F20
:100860000BD141EA00014FF000004FF0004CB6E719
:1008700011F4801F04BF01430020B4F1FD0C88BFB8
:10088000BCF5E06F3FF6AFAEB5EB030C04BFB6EBC3
:10089000020C5FEA500C50F1000041EB045170BDB6
:1008A0000EF0004E4EEA113114EB5C04C2BFD4EBE3
:1008B0000C0541EA045170BD41F480114FF0000E67
:1008C000013C90E645EA060E8DE60CEA135594EAE3
:1008D0000C0F08BF95EA0C0F3FF43BAF94EA0C0FE6
:1008E0000AD150EA01347FF434AF95EA0C0F7FF45B
:1008F00025AF104619462CE795EA0C0F06D152EAAF
:1009000003353FF4FDAE1046194622E750EA410692
:1009100018BF52EA43067FF4C5AE50EA41047FF4A3
:100920000DAF52EA43057FF4EBAE12E74FF0FF3C08
:1009300006E000BF4FF0010C02E000BF4FF0010CD9
:100940004DF804CD4FEA410C7FEA6C5C4FEA430C52
:1009500018BF7FEA6C5C1BD001B050EA410C0CBFA1
:1009600052EA430C91EA030F02BF90EA020F002003
:10097000704710F1000F91EA030F58BF994208BF6A
:1009800090422CBFD8176FEAE37040F00100704727
:100990004FEA410C7FEA6C5C02D150EA013C07D17E
:1009A0004FEA430C7FEA6C5CD6D152EA033CD3D0C9
:1009B0005DF8040B704700BF8446104662468C46C3
:1009C0001946634600E000BF01B5FFF7B7FF0028F6
:1009D00048BF10F1000F01BD4DF808EDFFF7F4FF1F
:1009E0000CBF012000205DF808FB00BF4DF808EDAA
:1009F000FFF7EAFF34BF012000205DF808FB00BFCD
:100A00004DF808EDFFF7E0FF94BF012000205DF8EE
:100A100008FB00BF4DF808EDFFF7CEFF94BF0120A3
:100A200000205DF808FB00BF4DF808EDFFF7C4FF9C
:100A300034BF012000205DF808FB00BF4FEA410CE5
:100A40007FEA6C5C02D150EA013C0AD14FEA430CC8
:100A50007FEA6C5C02D152EA033C02D14FF0000005
:100A600070474FF0010070474FEA410212F5001243
:100A700015D211D56FF47873B3EB625212D94FEAE5
:100A8000C12343F0004343EA505311F0004F23FACF
:100A900002F018BF404270474FF00000704750EA24
:100AA000013005D111F0004008BF6FF000407047E1
:100AB0004FF00000704700BF2DE9F04F91B0904615
:100AC000DDF870901B9E1A9D9B46194604461D9B9F
:100AD000039310464A46FFF717FDCDE900011F9A20
:100AE000DDF878A002963146DDE90067944663465A
:100AF00052462846CDF810C0CDE90567FFF704FD42
:100B0000CDE90001DDE90067049B524640465946A5
:100B1000CDE90767FFF7F8FCCDE90001DDE90067E3
:100B2000DDE902312A46484609960B97FFF7ECFCAF
:100B3000CDE90001DDE9006705A80FC80A960C970A
:100B4000FFF72AFBDDE90962DDE90B73CDE900015E
:100B500030463946FFF722FB06460F46DDE9000125
:100B600002460B46FFF76AFF48B9DDE9002320463D
:100B7000C4E90023C4E9026711B0BDE8F08F324632
:100B80003B4630463946FFF759FF0028EDD02BF0A1
:100B900000434FF001020D9319468DF838208A4B1F
:100BA00040464FF0FF32FFF749FF48B90D99864B99
:100BB00040464FF0FF32FFF723FF08B98DF83800A9
:100BC000DDE90D1383F00103DBB20E9340467E4B4B
:100BD0004FF0FF32FFF732FF002840F091810D996E
:100BE000794B40464FF0FF32FFF70AFF002840F0F4
:100BF0008781029B23F000430D930E98FFF71AFCA8
:100C00004FF00103804661F31E0B8DF838300D99CB
:100C10006D4B28464FF0FF32FFF710FF48B90D9992
:100C2000694B28464FF0FF32FFF7EAFE08B98DF80E
:100C300038000E9B83F0010000F00100FFF7FAFB83
:100C4000029BDDF80CC061F31E03054602934A4681
:100C5000484663466146FFF7F1FE002840F07C817C
:100C6000DDF810C05246504663466146FFF7E6FE87
:100C7000002840F05E8101230F93039B23F0004383
:100C80000D9319464846504B4FF0FF32FFF7D6FE02
:100C9000002840F09D800D994B4B48464FF0FF32A5
:100CA000FFF7AEFE002840F09380049B23F0004342
:100CB0000E930D9F444B484639464FF0FF324FF09C
:100CC0000106FFF7BBFE40B93F4B484639464FF09F
:100CD000FF32FFF795FE00B9064686F0010000F0EE
:100CE0000100FFF7A7FB039B0E9F61F31E038146E4
:100CF00003935046344B39464FF0FF324FF0010614
:100D0000FFF79CFE40B9304B504639464FF0FF325A
:100D1000FFF776FE00B9064686F0010000F00100FC
:100D2000FFF788FB049B61F31E038246049342464F
:100D300040465B465946FFF781FE002840F0078198
:100D4000029E2A46284633463146FFF777FE0028A2
:100D500040F0F8804A46039B40465946FFF7D4FBD3
:100D6000049B06460F46524602992846FFF7CCFBE5
:100D700002460B4630463946FFF70EFA134B002267
:100D8000FFF7C2FB049B06460F46524640465946B3
:100D9000CDE90067FFF7B8FB4A46DDF80890039BF2
:100DA00006460F4628464946FFF7AEFB02460B466D
:100DB00030463946FFF7F2F9044B0022FFF7A4FB57
:100DC00006460F46D1E600BFFFFFEF7F0000F07F31
:100DD000049B23F000430E93194650466A4B4FF094
:100DE000FF32FFF72BFE48B90E99674B50464FF084
:100DF000FF32FFF705FE00283FF45BAF0F9B002B8F
:100E0000A8D1069B059823F00043069319464FF09E
:100E1000FF325D4BFFF712FE40B9DDE905015A4B89
:100E20004FF0FF32FFF7ECFD00283FD0089B0798FA
:100E300023F00043059319464FF0FF32524BFFF762
:100E4000FDFD38B9079805994F4B4FF0FF32FFF77A
:100E5000D7FD58B30B9B099823F00043059319461F
:100E60004FF0FF32484BFFF7E9FD38B90998059973
:100E7000454B4FF0FF32FFF7C3FDB8B10C9B0A980A
:100E800023F00043059319464FF0FF323E4BFFF726
:100E9000D5FD00287FF469AE0A9805993A4B4FF0CA
:100EA000FF32FFF7ADFD00287FF45FAE42464046BB
:100EB0005B465946FFF7C2FD00285FD1029E2A46D5
:100EC000284633463146FFF7B9FD002851D1039E2D
:100ED0004A46484633463146FFF7B0FD002842D126
:100EE000049E5246504633463146FFF7A7FD002880
:100EF0003FF430AF06F0004304934FF0000A29E7B7
:100F0000029B23F000430D93194628461E4B4FF0D9
:100F1000FF32FFF793FD48B90D991B4B28464FF060
:100F2000FF32FFF76DFD00283FF467AE00230F93FB
:100F3000A3E6049B03F00043049301234FF0000A4F
:100F40000F939AE606F000430293002502E70BF0A8
:100F5000004B4FF00008F3E6039B03F000430393BC
:100F60004FF000097CE606F0004303934FF00009C0
:100F7000B6E706F0004302930025A8E70BF0004B0C
:100F80004FF000089AE700BFFFFFEF7F2DE9F04F19
:100F90008BB0CDE90123179C199D1599189EDDF89A
:100FA00058B0049124F000470897394625F00047CF
:100FB000DDF85090CDF80C908246324658463B46BC
:100FC0000694079505960997FFF710FD002846D06F
:100FD00032462B4621465846FFF7C0FBB0462F4607
:100FE00026460D460446314622462B465846FFF714
:100FF0008BFA42463B46FFF7D1F8224606460F469B
:101000002B46DDE90101FFF77FFA4A46049BFFF713
:10101000C5F832463B46FFF7A1FB22462B468046E9
:101020008946DDE90301FFF76FFADDE90123FFF7E8
:10103000B3F832463B46FFF791FB424604460D4665
:101040004B4640464946FFF7F9FC00283AD1504646
:10105000CAE90089CAE902450BB0BDE8F08F059CDA
:10106000069F079E3B465A4620463146FFF776FBD1
:1010700022460D460446314610462B462246FFF7CF
:1010800043FA3B465A46FFF789F8DDE90323064653
:101090000F4620462946FFF737FADDE90123FFF71F
:1010A0007DF832463B46FFF759FBDDE901238046D8
:1010B000894620462946FFF727FA02460B46DDE916
:1010C0000301B4E722462B4620462946FFF7B6FC2B
:1010D0000028BCD00699584600220023FFF77CFC6C
:1010E00080B30598079900220023FFF775FC48B3E9
:1010F000019E32463046029E33463146FFF79EFC43
:10110000B0B9069B774CD90F61F3DF740025DDE998
:10111000012328462146FFF7F7F9DDE9032380463E
:10112000894628462146FFF7EFF904460D468EE72B
:10113000039E32463046049E33463146FFF77EFC1E
:101140000028DED0029B019E23F000473046664B0C
:1011500039464FF0FF32FFF771FC38B9624B304629
:1011600039464FF0FF32FFF74BFCB0B1DDE9030326
:1011700023F0004631465C4B4FF0FF32FFF75EFC38
:10118000002840F0B3800398574B31464FF0FF32B0
:10119000FFF736FC002840F0A980089E524B5846C5
:1011A00031464FF0FF32FFF749FC002840F09E80A7
:1011B0004D4B584631464FF0FF32FFF735FC0028C3
:1011C00040F09480099E0598474B31464FF0FF321E
:1011D000FFF734FC002840F089800598424B3146E7
:1011E0004FF0FF32FFF720FC00287FD1019D3E4BDE
:1011F000284639464FF0FF324FF00104FFF71EFC3E
:1012000040B9394B284639464FF0FF32FFF7F8FB1B
:1012100000B9044684F0010000F00100FFF70AF96C
:101220000F460299039E0190C90F61F3DF7704997D
:101230002D4B21F00044304621464FF0FF324FF055
:101240000105FFF7FBFB40B9274B304621464FF025
:10125000FF32FFF7D5FB00B9054685F0010000F02D
:101260000100FFF7E7F80E460499069D019AC90FA1
:10127000844661F3DF763B4629465846E046FFF751
:1012800043F9424604460D46334605980799CDF882
:101290000880FFF739F902460B4620462946FEF73B
:1012A0007DFF104B0022FFF72FF9029A334680464C
:1012B000894658460699FFF727F9019A04460D46D4
:1012C0003B4605980799FFF71FF902460B46204653
:1012D0002946FEF761FF034B0022FFF715F904468C
:1012E0000D46B4E60000F07FFFFFEF7F089E674BDE
:1012F000584631464FF0FF32FFF7A0FB38B9634B39
:10130000584631464FF0FF32FFF77AFBA0B1099EF5
:1013100005985E4B31464FF0FF32FFF78FFB0028F8
:101320007FF495AE0598594B31464FF0FF32FFF7E9
:1013300067FB00287FF48BAE019E544B3046394644
:101340004FF0FF32FFF77AFB00287FF480AE4F4B5F
:10135000304639464FF0FF32FFF766FB00287FF436
:1013600076AE049B039F23F000463846474B314638
:101370004FF0FF32FFF762FB00287FF468AE434B6B
:10138000384631464FF0FF32FFF74EFB00287FF41E
:101390005EAE089D3D4B584629464FF0FF324FF058
:1013A0000104FFF74BFB40B9384B584629464FF034
:1013B000FF32FFF725FB00B9044684F0010000F07E
:1013C0000100FFF737F8069BDDF81480099E0F46F1
:1013D000DB0F834663F3DF7740462C4B31464FF0FB
:1013E000FF324FF00104FFF729FB40B9274B40467D
:1013F00031464FF0FF32FFF703FB00B9044684F09B
:10140000010000F00100FFF715F80E460799019C56
:10141000029DC90F844661F3DF765A463B4620465B
:101420002946E046FFF770F8424604460D4633462B
:1014300003980499CDF81480FFF766F802460B462E
:1014400020462946FEF7AAFE00220023FFF75CF89B
:101450005A463B4680468946DDE90301FFF754F8CA
:10146000059A04460D463346DDE90101FFF74CF8C5
:1014700002460B4620462946FEF78EFE0022002338
:10148000FFF742F804460D46E1E500BFFFFFEF7F9E
:1014900010B588B000248DF807401822214602A814
:1014A00000F0B4FB3F23ADF808308123ADF80A30DB
:1014B0000DF10703069301230793214602A800F0CC
:1014C0002FFDA04203DB9DF8070008B010BDFF20F0
:1014D000FBE72DE9F04FCBB09C469DF854619DF899
:1014E0005C5106F1080A04AC04EB0A0B77190937C2
:1014F000E31901930DF10F094FF000088DF80F80EB
:101500008DF81000ADF81110ADF813208DF815C04E
:101510009DF850318DF816308DF817603246569987
:1015200006A800F06FFB04F80A5009362A465899BD
:101530000BF1010000F066FB3544BDF86431E35364
:10154000BDF86831019A538004351822414644A8F9
:1015500000F05CFB3F23ADF810318323ADF812316E
:1015600046944795CDF8209101234993414644A8DC
:1015700000F0D6FC404504DB9DF80F004BB0BDE801
:10158000F08FFF20FAE770B5C8B00DF10705002411
:101590008DF8074002AE8DF808001822214642A8B7
:1015A00000F034FB3F23ADF808318523ADF80A3154
:1015B00044960123459346954793214642A800F05F
:1015C000AFFCA04203DB9DF8070048B070BDFF20D0
:1015D000FBE770B5C8B00DF1070600258DF8075080
:1015E00002AC8DF808008DF809108DF80A208DF8EE
:1015F0000B309DF830318DF80C309DF834318DF87A
:101600000D309DF838318DF80E304F9BCDF80F30EE
:101610009DF840318DF813301822294642A800F079
:10162000F5FA3F23ADF808318623ADF80A3144942A
:101630000C234593469601234793294642A800F080
:101640006FFCA84203DB9DF8070048B070BDFF2087
:10165000FBE770B5C8B00DF1070600248DF8074010
:1016600002ADADF80800CDF80A101822214642A8B4
:1016700000F0CCFA3F23ADF808318823ADF80A31E9
:10168000449506234593469601234793214642A855
:1016900000F046FCA04203DB9DF8070048B070BD97
:1016A000FF20FBE72DE9F041C8B007460E4615467E
:1016B000984607220021684600F0A8FA02AC8DF88F
:1016C00008708DF809608DF80A501822002142A890
:1016D00000F09CFA3F23ADF808318A23ADF80A31B7
:1016E000449403234593CDF818D107234793002151
:1016F00042A800F015FC002811DB9DF8000058B945
:10170000BDF80130A8F80030BDF803204E9B1A80C8
:10171000BDF805204F9B1A8048B0BDE8F081FF203E
:10172000FAE7F0B5C9B004460DF1070600258DF8BB
:10173000075002AF8DF8080002460DF1090000F0D5
:1017400061FA01341822294642A800F05FFA3F23CB
:10175000ADF808318E23ADF80A314497459446968A
:1017600001234793294642A800F0DAFBA84203DB95
:101770009DF8070049B0F0BDFF20FBE710B588B029
:1017800000248DF807401822214602A800F03EFAF6
:101790003F23ADF808309223ADF80A300DF107036E
:1017A000069301230793214602A800F0B9FBA0424B
:1017B00003DB9DF8070008B010BDFF20FBE770B504
:1017C000C8B00DF1070600248DF8074002ADADF852
:1017D00008008DF80A101822214642A800F016FAD7
:1017E0003F23ADF80831A523ADF80A314495032312
:1017F0004593469601234793214642A800F090FB6B
:10180000A04203DB9DF8070048B070BDFF20FBE756
:1018100010B588B000248DF807401822214602A890
:1018200000F0F4F93F23ADF8083040F20113ADF8B1
:101830000A300DF10703069301230793214602A8FE
:1018400000F06EFBA04203DB9DF8070008B010BD5E
:10185000FF20FBE72DE9F041C8B004468846174653
:101860001E4601283CD0022838D0012502AB1D4479
:101870000322002101A800F0C9F98DF80840012CCD
:1018800030D0022C30D11024224641460DF10900FF
:1018900000F0B8F92F706E7003341822002142A8AE
:1018A00000F0B4F93F23ADF808314FF48173ADF87F
:1018B0000A3102AB4493459401AB4693032347930B
:1018C000002142A800F02CFB002811DB9DF8040049
:1018D00058B9BDF805204E9B1A8006E01125C5E7D2
:1018E0000325C3E70224CFE7972048B0BDE8F08185
:1018F000FF20FAE72DE9F041C8B006460C469046B5
:101900001F4601294CD0022948D0032502AB1D44B3
:101910000322002101A800F079F9ADF808608DF8E4
:101920000A40012C3ED0022C3ED1102422464146D2
:101930000DF10B0000F066F92F809DF83831AB7087
:101940009DF83C31EB709DF840312B719DF844318E
:101950006B719DF84831AB710A341822002142A8FE
:1019600000F054F93F23ADF808314FF48273ADF81D
:101970000A3102AB4493459401AB4693032347934A
:10198000002142A800F0CCFA002811DB9DF80400E9
:1019900058B9BDF80520539B1A8006E01325B5E71A
:1019A0000525B3E70224C1E7972048B0BDE8F081E0
:1019B000FF20FAE7F0B5C9B01C460DF10707002675
:1019C0008DF8076002ADADF80800ADF80A108DF88B
:1019D0000C208DF80D301A464E990DF10E0000F0D6
:1019E00011F906341822314642A800F00FF93F23BE
:1019F000ADF808314FF48373ADF80A31449545943E
:101A0000469701234793314642A800F089FAB04235
:101A100003DB9DF8070049B0F0BDFF20FBE770B580
:101A2000C8B00DF1070500248DF8074002AEADF8EF
:101A300008001822214642A800F0E8F83F23ADF83C
:101A4000083140F22713ADF80A314496022345933A
:101A5000469501234793214642A800F061FAA0422F
:101A600003DB9DF8070048B070BDFF20FBE7F0B531
:101A7000C9B00C4611460DF1070700258DF8075037
:101A800002AE8DF808008DF8094022460DF10A00DB
:101A900000F0B8F802341822294642A800F0B6F83F
:101AA0003F23ADF808310C23ADF80A314496459434
:101AB000469701234793294642A800F031FAA842ED
:101AC00003DB9DF8070049B0F0BDFF20FBE770B5D0
:101AD000C8B00DF1070600248DF8074002AD8DF85F
:101AE00008008DF809101822214642A800F08EF84F
:101AF0003F23ADF808310F23ADF80A314495022396
:101B00004593469601234793214642A800F008FAE0
:101B1000A04203DB9DF8070048B070BDFF20FBE743
:101B200070B5C8B00DF1070500248DF8074002AE6E
:101B3000ADF808001822214642A800F067F83F23BC
:101B4000ADF808311823ADF80A31449602234593C5
:101B5000469501234793214642A800F0E1F9A042AF
:101B600003DB9DF8070048B070BDFF20FBE710B510
:101B700088B000248DF807401822214602A800F002
:101B800045F80323ADF80830ADF80A300DF107032E
:101B9000069301230793214602A800F0C1F9A04251
:101BA00003DB9DF8070008B010BDFF20FBE770B510
:101BB000C8B00DF1070600258DF8075002AC8DF86E
:101BC00008008DF809108DF80A201822294642A82D
:101BD00000F01CF80823ADF808313123ADF80A31C4
:101BE000449403234593469601234793294642A8EC
:101BF00000F096F9A84203DB9DF8070048B070BDDD
:101C0000FF20FBE708B509F0D9FF08BD08B509F0CA
:101C1000E3FF08BD704770477047704770477047D3
:101C200070477047704770477047704770477047FC
:101C300070477047704708B5FFF7ECFFFFF7EBFF01
:101C4000FFF7EAFFFFF7E9FFFFF7E8FFFFF7E7FF1E
:101C5000FFF7E6FFFFF7E5FFFFF7E4FFFFF7E3FF1E
:101C6000FFF7E2FFFFF7E1FFFFF7E0FFFFF7DFFF1E
:101C7000FFF7DEFFFFF7DEFFFFF7DBFF00F0B0FE50
:101C800008BD000008B5044B00221A7783F8202015
:101C9000FFF7D1FF08BD00BF90000020034A137F6B
:101CA00042F8230001331377704700BF90000020F3
:101CB00038B505464378FF2B06D1B0F8033003F45E
:101CC0007F43B3F5406F03D0284600F04BFD38BD8D
:101CD000002422460A4B1B7FA34209D9084B53F824
:101CE000243028469847024610B90134E4B2F1E79F
:101CF000002AE9D0022A01D10020E8E70120E6E726
:101D00009000002000B585B06B4600F10C022C213C
:101D10004FF6664000F012FA9DF80E0005B05DF82F
:101D200004FB00B585B06B4600F10C020F214FF6A5
:101D3000684000F003FA9DF80E0005B05DF804FB62
:101D400000B585B002466B460E214FF6754000F097
:101D5000F5F99DF80E0005B05DF804FB30B4214B99
:101D6000DB6BC3F30D039B0003F1005303F540331A
:101D70001A6811681C4B99422DD0136954699569F2
:101D8000516892684FEA136C80F800C04FEA134C18
:101D900080F801C04FEA132C80F802C0C3F3031C83
:101DA00080F803C003F00F030371230E4371230C6B
:101DB0008371230AC371047245720B0E83720B0C7C
:101DC000C372090A0173130E4373130C8373C27336
:101DD000002030BC704753699469D569D168126995
:101DE000D0E700BF00400058B95646A908B520B951
:101DF000054B1B6803B1984708BD034B1B68002BBC
:101E0000FAD001209847F7E7A40A002030B585B042
:101E100004460A4800F026FB094D284640F8044BCA
:101E200000F020FB01232B73064B1B6823B10294A7
:101E3000054A00926846984705B030BD9C0A0020CC
:101E4000B4000020A80A0020C51F000810B50B46EA
:101E50001146084A1468A4F80900E3721A4604F10E
:101E60000C0009F0ABFE044B1B69002108469847A3
:101E700010BD00BFB4000020A80A002010B50C4619
:101E80004A68054B1A60054BD861184600F0B4F853
:101E90002068FFF7BBFF10BDA40A0020A80A00209D
:101EA00000B585B01B4800F0E0FA10B91A4B1B7B57
:101EB0004BB9184800F0D9FA10B9174B1B7B23BB5C
:101EC00005B05DF804FB03A9124800F0FEFA134BBD
:101ED000DB698BB1039A029201228DF8042001A8DC
:101EE00098479DF804200C4B1A730B4B1B7B3BB19E
:101EF000039800F06FFADCE7074B01221A73F4E74E
:101F00000399044800F0BDFAD3E7024800F0A2FCB0
:101F1000D6E700BFB8000020B4000020A80A0020C7
:101F2000F0B583B007460020FFF760FFB7F9025015
:101F3000C5F309053B8845EA8325ADB2BA68397B0C
:101F40002846FFF783FF0026002E33D148F2E80031
:101F500000F08BFC05E0B4F80D30AB4216D0237BCB
:101F600033BB174800F081FA0028EDD101A91448CD
:101F700000F0ABFA019C637A0F2BECD0A389AB4243
:101F800008D0E37A002BECD00126EAE73B69E27A3D
:101F90001A70E4E7A27A033AD2B27B699A42A8BFE8
:101FA0001A467A6104F10E01386909F007FEE8E784
:101FB0000126D6E70120FFF719FF002003B0F0BD8E
:101FC0009C0A002010B50146437A0E3BDBB2012B80
:101FD00007D9074C204600F060FA204600F03AFC92
:101FE00010BD044800F059FA002000F039FCF7E772
:101FF000B80000209C0A0020024B0360024B0361E2
:10200000704700BF452200088D22000808B538B986
:10201000084B1B6803B19847074B00221A7008BD94
:10202000054B01221A70034B1B68002BF7D010469A
:102030009847F4E7C80A0020C800002030B585B0F2
:1020400004460B4D686005F1080000F00BFA012012
:10205000FFF7DCFF01232B74064B1B6833B103949D
:10206000054A0192054A029201A8984705B030BD81
:10207000C8000020CC0A00209D2100088120000813
:1020800010B50146034C204600F007FA204600F048
:10209000C6FF10BDD000002010B50C464A68054BA5
:1020A0001A60054BD861184600F07EF82068FFF7EB
:1020B000C5FF10BDC80A0020CC0A002000B585B0BD
:1020C0001B4800F0D2F910B91A4B1B7C4BB91848C9
:1020D00000F0CBF910B9174B1B7C23BB05B05DF8A2
:1020E00004FB03A9124800F0F0F9134BDB698BB134
:1020F000039A029201228DF8042001A898479DF8C6
:1021000004200C4B1A740B4B1B7C3BB1039800F062
:1021100061F9DCE7074B01221A74F4E703990448DC
:1021200000F0AFF9D3E7024800F079FFD6E700BF2F
:10213000D0000020C8000020CC0A00202DE9F0418A
:1021400007460C4616461D460020FFF75FFFDFF8E6
:102150004480D8F80400A0F80970C47222463146C1
:102160000C3009F02BFD0C4B1B69002108469847E9
:1021700048F2E80000F05EFFD8F804108A780332D5
:1021800005F1080009F01AFD0120FFF73FFFBDE847
:10219000F08100BFC8000020CC0A002008B5002054
:1021A00000F043FF08BD0000024B0360024B0361D7
:1021B000704700BFE92200082523000800B583B05E
:1021C00009E001A9084800F080F9084B1B69019952
:1021D000186900F062F9044800F047F90028F0D0CF
:1021E00003B05DF804FB00BFF40A002000000320E8
:1021F00008B500F09BFC08BD08B5104A104B1360F1
:1022000003F12001516003F13001916003F14001BD
:10221000116203F14801516203F15001D16003F1F1
:102220005801116103F17401516103F17801916169
:102230008433D36100F0A2FC08BD00BF000003207E
:102240002800032038B504460B4D284600F00AF953
:102250000A4B5B68A2681A60E268DA60084A5A6052
:102260009D6000F0ADFC2268064B1A606268064B68
:102270001A60002038BD00BFB80003200000032012
:10228000DC000020F00A0020EC0A002008B5054B15
:102290005A681268012111725B6800F099FC0020F5
:1022A00008BD00BF0000032000B583B007E001A90E
:1022B000074800F00AF9074B1B6801989847044843
:1022C00000F0D3F80028F2D003B05DF804FB00BFA3
:1022D000B8000320F00A002008B5024B1B6898479D
:1022E00008BD00BFEC0A002038B50446094D284659
:1022F00000F0B8F8084BDB68A2681A605D6000F077
:1023000085FC2268054B1A606268054B1A60002044
:1023100038BD00BFC000032000000320FC0A0020DD
:10232000000B002008B5054BDA6812681021117205
:10233000DB6800F073FC002008BD00BF0000032034
:1023400008B5044BDA68DA68034B1B6810689847D5
:1023500008BD00BF00000320FC0A002000B583B0C8
:1023600007E001A9074800F0B0F8074B1B68019887
:102370009847044800F079F80028F2D003B05DF8DF
:1023800004FB00BFC0000320000B002038B504464A
:102390000C4D284600F066F80B4800F063F80B4B34
:1023A0001B690B4A1360A2689A60E268DA601D61DB
:1023B00022681A6062685A6022695A6162699A6189
:1023C00038BD00BFC8000320F40A0020000003202D
:1023D000040B002008B50146034800F05EF80348EE
:1023E00000F06AFC08BD00BFF40A0020BD2100080F
:1023F00010B5054C204600F035F8044B5B691C60B5
:1024000000F072FC10BD00BFD000032000000320CC
:102410007047000000B583B006E001A9064800F04F
:1024200054F80198FFF7F4FF034800F01EF8002865
:10243000F3D003B05DF804FBD00003200146074849
:10244000C3798B4204D0064A904201D00838F7E79E
:102450008B4200D170470020FCE700BFF873FF1FDC
:102460000070FF1F006040607047EFF3108372B68A
:102470000268824203D0002083F310887047012055
:10248000FAE7EFF3108372B602680A6048600160F1
:102490000A68516083F310887047EFF3108372B6B7
:1024A000086042684A6041604A68116083F310889E
:1024B0007047EFF3108372B64268016811600268DA
:1024C0004168516083F31088704710B5EFF31084B2
:1024D00072B603680B600068FFF7EBFF84F31088A7
:1024E00010BD000008B5064B93F88030052B00D1D5
:1024F00008BDFEF7CDFF024B002283F88020F7E7EE
:102500006009002000B583B0054B0093054B019393
:1025100069460548FFF7B2FC03B05DF804FB00BF55
:10252000D8000320472500082D25000810B50446D3
:1025300040680830FFF7BCFB10B10123237010BDC9
:1025400000232370FBE708B510B1012804D008BDB3
:10255000072000F0A9FDFAE7072000F0B3FDF6E739
:1025600008B50F4BD3F88025B2F1FF3F10D0D3F858
:1025700084350C480270C2F3072242708370C3F3A3
:102580000722C270C3F3074202711B0E437108BDDC
:102590000020FFF753FF0028F9D10348F7E700BFF9
:1025A0000070FF1F0C0B002038BF0008F0B589B089
:1025B0000024ADF81840FFF7DAFAFFF7D1FF024622
:1025C00006212046FFF753FA2C4A10211820FFF766
:1025D0004EFA2B4A10210820FFF749FA1821012052
:1025E000FFF775FAFFF714F90DF11A03019307AB22
:1025F00000930DF11E03072221460120FFF752F838
:10260000BDF81E60BDF81C701E4D2846FDF7B8FDD4
:102610000095C3B2224639463046FFF7CBF906ABE8
:10262000009302232246BDF81A10BDF81E00FFF7E2
:10263000C1F9022211462046FFF7B9FA124D2C705B
:102640002046FEF7A0FF0121697008232B7110229C
:102650006A71EC700D48A860AC7004940390029409
:1026600001920093234602222046FEF7B2FFAB7888
:102670000BB909B0F0BDFFF781F8FAE728BF0008F1
:1026800018BF000810BF00086009002040E20100E8
:1026900000B589B00B4B83F88000002006900590B0
:1026A000049003900290019000900346A0228021A4
:1026B000FEF70FFF04490920FFF733F809B05DF872
:1026C00004FB00BF600900200C00002030B58FB073
:1026D000EC461F4C0FCCACE80F000FCCACE80F0061
:1026E0000FCCACE80F0094E803008CE80300FFF780
:1026F00009FF0121022000F0ADFC164A0021022052
:1027000000F0D8FD6846FFF7FDFAF0B9FFF74EFF7D
:10271000FFF7B8FA104C002584F880504FF6FF738D
:10272000E3820E4A2946012000F0C4FD0620FFF78F
:10273000F7F900F0FFF8657625760220FFF7A8FF8D
:10274000074B01221A700FB030BD02F0EFFFDDE73A
:1027500090BE0008A11E000860090020E5240008C2
:10276000120B002010B543783E2B23D0FF2B4BD00B
:10277000052B01D0012010BD8288324BDB8A9A42A2
:1027800012D0304B93F8803013B92F4B01221A70BE
:102790000220FFF77DFF2D4801230370294BDB8AC0
:1027A000438000F0C5F8E5E7264B0022DA8283F883
:1027B0008020E6E7C378012BDCD1224B93F88030F0
:1027C000042B1CD01F4B052283F88020B0F8053065
:1027D0001C4CE3821D4800220270438000F0A8F8E0
:1027E00094F88030052BC5D1174B00221A700122B6
:1027F0004FF400714FF0904003F08AFBBAE7114BA1
:10280000062283F88020E1E7B0F8033040F2094265
:1028100093420DD040F6164293420FD040F202424E
:102820009342A7D10A49074BD88AFEF712FFA1E7C6
:102830000121044BD88AFEF7C2FF9BE700F04AF85B
:1028400098E700BF60090020120B0020080B002051
:1028500040E2010008B50021022000F011FC08BD93
:1028600008B5012000F03AFC08BD08B5012000F0D1
:10287000F5FC08BD08B5134B1B7803B908BD124B16
:102880001978124BF42201FB0231002000F026F9E6
:1028900064280CD00C4A13780133DBB21370137820
:1028A000DBB2092BEAD9134600221A70E6E7084B7F
:1028B00000221A70044A1378D9B2013BDBB21370BC
:1028C0001170DBE7140B0020A0140020180B00206F
:1028D000130B002008B50021042000F0D1FB024BAF
:1028E00001221A7008BD00BF130B002008B500219B
:1028F000042000F0C5FB024B01221A7008BD00BF86
:10290000130B00200378012B02D0022B06D0704756
:102910000123054A1370054A137070470023024AC9
:102920001370024A13707047140B0020130B002021
:102930007047000008B5034A0021042000F0BAFCEB
:1029400008BD00BF7528000810B584B04378FF2B80
:1029500003D00024204604B010BDB0F8033040F688
:102960001442934227D040F61642934232D040F6AA
:102970000142934201D00024ECE7B0F80720174B46
:102980005B8802339A4201D00024E3E7447B1CB108
:10299000012C09D00124DDE702238DF800306846C0
:1029A000FFF7B0FF0124D5E701238DF8003068461A
:1029B000FFF7A8FFCEE7B0F80720084B5B8801338C
:1029C0009A4201D00024C5E7B0F80500FFF727F8C8
:1029D0000124BFE7FFF78AFF0024BBE7C400002003
:1029E00030B58BB03A48FFF759F98F238DF818307E
:1029F000E5238DF81930B3238DF81A30D5238DF8DF
:102A00001B302E238DF81C307F238DF81D304A2378
:102A10008DF81E3098238DF81F302A238DF8203032
:102A200048238DF821307A238DF82230CC238DF87D
:102A3000233000248DF824408DF825408DF8264061
:102A40008DF82740234D00950423012206A902207A
:102A5000FEF700FF19238DF81830ED238DF819309B
:102A600082228DF81A20AE228DF81B208DF81C30A2
:102A700021238DF81D304C238DF81E309D238DF8B9
:102A80001F3041238DF8203045238DF8213022233B
:102A90008DF822308E238DF823308DF824408DF868
:102AA00025408DF826408DF8274035F8020B059516
:102AB0000494102303930722029201940093064B7F
:102AC0001B7806AA0221FEF715FF0BB030BD00BF30
:102AD00049290008C40000201500002008B19220F8
:102AE000704700B583B006480091064B1B78002262
:102AF00041880088FEF75EFF03B05DF804FB00BF6D
:102B0000C40000201500002010B5064C636843F493
:102B100000236360044B1B6898474FF40023A360B5
:102B200010BD00BF000C0058A414002082B04FF06C
:102B3000B043D3F8502142F48012C3F85021D3F8A7
:102B4000503103F480130193019B0A4B1A6A42F43B
:102B500000721A62D3F8D42042F40072C3F8D42071
:102B600040BF20BF044AD36843F40043D36002B09F
:102B7000704700BF000800580004005800B583B03B
:102B80004FF0B0431A6D42F480121A651B6D03F4C6
:102B900080130193019B094B1A6842F001021A60ED
:102BA0001A6842F480321A602C2004F037FF2D207E
:102BB00004F034FF03B05DF804FB00BF000C0058C4
:102BC000024A536823F0010353607047000C005819
:102BD000024B4FF480329A60704700BF000C0058DF
:102BE00008B5044A536843F400135360FFF774FBBD
:102BF00008BD00BF000C005808B5FFF755FB024B9D
:102C000001229A6008BD00BF000C0058024A5368B8
:102C100023F0020353607047000C0058044B4FF43C
:102C200000329A605A6822F400325A60704700BF3E
:102C3000000C005808B5044A536843F4003353604D
:102C4000FFF77EFB08BD00BF000C005808B5144B11
:102C5000DB6813F0020F04D1114B5B6813F4003FE3
:102C600014D00F4BDB6813F0080F04D10C4B5B68DA
:102C700013F4002F0DD00A4BDB6813F0200F04D1A2
:102C8000074B5B6813F4001F06D008BDFFF7D2FFA7
:102C9000FBE7FFF739FFF8E7FFF7A2FFF5E700BF13
:102CA000000C005808B5FFF759FB024B02229A604E
:102CB00008BD00BF000C005808B5094BDB6813F0D5
:102CC000080F05D18047064B4FF400229A6008BDDB
:102CD000044B1860024A536823F400235360F6E75C
:102CE000000C0058A4140020024A536823F0080383
:102CF00053607047000C005808B5FFF78BFB024B80
:102D000008229A6008BD00BF000C005808B5144B9B
:102D1000DB6913F0020F0AD1114BDB6913F0010FCD
:102D20000DD10F4BDB6913F0080F10D108BD0C4B10
:102D30005B6813F0020FEFD1FFF7B4FFF6E7084B23
:102D40005B6813F0010FECD1FFF756FFEEE7044B81
:102D50005B6813F0080FE9D1FFF7CEFFE6E700BF8D
:102D6000000C005810B588B00DF1040C094C0FCCC4
:102D7000ACE80F0094E80700ACE803002CF8022B45
:102D8000120C8CF80020FFF733FB01A8FEF7C9FFF7
:102D900008B010BDC8BE000882B04FF0B0431A6D35
:102DA00042F480121A651B6D03F480130193019B9A
:102DB0000A4B3F229A609A615A6842F47C125A6028
:102DC0005A6942F47C125A615A6842F03F025A60D2
:102DD0005A6942F03F025A6102B07047000C005835
:102DE000054BCA225A6253225A629A6822F007029D
:102DF0009A60FF225A62704700280040704708B569
:102E00004FF0B043D3F8943013F0806F18D04FF0E8
:102E1000B043D3F8943013F0805F11D104F04EFE2C
:102E200004F04CFE4FF0B043D3F8902042F48032CF
:102E3000C3F89020D3F8902022F48032C3F8902079
:102E400008BD08B5FFF7DBFFFFF7A6FF08BD0000D0
:102E500008B50020FFF7F2FA68B181794FF0B0426F
:102E6000054BC2F89C30D2F89C3023F47C5343EAE3
:102E70000123C2F89C3008BDFECAFECA08B54FF057
:102E8000B042936843F40043936000F0D9F8054AD8
:102E9000D2F8803023F0070343F00403C2F88030F7
:102EA00008BD00BF0004005810B588B0FFF7A4F9B2
:102EB0000F4A0021082000F0FDF90E4C00940E4B43
:102EC000019369460D48FFF7E7F804F5867302930E
:102ED00004F50673039304F54974049440F23C53DB
:102EE000059302A8FFF752FAFFF782F908B010BD68
:102EF000BD20000800010020FD2D0008592F00080A
:102F000000B585B00023009301930293ADF80C3017
:102F100043685B7B23B1012B19D005B05DF804FB3E
:102F2000FFF720FF0D238DF800307F238DF802304E
:102F3000084B1B681B0CADF80C306846FEF700FF11
:102F4000FFF7C4FB0021012000F084F8E5E700232F
:102F50000370E2E7002004E04368B3F80B30B3F5F8
:102F6000124F00D0704710B584B004466846FEF793
:102F7000F5FE2046FFF7C4FF04B010BD08B5044BB2
:102F80004FF400421A61FFF75CFFFFF761FF08BDD5
:102F900000400058034AD2F8903043F05003C2F882
:102FA000903070470008005808B5FFF7F3FFFFF7AF
:102FB00017FF08BD08B5FFF7F7FFFFF75FFF0349ED
:102FC000002002F07FF8FFF76FFF08BD042000200B
:102FD00038B5044602F0ACFE0546B4F1FF3F09D017
:102FE00002F0B2FE044405E0054A136923F004032D
:102FF000136130BF02F09CFE401BA042F4D338BDE9
:1030000000ED00E008B54FF0FF3000F093F808BD88
:10301000704708B54FF0FF3000F08CF808BD08B5D8
:103020000021082000F02CF808BD08B5022000F0AF
:1030300055F808BD08B5022000F010F908BD0000E1
:103040000023024A1360024A13607047AC14002048
:10305000A8140020EFF3108372B641B1012903D107
:1030600006490A681043086083F3108870470349D3
:103070000A6822EA00000860F6E700BFA8140020F2
:10308000EFF3108C72B6064A136803431360054AC7
:1030900052F83130184342F831008CF310887047F1
:1030A0004C1500203C150020EFF3108172B6044A45
:1030B000136823EA0000106081F31088704700BF96
:1030C0001C000020EFF3108172B6034A1368184306
:1030D000106081F3108870471C000020EFF310810E
:1030E00072B6034A13681843106081F31088704762
:1030F000B414002070477047030C1B04B3B90004DC
:10310000102310F07F4F02D10833DBB2000210F021
:10311000704F02D10433DBB20001000F044A105C8F
:103120001844C0B2C0F11F00C0B270470023E8E7E6
:1031300070C0000830B583B0404B1C682040186058
:103140003F4B1A683F4B1B683F4909683F48056879
:103150004AE001333E4A52F833200A400242F8D096
:103160003B4D55F833200A40024005EBC305696822
:10317000114202D14FF0FF306860354D05EBC305B9
:1031800068681040FFF7B8FF3249086001906A682C
:10319000012303FA00F022EA00006860EFF31085D3
:1031A00072B60A689340D84325490A6822EA0303A5
:1031B0000B60022306E0013B254951F83320024011
:1031C00041F83320002BF6D185F31088214B1A6883
:1031D000214B53F822309847194B1A68194B1B683A
:1031E00019490968194805680A40144800680242EC
:1031F00001D02B40AED0174B4FF0FF321A60FFF7D3
:1032000079FFEFF3108572B60D4B1B680D4A1168FC
:103210000D4A12681340094A1268134203D10B4B3E
:103220001B680B4207D085F31088FFF764FF034B40
:103230001C6003B030BDFFF7EBFEF4E71800002080
:103240004C150020B41400201C000020B8140020ED
:103250003C150020B0140020BC140020F8B5044632
:10326000114B1E68B6F1FF3F05D00125B5400F4B4D
:103270001F681C6005E00025F9E721462846FFF796
:10328000C8FE0B4B1B682342F7D0074B1E60EFF3C1
:10329000108272B6064B186820EA04041C6082F3A0
:1032A0001088024B1F60F8BDB0140020B814002035
:1032B000B414002038B51446EFF3108572B6FFF74A
:1032C0001BFF034B43F8204085F3108838BD00BF37
:1032D000BC140020D0E90001704708B5D0E90023F4
:1032E000D0E90201FDF710F908BD08B5D0E90023C7
:1032F000D0E90401FDF708F908BD08B5D0E90023BD
:10330000D0E90A01FDF700F908BD08B5D0E90023AE
:10331000D0E90601FDF7F8F808BD08B5D0E90023AB
:10332000D0E90801FDF7F0F808BDD0B5044616460F
:103330001F46C0E90067DDE90401FDF70FFAC4E9A3
:10334000020132463B46DDE90601FDF707FAC4E912
:10335000040132463B46DDE90801FDF7FFF9C4E907
:103360000A0132463B46DDE90A01FDF7F7F9C4E9F7
:10337000060132463B46DDE90C01FDF7EFF9C4E9F1
:103380000801D0BD82B02DE9F04F8DB0054616A9D9
:1033900081E80C00DDE91667DDE918ABDDE91A8983
:1033A0000022002350465946FDF716FB00285BD14A
:1033B00000224FF0404330463946FDF7A5F80C4651
:1033C0000B9032463B4630463946FDF79DF806469F
:1033D0000F4652465B4650465946FDF795F8024661
:1033E0000B4630463946FCF7D9FE82468B46002212
:1033F0000023DDE91C01FDF7EFFA002846D1002289
:103400004FF0404340464946FDF77EF807460E46DA
:1034100042464B4640464946FDF776F88046894687
:10342000DDE91C2310461946FDF76EF802460B46EF
:1034300040464946FCF7B2FE00221C4BCDE908018C
:1034400038463146CDE90601CDE90423CDE902AB8A
:103450000B982146CDE900012846FFF766FF0DB025
:10346000BDE8F04F02B07047DDE91E233046394613
:10347000FCF794FE0B9001F10044DDE91E23304679
:103480003946FDF741F882468B46B0E742464B4647
:10349000DDE92201FCF782FE074601F100464246C3
:1034A0004B46DDE92201FDF72FF8C5E70000F03FAC
:1034B000D0B5044616461F46D0E90A01FDF724F8A8
:1034C000C4E90A0132463B46D4E90601FDF71CF87F
:1034D000C4E9060132463B46D4E90801FDF714F879
:1034E000C4E90801D0BD002303634B6B43638B6BBE
:1034F00083637047002303637047006B704782B09B
:103500002DE9F04F9BB024A981E80C00DDE9246788
:10351000DDE92845DDF898E0DDF89CC02A9B0193A1
:103520002B9900220023CDE90223CDE90423CDE924
:103530000623CDE90823CDE90A67F046E146CDE947
:103540000C89CDE90E67F2460CF1004BCDE910ABCA
:10355000CDE91245DDF8A8808946CDE91489CDE989
:103560001645DDF8048001F10049CDE91889016BA9
:1035700001EBD17C2CF0010E0EEB6C0C816B01EB9E
:103580004C11C1E90023C1E90223C1E90423C1E9C7
:103590000623C1E908675246279BC1E90A23C1E90E
:1035A0000C67C1E90EABC1E9104542462B9BC1E94E
:1035B0001223C1E91445C1E91689036B0233036381
:1035C0001BB0BDE8F04F02B07047806B01EB4101CA
:1035D00000EB41107047D0E910017047D0E91201AB
:1035E0007047C0E91023DDE90023C0E912237047CA
:1035F0000023C0F8A8300B68C0F8AC304B68C0F8A6
:10360000B0307047000000002DE9F04FA3B01D90CE
:103610000C461046194628A3D3E90023FCF774FF93
:1036200005460E4601F100472846394606F066FD7C
:10363000CDE918012846394606F0B4FDCDE91A0156
:1036400000224FF0404328463146FCF75DFF064616
:103650000F4606F053FDCDE914013046394606F019
:10366000A1FDCDE916010022154BCDE9062300206E
:103670000021CDE90801CDE90A23CDE90C01D4F8F8
:10368000B0A0D4F8A8B023E0DDE91034CDE90434CB
:10369000DDE90E34CDE90234DDE90834CDE900344A
:1036A000DDE906231EA8FDF707FADDE91E67DDE95F
:1036B0002045F0E0AFF30080182D4454FB21194061
:1036C0000000F03FCDE90A67CDE90C450AF1500A48
:1036D000BBF1010B00F12C815046FFF70EFE0446B2
:1036E0000D465046FFF7F6FD02460B46204629469A
:1036F000FDF734F806460F465046FFF706FE04462F
:103700000D465046FFF7E6FD02460B462046294689
:10371000FDF724F804460D46DDE91823FCF7F4FE16
:1037200002460B4630463946FCF738FD06460F4642
:10373000DDE91A2320462946FCF7E6FE0022002395
:10374000FCF72CFD804689465046FFF7E6FD04460F
:103750000D465046FFF7BEFD02460B462046294661
:10376000FCF7FCFF04460D46DDE91423FCF7CCFE14
:1037700032463B46FCF712FDCDE90E01DDE916238A
:1037800020462946FCF7C0FE42464B46FCF706FDA4
:10379000CDE910015046FFF7A0FD04460D46504606
:1037A000FFF798FD02460B4620462946FCF7D6FF58
:1037B00004460D46DDE91823FCF7A6FE00226D4BFA
:1037C000FCF7ECFC06460F46DDE91A2320462946A5
:1037D000FCF79AFE00220023FCF7E0FC80468946B5
:1037E0005046FFF782FD04460D465046FFF772FD36
:1037F00002460B4620462946FCF7B0FF04460D461C
:10380000DDE91423FCF780FE32463B46FCF7C6FC9C
:10381000CDE91201DDE9162320462946FCF774FEA6
:1038200042464B46FCF7BAFC80468946DDE9062352
:10383000DDE90E01FCF768FE04460D46DDE90823CC
:10384000DDE91001FCF760FE02460B4620462946E2
:10385000FCF7A2FC06460F46DDE90623DDE9100170
:10386000FCF752FE04460D46DDE90823DDE90E01B2
:10387000FCF74AFE02460B4620462946FCF78EFC22
:1038800004460D4602460B4630463946FDF7D6F84B
:1038900000287FF4F9AECDE90667CDE90845DDE9FA
:1038A0000A23DDE91201FCF72FFE04460D46DDE98F
:1038B0000C2340464946FCF727FE02460B462046AD
:1038C0002946FCF769FC06460F46DDE90A23404617
:1038D0004946FCF719FE04460D46DDE90C23DDE9F7
:1038E0001201FCF711FE02460B4620462946FCF762
:1038F00055FC04460D4602460B4630463946FDF758
:103900009DF800283FF4DEAECDE90489DDE91234EC
:10391000CDE90234DDE90C34CDE90034DDE90A23D8
:103920001EA8FDF7C9F8DDE91E67DDE92045C9E6F7
:103930001D9EDDE90623C6E90023DDE90801C6E98D
:103940000201DDE90C45CDE90445DDE90A45CDE993
:103950000245CDE900011EA8FDF718FBDDE91E2395
:10396000C6E90023DDE92023C6E90223304623B05F
:10397000BDE8F08F0000F03F2DE9F04F99B005460B
:103980000F460846FFF7B9FD013000EBD07040103C
:10399000C5F8A800D5F8B060002412E00022624B00
:1039A00000200021CDE90801CDE90601CDE904237D
:1039B000CDE90201CDE900013046FFF7B6FC013444
:1039C0005036D5F8AC30A342E8DCD5F8B06000241E
:1039D00028E021463846FFF7F8FD026A436A816A0B
:1039E000D0F82CC0D0E91489CDE90A89D0E916892C
:1039F000CDE90C89D0E90C89CDE90689D0E90E8999
:103A0000CDE90889D0E91089CDE90289D0E9128988
:103A1000CDE90489CDF804C000913046FFF7B2FC2F
:103A200001345036D5F8A830A342D2DCD5F8B0A086
:103A30003846FFF7D3FDCDE90E013846FFF7CBFD41
:103A400037A3D3E90023FCF789FE02460B4629463B
:103A500010A8FFF7D9FD109FDDF84480129EDDF815
:103A60004CB028F000443A462346CDE916232BF00B
:103A7000004132460B46CDE9142332460B46384608
:103A80002146FCF7B3FFB8B916ABD3E900450022D5
:103A9000002320462946FCF79FFF78B122462B469B
:103AA000DDE90E01FCF75AFE02460B465046FFF7D1
:103AB000FFFC19B0BDE8F08F14ABE6E722462B46B9
:103AC00038464146FCF74AFE8046894622462B4648
:103AD00030465946FCF742FE06460F4642464B46E4
:103AE00040464946FCF710FD8046894632463B4633
:103AF00030463946FCF708FD02460B46404649462B
:103B0000FCF74CFB06F0D4FB02460B462046294648
:103B1000FCF7FAFC04460D46C0E700BFAFF3008097
:103B2000182D4454FB2119400000F03F38B50446DD
:103B30001546FFF7D8FC5022294604F1580008F03A
:103B40003DF838BD00220023C0E90023C0E902236C
:103B500070472DE9F04F83B0044616461F460C9D72
:103B6000D0E9008942464B46D5E90201FCF7CCFC7E
:103B700002460B4630463946FCF70EFB06460F461A
:103B8000D4E902AB52465B46D5E90401FCF7BCFC24
:103B900002460B4630463946FCF7FEFA06460F460B
:103BA00002460B46D5E90A01FCF7AEFCCDE900015F
:103BB000D5E9062340464946FCF7A6FC02460B46DB
:103BC000DDE90001FCF7EAFACDE90001D5E90823B7
:103BD00050465946FCF798FC02460B46DDE90001C9
:103BE000FCF7DCFAC4E90289C4E9006703B0BDE868
:103BF000F08F0000D0B582B0044600260E4FC0E919
:103C0000006700220023C0E90223C0E90423C0E9C1
:103C10000623C0E90823C0E90A6700210163416364
:103C2000C0E912674FF0FF310165CDE90067FFF78A
:103C3000D8FC204602B0D0BD0000F03F00000000DC
:103C4000036D8B4200D170472DE9F04F89B0834658
:103C50000C460165FFF74EFC6000FCF7EBFB80466D
:103C6000894604EBD4744FEA640A00242EE0600015
:103C70000130FCF7DFFB18A3D3E90023FCF744FC79
:103C800042464B46FCF76AFD15A3D3E90023FCF737
:103C900085FA06460F4606F031FA0546079130468A
:103CA000394606F07FFA0B46014618462A46079B1E
:103CB00000260D4FCDE9026700260027CDE90467F5
:103CC000019000915846FFF71AFC01345445CEDBB1
:103CD00009B0BDE8F08F00BF182D4454FB21094006
:103CE000182D4454FB21F93F0000F07F2DE9F04FDF
:103CF0008BB004468846D1F800A04D68D1F808B0D2
:103D0000CE680022002350462946FCF765FE18B312
:103D10000022604B584626F00041FCF7F5FB06F008
:103D2000C7FA07460D460022002358463146FCF7E5
:103D30005DFE68B9384629463A462B46C4E9002359
:103D400002460B46C4E9022320460BB0BDE8F08FC3
:103D5000384605F10041EFE7D8F80070D8F8049034
:103D6000D8F808000290D8F80C8029F0004C3A46A8
:103D70006346CDE9082328F0004102460B46CDE911
:103D8000062302460B4638466146FCF72FFE002804
:103D900035D108ABD3E90023104619460022002391
:103DA000CDE90001FCF718FE58B3DDE900235046C9
:103DB00025F00041FCF7F2F902460B46FCF7EEF95C
:103DC00006F076FA804689460022324BFCF79CFBCF
:103DD0000F4600900022002350462946FCF724FE9F
:103DE00000283DD042464B4658463146FCF7B6FCCB
:103DF000009A3B46C4E90023C4E90201A4E706ABEC
:103E0000C8E7DDE9002338464946FCF7A7FCCDE9C1
:103E10000401DDE9002302984146FCF79FFC80463F
:103E20008946DDE9040102460B46FCF76DFBCDE94E
:103E3000020142464B4640464946FCF765FB0246B6
:103E40000B46DDE90201FCF7A9F906F031FA02465A
:103E50000B46DDE90001FCF757FBCDE90001A4E7C3
:103E600042464B46584626F00041FCF777FC804618
:103E700089460022002358463146FCF7B7FD30B989
:103E8000C4E90089009A3B46C4E902235CE707F1D4
:103E90000047F5E70000E03F82B02DE9F04F9DB00C
:103EA0008046894626A981E80C00289EDDF8A4B04A
:103EB00015461C4600220E4B28462146FCF78CFD79
:103EC000E0B10022002330465946FCF785FDA8B139
:103ED0000022084BC8E9002300220023C8E902237E
:103EE00000200549C8E90401C8E9062365E100BFCF
:103EF0000000F07F0000F0BF0000F03F0022B24B56
:103F000028462146FCF74AF9CDE906010BF1004AA3
:103F10002A4623460020AC49FCF73EF93446554674
:103F2000CDE9044504460D46CDE9024532465B46DF
:103F3000CDE90023DDE9062314A8FDF727F8DDE924
:103F40001467DDE91634CDE90634D9E93845002295
:103F50009D4BD9E93601FCF71FF902460B46204676
:103F60002946FCF7D1FA04460D460022964BFCF791
:103F700015F90022954BFCF7C7FA82468B46CDE92E
:103F8000086732463B46FCF7BFFA00220023FCF7E5
:103F900005F906460F46DDE9062350465946FCF76B
:103FA000B3FA00220023FCF7F9F8CDE90A01002258
:103FB000854B20462946FCF7EFF80022844BFCF79E
:103FC000A3FA32463B46FCF7E9F802460B46CDE938
:103FD0000C23DDE90801FCF797FA04460D46DDE9FC
:103FE0000A23DDE90601FCF78FFA02460B4620465C
:103FF0002946FCF7D1F806460F46DDE90C23DDE93A
:104000000601FCF781FA04460D46DDE90A23DDE9E5
:104010000801FCF779FA02460B4620462946FCF7D0
:10402000BDF804460D4602460B4630463946FCF7BD
:1040300005FD002840F0CE80CDE91867CDE91A458E
:1040400032463B4650465946FCF7A8F8CDE91801E0
:1040500018A914A8FFF74AFE149D159C04F100430B
:104060000C93169F179E06F100421092D9E93CABC3
:10407000DDE9082350465946FCF746FA02460B464E
:10408000CDE90A232A460C9BFCF788F8CDE90C0100
:10409000DDE9062350465946FCF736FA02460B4640
:1040A000CDE90E233A46109BFCF778F81290139155
:1040B000DDE90C2350465946FCF770F81090119139
:1040C0002A462346DDE90A01FCF768F804460D4656
:1040D0003A463346DDE90E01FCF760F8CDE90A0106
:1040E00022462B4650465946FCF758F8CDE90C01BC
:1040F000D9E934450022344B20462946FCF74CF8D8
:1041000002460B46FCF74AF806460F46DDE908234F
:10411000FCF7FAF900220023FCF740F8CDE908018A
:10412000DDE9062330463946FCF7EEF9002200238C
:10413000FCF734F882468B460022234B2046294662
:10414000FCF72CF802460B46FCF728F8DDE90823BB
:10415000FCF724F804460D46CDE904ABCDE9024551
:10416000129A139BCDE90023109A119B14A90846BB
:10417000FCF70CFFDDF8509015990691169F179EDD
:10418000CDE904ABCDE90245DDE90A34CDE90034DF
:10419000DDE90C2314A8FCF7F9FE4A46069BC8E9A2
:1041A00000233A463346C8E90223DDE91423C8E96F
:1041B0000423DDE91623C8E9062340461DB0BDE807
:1041C000F04F02B0704700BF0000F03F0000104009
:1041D00000002040DDE90634CDE90434DDE908348F
:1041E000CDE90234DDE90A34CDE90034DDE90C2300
:1041F00014A8FCF761FCDDE91467DDE916451BE74F
:104200002DE9F04796B0044690469946DDF880A027
:10421000219D5046FFF76EF981A3D3E90023DDE924
:104220001E01FCF771F900227F4BFCF76DF9064681
:104230000F467BA3D3E9002340464946FCF764F9C7
:1042400032463B46FBF7A8FF80468946C4E93089E1
:1042500032463B46FBF7A2FF02460B46C4E92E233B
:1042600040464946FBF79AFF00226F4BFCF74CF99A
:1042700005F044FF06460F46D4E93023D4E92E0169
:10428000FBF78AFF0022684BFCF73EF905F036FF8A
:1042900002460B4630463946FCF760FAC4E9320163
:1042A000D4E93023D4E92E01FBF776FF00225E4BE0
:1042B000FCF72AF905F0CEFF02460B4600205B49C9
:1042C000FCF74CFA06460F46C4E93467D4E9328954
:1042D00042464B4640464946FCF716F9C4E93601CA
:1042E00032463B4630463946FCF70EF9C4E9380100
:1042F00042464B4630463946FCF706F902460B4625
:10430000C4E93A23FBF74AFFC4E93C012846FFF71A
:10431000F4F800EBD070471000263EE03146284606
:10432000FFF753F9026A436A816AC06A01900091FB
:10433000214606A8FFF7B0FD31462846FFF745F9AC
:10434000026C436C816CC06C0190009121460EA8F8
:10435000FFF7A2FDDDE90E23CDE90223DDE91023FD
:10436000CDE90423099B0193089B0093069A079BC0
:104370005046FFF7C4F8DDE91223CDE90223DDE959
:104380001423CDE904230D9B01930C9B00930A9AFF
:104390000B9B5046FFF7B3F80136BE42BEDB284602
:1043A000FFF719F906460F4602460B46D4E92E01DF
:1043B000FBF7F4FE00221C4BFCF7A6F805F04AFFC1
:1043C0008046894632463B46D4E93001FBF7E6FE9B
:1043D0000022154BFCF798F805F03CFF02460B460F
:1043E00040464946FCF790F805F062FF05F0F0FC06
:1043F00006460F462846FFF7F1F804460D463246BA
:104400003B4630463946FBF7C9FE02460B46CDE92E
:1044100000455046FFF7E5F816B0BDE8F08700BF4D
:10442000182D4454FB2119400000E03F0000F03FEC
:104430002DE9F04385B0044616461F46FFF700FC01
:1044400004F1580532463B46DDE90C01FCF786F9DC
:10445000804689460394029532463B46DDE90E01CB
:10446000FCF77CF9CDE9000142464B462046FFF7B8
:10447000C7FE29462046FFF77FFA05B0BDE8F08366
:1044800038B505460C46016002616FF06043994201
:1044900005D2880005F07EFC611E034606E04FF061
:1044A000FF30F7E7002243F8042B01390029F9DA3D
:1044B00068602C686FF060439C4205D2A00005F054
:1044C00069FC631E024606E04FF0FF30F7E700216B
:1044D00042F8041B013B002BF9DAA8602C686FF04E
:1044E00060439C4205D2A00005F054FC631E0246C6
:1044F00006E04FF0FF30F7E7002142F8041B013BD4
:10450000002BF9DAE860284638BD10B504460023D0
:104510000360406808B105F03BFCA06808B105F0F5
:1045200037FCE06808B105F033FC204610BD000000
:1045300010B504464FF4F47200F5C6511431094821
:1045400002F074FA40B94FF4F47204F5FA710648B7
:1045500002F0E4F918B910BD01F0E8F8F3E701F052
:10456000E5F8F8E7EC2000208421002000B583B0B6
:1045700080F8F61080F8F7204FF0FF32009200F13B
:10458000F6029821044803F09BF810B903B05DF8D7
:1045900004FB01F0CBF8F9E7681F002010B50446D2
:1045A000022300221146FFF7E1FF022300227F21B0
:1045B0002046FFF7DBFF0223012211462046FFF7CA
:1045C000D5FF0A20FEF704FD022301220321204625
:1045D000FFF7CCFF0223002206212046FFF7C6FF8B
:1045E0000223032207212046FFF7C0FF02233022C7
:1045F00008212046FFF7BAFF02230C221946204665
:10460000FFF7B4FF10BD000008B50D4B1B7813B9C0
:104610000C4B1B7873B10C4B1A785200022302F03A
:10462000FE020321FFF7A2FF054B1B781BB1044BD1
:1046300000221A7008BD034B00221A70FAE700BF6F
:1046400000200020FF1F00202000002010B504469D
:1046500000F5005292F87400431CDBB282F874300B
:10466000F42204F580710D4B00FB023007F0A6FA2E
:104670000B4B1B7863B904F5005393F87430DBB22D
:10468000092B04D904F50054002384F8743010BDBC
:1046900000210420FEF7F4FCEDE700BF180B00201A
:1046A000130B00202DE9F04F89B082460691934606
:1046B0000793BDF848300593FFF7A6FF00222B4B68
:1046C000CDE9022300222A4BCDE900230022294B09
:1046D00004212948FFF7ACFE4FF0000847461FE0D1
:1046E00000962046FFF735FA02460B465036103446
:1046F000013DF5D510461946FCF7B6F900B20AF5AA
:104700000053A3F87C00B3F87C20079921F8182007
:10471000B3F87C30069A22F81930023708F1010804
:10472000059BBB421BDD5BF827301A140AF50053CA
:10473000A3F8762007F101095BF829201214A3F8E9
:104740007A20B3F8760000B2FBF774FE02460B46FF
:104750000425094C04F1F80604F50E74C8E7504628
:10476000FFF774FF09B0BDE8F08F00BF00805B4029
:10477000004050400040BF405015002000B583B0BD
:10478000194B1B7823B1012B18D003B05DF804FB43
:10479000164B1B78002BF8D0F423009300F58073A0
:1047A00000F5C652143200F5FA71FFF77BFF0F4B8C
:1047B00000221A700C4B01221A70E6E70C4B1B7892
:1047C000002BE2D0F423009300F5807300F5E5524E
:1047D000043200F57771FFF765FF0023044A137078
:1047E000014A1370D1E700BFFE1F0020FC1F00200C
:1047F000FB1F00202DE9F043ABB00646FFF7FAF9A6
:1048000000208F49C6E9160100220023C6E91823BB
:10481000C6E91A23C6E91C23C6E91E23C6E92001FE
:104820000023C6F88830C6F88C30C6E92801C6F8DF
:10483000A830C6F8AC30C6F8B03006F1F80423460C
:104840000322002A19DB4FF00008DFF8F491C3E9D6
:10485000008900200021C3E90201C3E90401C3E982
:104860000601C3E90801C3E90A89002119635963F4
:10487000C3E912895033013AE3E704F5A0754FF01C
:104880000308B8F1000F0CDB00220023C5E9002368
:10489000C5E902232846FFF755F9103508F1FF381E
:1048A000EFE704F5C0730122002A1CDB0020002181
:1048B000C3E90001C3E90201C3E90401C3E9060138
:1048C000C3E90801C3E90A01C3E90C01C3E90E0108
:1048D000C3E91001C3E91201C3E91401C3E91601D8
:1048E0006033013AE0E706F54E7423460322002ABE
:1048F00019DB4FF00008DFF84891C3E90089002078
:104900000021C3E90201C3E90401C3E90601C3E9C7
:104910000801C3E90A89002119635963C3E91289AF
:104920005033013AE3E704F5A0754FF00308B8F1FE
:10493000000F0CDB00220023C5E90023C5E9022398
:104940002846FFF7FFF8103508F1FF38EFE704F5C8
:10495000C0730122002A1CDB00200021C3E90001F2
:10496000C3E90201C3E90401C3E90601C3E908017F
:10497000C3E90A01C3E90C01C3E90E01C3E910014F
:10498000C3E91201C3E91401C3E916016033013A16
:10499000E0E706F5AF642346072218E04FF0000871
:1049A000DFF89C90C3E9008900200021C3E90201DF
:1049B000C3E90401C3E90601C3E90801C3E90A899F
:1049C000002119635963C3E912895033013A002A5F
:1049D000E4DA04F520754FF007080BE0002200230D
:1049E000C5E90023C5E902232846FFF7ABF81035D7
:1049F00008F1FF38B8F1000FF0DA04F54073032234
:104A0000002A1FDB00240025C3E90045C3E9024555
:104A1000C3E90445C3E90645C3E90845C3E90A45B6
:104A2000C3E90C45C3E90E45C3E91045C3E9124586
:104A3000C3E91445C3E916456033013AE0E700BF16
:104A40000000F03F06F1F80304252895299328A9D2
:104A50003046FEF7CDFD06F5976700201849CDE9F1
:104A6000000100220023CDE90223CDE90423CDE992
:104A70000623CDE90823CDE90A0100240C940D9505
:104A80000E97CDE9120106F67805CDE91401CDE9BE
:104A90001623CDE91823CDE91A23CDE91C23CDE94E
:104AA0001E012094082321932295CDE9260114AA02
:104AB00069463046FFF73AF830462BB0BDE8F08340
:104AC0000000F03F012800D070474FF6FF73994275
:104AD000FAD110B50748FFF78DFE074C40F6CC42DF
:104AE00028212046FFF7CCFC044A0549204605F062
:104AF0004AF910BD50150020481F00200800002072
:104B00000B45000808B54FF6FF710120FFF7DAFFEB
:104B100008BD00B583B04FF0B0439A6C42F0040278
:104B20009A649A6C02F004020192019A9A6C42F023
:104B300001029A649B6C03F001030093009B002226
:104B400011460B2002F032FF0B2002F067FF00221B
:104B500011460C2002F02AFF0C2002F05FFF002219
:104B600011460D2002F022FF0D2002F057FF03B086
:104B70005DF804FB2DE9F0418AB000240594069409
:104B80000794089409944FF0B043DA6C42F00402A1
:104B9000DA64DA6C02F004020492049ADA6C42F0ED
:104BA0000202DA64DA6C02F002020392039ADA6C0F
:104BB00042F00102DA64DA6C02F001020292029A17
:104BC000DA6C42F00802DA64DA6C02F00802019250
:104BD000019ADA6C42F01002DA64DB6C03F0100325
:104BE0000093009B22464FF4C0614FF0904001F0CB
:104BF0008FF9334D22464FF48041284601F088F961
:104C00004FF4C0630593012606960794089405A9FE
:104C10004FF0904001F09EF8022705974FF4881856
:104C2000CDF81880079605A9284601F093F81823B7
:104C30000593CDF81880079605A9224801F08AF857
:104C40004FF48048CDF8148006960794089405A97F
:104C5000284601F07FF84FF480630593069407948B
:104C600005A9284601F076F84FF48073059306975E
:104C700007940897099405A94FF0904001F06AF84D
:104C800022462146072002F091FE072002F0C6FED0
:104C900022462146092002F089FE092002F0BEFECC
:104CA000224621460A2002F081FE0A2002F0B6FECA
:104CB00032464146284601F02BF90AB0BDE8F081A2
:104CC000000C004800100048064A936A9BB2906AA4
:104CD00080B203E0034B9A6A034690B28342F9D153
:104CE000704700BF0028004010B401EB41020E4B9A
:104CF00003EBC2035B7DDBB2062B05D003EB430263
:104D0000094C04EBC2021075074A00EB400C02EBA1
:104D1000CC0C8CF815308CF8141001EB410102EB2F
:104D2000C101487510BC7047E4090020174B93F887
:104D30009030DBB28B421DD0144B01EB410203EBF0
:104D4000C202127D5FFA82FC02EB420203EBC20256
:104D5000507500EB400203EBC202517500EB4002BC
:104D600003EBC20282F814C001EB410103EBC10363
:104D700018757047054B00EB400203EBC2025175FA
:104D800001EB410103EBC10108757047E409002004
:104D900010B4244B93F89030DBB283422BD0214CDB
:104DA00000EB400204EBC20292F814C0537DDBB268
:104DB000527DD2B20CEB4C0C04EBCC046275062B8A
:104DC0000BD0184A00EB400402EBC404247DE4B28B
:104DD00003EB430302EBC3031C75124B00EB4000D3
:104DE00003EBC0000122027393F89030DBB2062B74
:104DF00010D010BC70470B4B93F89020D2B283F8C0
:104E0000912000EB400203EBC202527DD2B283F844
:104E10009020E2E70029ECD1024B4FF0FF32C3F8BB
:104E20009420E6E7E409002008B5124BD3F894304B
:104E3000B3F1FF3F02D1002080B208BDFFF744FF6D
:104E40000C4BD3F8943083420BD30A4BD3F89430F5
:104E50001B1A094A107803FB00F0084B1B78D84056
:104E6000EAE7074B1B881B1A024AD2F89400034456
:104E7000EFE700BFE40900205C1F0020621F002054
:104E8000601F002070B50446334B93F89030DBB2BE
:104E9000062B14D1304B93F89020D2B283F8912096
:104EA00083F8900000EB400403EBC4040622627513
:104EB0004FF0FF32C3F894200025284670BDFFF75D
:104EC000B3FF0546244B04EB440203EBC202916896
:104ED0000144916004EB440203EBC202906893F832
:104EE000902002EB420203EBC2039B68834225D869
:104EF000194A92F89030D9B203EB430302EBC30393
:104F00005B7DDBB20CE0144A01EB410102EBC10115
:104F10004B7DD9B203EB430302EBC3035B7DDBB2F2
:104F2000062B07D003EB43030B4A02EBC3039B683A
:104F30008342E8D92046FFF7D7FEBEE7064E96F833
:104F400090102046FFF7F2FE96F89030DBB286F81C
:104F5000913086F89040B0E7E409002010B560B3C6
:104F60000446012832D9013CA4B21B4B1B681B68C4
:104F7000DA6812F0040FF8D0DA68D2B262F4906204
:104F8000DA60164B4FF40022DA60032002F088FD4D
:104F9000134A53691B0C1B041C435461FFF794FE16
:104FA000104BC3F894000C4B1B681A68936843F4C9
:104FB00080639360AFF3008010BDFFF785FE094B5F
:104FC000C3F89400032002F05DFDF5E7064B1B7863
:104FD000012BC8D1C9E700BF641F0020000800589A
:104FE00000280040E4090020621F002038B5314B42
:104FF0009B6813F4806F06D02F4B1B681B68DB681F
:1050000013F0040FF8D12C4B1B681A68936823F433
:1050100080639360294A92F89030DCB203EB43033B
:1050200002EBC3039D68FFF7FFFE8446A84205D943
:10503000224B012283F89820002026E0204B1B8879
:1050400010FA83F3AB4207D21D4B188880B21B4B7A
:10505000002283F8982018E0A8B2A0EB0C0080B2E0
:10506000164B012283F898200FE004EB4404134A06
:1050700002EBC404A268A2EB0C02A26003EB4303A0
:105080000E4A02EBC3035C7DE4B2062C0FD023462C
:1050900004EB4402094901EBC20292689445E4D949
:1050A00004EB440401EBC4040022A260E6E7FFF72E
:1050B00055FF38BD00280040641F0020E40900208F
:1050C0005E1F002010B54C4B19600B68CA225A6253
:1050D0000B6853225A6249498B6843F020038B6066
:1050E0008B6803F00703C3F10403DAB2444B1A7070
:1050F0000B6903F4FE034FF4FE0191FAA1F10029BC
:1051000032D0B1FA81F1CB40DBB20133DBB23D49A1
:105110000B703A490969C1F30E0101313A4C218003
:10512000013901FB03F3A3F5A073D3404FF6FE72E0
:1051300093421BD9354B4FF6FF721A80344B1A68D5
:1051400042F400221A60D3F8802042F40022C3F80F
:105150008020002845D12F4B012283F898204FF062
:10516000FF32C3F894200EE02021CCE79BB2274AFF
:105170001380E3E700EB4002264B03EBC20300225F
:105180001A730130C0B20528F4D9224B062283F8E5
:105190009020194C226811688B6823F480638B601F
:1051A0001268D368DBB263F49063D360184B4FF49A
:1051B0000022DA60032002F073FC23681A68936807
:1051C00043F4804393600C4B1B681B68FF225A62B8
:1051D00000220321084602F0E9FB032002F01EFC36
:1051E00010BD054B1B681B68DB6813F4806FEAD0A9
:1051F000032002F047FCE6E7641F0020002800407F
:10520000621F00205C1F0020601F00205E1F002026
:1052100000080058E409002038B50446EFF3108573
:1052200072B6032002F008FC294B1B681A68CA21D9
:1052300051621B6853225A6204EB4402254B03EB74
:10524000C2031B7BDBB2022B0AD0214B1B681B68FD
:10525000FF225A62032002F0E1FB85F3108838BD7B
:1052600000212046FFF794FD1A4B93F89030DBB2F3
:10527000062B08D0174A92F89120D2B29A42E4D075
:10528000FFF7B4FEE1E7144B9B6813F4806F06D080
:105290000F4B1B681B68DB6813F0040FF8D10C4B35
:1052A00019680A68936823F4806393600B68DA686E
:1052B00012F0040FFAD0DA68D2B262F49062DA60C7
:1052C000064B4FF40022DA60032002F0E9FBBCE752
:1052D000641F0020E4090020002800400008005856
:1052E000F8B504460D4600EB4002234B03EBC20326
:1052F0001B7BDBB2022B38D0EFF3108672B6032093
:1053000002F09AFB1D4B1B681A68CA2151621B6888
:1053100053225A62184F04EB440307EBC3030222E3
:105320001A739D605D602046FFF7ACFD97F89030E2
:10533000DBB297F89120D2B29A4219D10E4B04EB0E
:10534000440203EBC2029268101A04EB440403EB1C
:10535000C404A060094B1B681B68FF225A6203202B
:1053600002F05CFB86F31088F8BDFFF755FFC3E73A
:10537000FFF73CFEEEE700BFE4090020641F0020B9
:1053800008B5904708BD0000F8B5EFF3108472B679
:10539000364B19680B68CA225A620B6853225A624C
:1053A0000A68936823F480639360314A92F89030DE
:1053B000DDB203EB4303D8000244137BDBB2022BC4
:1053C00015D00B68DA6812F0040FFAD0DA68D2B29E
:1053D00062F49062DA60274B4FF40022DA6084F3C3
:1053E0001088224B1B681B68FF225A62F8BD204BB5
:1053F00005EB4501CA0099189F580E6993F898303B
:1054000073B34B7BDBB2012B12D084F31088284698
:10541000FFF702FF154B1B681A68CA2151621B680F
:1054200053225A623A4629463046FFF7A9FFD8E789
:1054300001212846FFF7ACFC84F3108805EB4503F7
:10544000DA000B4B134459682846FFF749FF074B16
:105450001B681A68CA2151621B6853225A62E1E72D
:10546000FFF7C4FD84F31088BBE700BF641F002072
:10547000E40900200008005808B51548154B0360E2
:10548000A3F13E53A3F57D23A3F2446343600023BD
:1054900083600122C260036143618361C36103626F
:1054A00002F0AFF850B90021094802F0C7F940B93D
:1054B0000021074802F0F0F930B908BD00F036F9D4
:1054C000F1E700F033F9F3E700F030F9F5E700BF5A
:1054D000681F00200054004010B59CB00446002115
:1054E0001791189119911A911B91502203A806F057
:1054F00073FB22681A4B9A4201D01CB010BD0423E2
:1055000003934FF440330B9303A803F0ECFA18BB5A
:105510004FF0B044E36C43F00203E364E36C03F048
:1055200002030293029B4FF4C07317931223189344
:105530000023199302231A9304231B9317A90948E4
:1055400000F008FCA36D43F40013A365A36D03F4FE
:1055500000130193019BD0E700F0E8F8D8E700BF03
:10556000005400400004004808B50548054B03609E
:1055700002F0DCF900B908BD00F0D8F8FBE700BF85
:10558000BC1F0020000C00580268124B9A4200D049
:10559000704700B583B04FF0B0431A6D42F48012EB
:1055A0001A651B6D03F480130193019B00221146C1
:1055B0002C2002F0FBF92C2002F030FA00221146D8
:1055C0002D2002F0F3F92D2002F028FA03B05DF847
:1055D00004FB00BF000C0058034B1B7803B1FEE72F
:1055E000014B01221A707047FC1F0020034B1B78EF
:1055F00003B1FEE7014B01221A707047FB1F002028
:1056000038B50446102804D0022C1BD0082C47D0F3
:1056100038BD3D4B1B78012BF6D14FF480614FF024
:10562000904000F07AFC394D2A783949002004F086
:1056300099FA2B7813B901222A70E5E7334B00223F
:105640001A70E1E7334B1B78002BDFD12E4B1B7810
:10565000012BDBD1304B1B78012B19D005332E4A9F
:1056600013702D4B1B780E2B02D92B4B0E221A7068
:10567000284B01221A70284B1A782849002004F080
:1056800071FA274B1B783BB9254B01221A70BDE7F5
:105690000333214A1370E4E7214B00221A70B5E767
:1056A000204B1B78002BB3D1174B1B78012BAFD1AC
:1056B000194B1B78012B07D0032B18D0042B1AD0C1
:1056C000053B154A137002E0134B01221A70154B6B
:1056D00001221A70104B1A781049002004F042FA87
:1056E000114B1B785BB9104B01221A7090E7023BFB
:1056F000094A1370EBE7033B074A1370E7E70A4BCD
:1057000000221A7084E700BFFD1F0020F81F002050
:1057100080C00008002000202000002098C0000861
:10572000FA1F0020FF1F0020F91F002072B6FEE7BD
:1057300000B59BB04822002108A806F04DFA0023CE
:10574000019302930393049305930693079302F046
:10575000B5F94FF0B042D2F8903023F0180343F07F
:105760001003C2F8903002F58062136823F4C0631E
:1057700043F400731360136803F4C0630093009B49
:10578000072308934FF48033099301230A934FF4BE
:1057900080730B9340230C930223139303231493DE
:1057A00070231593202316934FF4003317934FF073
:1057B000005319934FF00073189308A802F084FA6D
:1057C00088B96F230193032102910023039304936B
:1057D000059380220692079301A802F001FE20B9EA
:1057E0001BB05DF804FBFFF7A1FFFFF79FFF00B5BB
:1057F00095B050220021684606F0EEF94FF441536F
:105800000093562301934FF4402302934FF000730B
:1058100003934FF0005304934FF4803305934FF4F8
:105820008043119310231393684603F05CF910B979
:1058300015B05DF804FBFFF779FF000008B500F034
:1058400055FAFDF79BFBFFF773FFFFF7D0FFFFF75C
:105850008BFEFFF78FF9FFF75CF900F061F8FFF7B7
:105860000BFE00F0C3F900F00FF800F00FF8044849
:1058700000F09AFBFDF79EFB024B01221A7008BD57
:1058800020220020FD1F00207047000008B50A48B4
:105890000A4B0360002343607F228260FF22C260C4
:1058A00003618361C361436101F006FB00B908BD78
:1058B000FFF73CFFFBE700BF04200020002800406A
:1058C00010B596B004465022002102A806F084F9D3
:1058D0002268124B9A4201D016B010BD4FF40063FB
:1058E00002934FF48073129302A803F0FCF888B976
:1058F0004FF0B043D3F8902042F40042C3F8902018
:105900009A6D42F480629A659B6D03F48063019303
:10591000019BE1E7FFF70AFFEAE700BF002800402C
:1059200008B51A481A4B03600123436000218160C7
:10593000416181618162C1614FF4FA530362C160C8
:10594000C16201630223032200F08EFFC0B9114837
:10595000114B03600021416081604FF400534361AB
:1059600081618162C1614FF4FA530362C160C16217
:10597000016341630223032200F076FF18B908BDDA
:10598000FFF7D4FEE3E7FFF7D1FEF8E7EC200020B5
:105990000454014084210020245401402DE9F041A9
:1059A00088B004460268624B9A4206D02268614B76
:1059B0009A4258D008B0BDE8F0815F4B1B68002BBD
:1059C0003AD05D4A1368013313600823039302251C
:1059D00004950127059706950D26079603A95748B4
:1059E00000F0B8F94FF40853039304950597069512
:1059F000079603A9524800F0ADF95248524B036094
:105A00001223436000238360C360802303614FF44B
:105A1000007343614FF4006383612023C3614FF43B
:105A20000053036201F01CFBD0B9464BC4F884302C
:105A30009C62C4F88030B9E74FF0B0431A6E42F46C
:105A400000121A661B6E03F400130193019B0022DF
:105A50001146262001F0AAFF262001F0DFFFB0E763
:105A6000FFF764FEE1E7344B1B68002B48D0324A55
:105A70001368013313604023039302250495012723
:105A8000059706950D26079603A92D4800F062F9A3
:105A90004FF02008CDF80C800495059706950796E1
:105AA00003A94FF0904000F055F94FF400730393B1
:105AB000049505970695079603A9204800F04AF932
:105AC0002248234B03601323436010238360002389
:105AD000C360802303614FF4807343614FF480639C
