:020000040800F2
:100000000000032009660208ED640208EF6402089C
:10001000F1640208F3640208F564020800000000BD
:10002000000000000000000000000000F76402086B
:10003000F964020800000000FB640208FD64020885
:1000400061660208616602086166020805650208C9
:100050006166020861660208616602080D650208B1
:100060006166020817650208216502082D6502080D
:100070003D65020861660208616602086166020861
:10008000616602086166020861660208616602082C
:10009000616602086166020861660208616602081C
:1000A000616602086166020861660208616602080C
:1000B0007D650208616602086166020861660208E1
:1000C00061660208616602086166020861660208EC
:1000D00061660208616602084D65020861660208F1
:1000E00061660208616602086166020861660208CC
:1000F000656502086D65020875650208616602089B
:1001000061660208616602086166020861660208AB
:10011000616602086166020861660208616602089B
:10012000616602086166020861660208616602088B
:0C01300061660208616602086166020850
:1001400010B5054C237833B9044B13B10448AFF311
:1001500000800123237010BD800A002000000000F1
:10016000188C020808B5034B1BB103490348AFF3D1
:10017000008008BD00000000840A0020188C0208DE
:10018000034613F8012B002AFBD1181A01387047D7
:1001900081F0004102E000BF83F0004330B54FEA38
:1001A00041044FEA430594EA050F08BF90EA020FA5
:1001B0001FBF54EA000C55EA020C7FEA645C7FEA38
:1001C000655C00F0E2804FEA5454D4EB5555B8BF5B
:1001D0006D420CDD2C4480EA020281EA030382EACC
:1001E000000083EA010180EA020281EA0303362D5E
:1001F00088BF30BD11F0004F4FEA01314FF4801C31
:100200004CEA113102D0404261EB410113F0004F42
:100210004FEA03334CEA133302D0524263EB4303F9
:1002200094EA050F00F0A780A4F10104D5F1200E97
:100230000DDB02FA0EFC22FA05F2801841F10001F2
:1002400003FA0EF2801843FA05F359410EE0A5F1C6
:1002500020050EF1200E012A03FA0EFC28BF4CF0F7
:10026000020C43FA05F3C01851EBE37101F00045AD
:1002700007D54FF0000EDCF1000C7EEB00006EEBBA
:100280000101B1F5801F1BD3B1F5001F0CD3490844
:100290005FEA30004FEA3C0C04F101044FEA44529B
:1002A00012F5800F80F09A80BCF1004F08BF5FEA22
:1002B000500C50F1000041EB045141EA050130BD02
:1002C0005FEA4C0C404141EB0101013C28BFB1F514
:1002D000801FE9D291F0000F04BF01460020B1FA5F
:1002E00081F308BF2033A3F10B03B3F120020CDA32
:1002F0000C3208DD02F1140CC2F10C0201FA0CF010
:1003000021FA02F10CE002F11402D8BFC2F1200C74
:1003100001FA02F120FA0CFCDCBF41EA0C0190402A
:10032000E41AA2BF01EB0451294330BD6FEA040473
:100330001F3C1CDA0C340EDC04F11404C4F120025E
:1003400020FA04F001FA02F340EA030021FA04F370
:1003500045EA030130BDC4F10C04C4F1200220FAC7
:1003600002F001FA04F340EA0300294630BD21FA05
:1003700004F0294630BD94F0000F83F4801306BFCB
:1003800081F480110134013D4EE77FEA645C18BFBF
:100390007FEA655C29D094EA050F08BF90EA020F56
:1003A00005D054EA000C04BF1946104630BD91EA4E
:1003B000030F1EBF0021002030BD5FEA545C05D151
:1003C0004000494128BF41F0004130BD14F5800490
:1003D0003CBF01F5801130BD01F0004545F0FE4104
:1003E00041F470014FF0000030BD7FEA645C1ABF39
:1003F000194610467FEA655C1CBF0B46024650EA70
:10040000013406BF52EA033591EA030F41F400219B
:1004100030BD00BF90F0000F04BF0021704730B521
:100420004FF4806404F132044FF000054FF00001F6
:1004300050E700BF90F0000F04BF0021704730B5B7
:100440004FF4806404F1320410F0004548BF40428C
:100450004FF000013EE700BF42004FEAE2014FEAE1
:1004600031014FEA02701FBF12F07F4393F07F4FBC
:1004700081F06051704732F07F4208BF704793F0BF
:100480007F4F04BF41F40021704730B54FF46074D2
:1004900001F0004521F000411CE700BF50EA0102D5
:1004A00008BF704730B54FF000050AE050EA01027E
:1004B00008BF704730B511F0004502D5404261EBEE
:1004C00041014FF4806404F132045FEA915C3FF42F
:1004D000D8AE4FF003025FEADC0C18BF03325FEACC
:1004E000DC0C18BF033202EBDC02C2F1200300FA7D
:1004F00003FC20FA02F001FA03FE40EA0E0021FAA2
:1005000002F11444BDE600BF70B54FF0FF0C4CF48F
:10051000E06C1CEA11541DBF1CEA135594EA0C0F41
:1005200095EA0C0F00F0DEF82C4481EA030621EA7C
:100530004C5123EA4C5350EA013518BF52EA0335B7
:1005400041F4801143F4801338D0A0FB02CE4FF069
:100550000005E1FB02E506F00042E0FB03E54FF099
:100560000006E1FB03569CF0000F18BF4EF0010E91
:10057000A4F1FF04B6F5007F64F5407404D25FEA8D
:100580004E0E6D4146EB060642EAC62141EA555140
:100590004FEAC52040EA5E504FEACE2EB4F1FD0C82
:1005A00088BFBCF5E06F1ED8BEF1004F08BF5FEA00
:1005B000500E50F1000041EB045170BD06F00046B2
:1005C00046EA010140EA020081EA0301B4EB5C045F
:1005D000C2BFD4EB0C0541EA045170BD41F4801157
:1005E0004FF0000E013C00F3AB8014F1360FDEBF7C
:1005F000002001F0004170BDC4F10004203C35DA58
:100600000C341BDC04F11404C4F1200500FA05F3DA
:1006100020FA04F001FA05F240EA020001F000427B
:1006200021F0004110EBD37021FA04F642EB0601F1
:100630005EEA430E08BF20EAD37070BDC4F10C041B
:10064000C4F1200500FA04F320FA05F001FA04F2DF
:1006500040EA020001F0004110EBD37041F10001CB
:100660005EEA430E08BF20EAD37070BDC4F12005D6
:1006700000FA05F24EEA020E20FA04F301FA05F23E
:1006800043EA020321FA04F001F0004121FA04F2E6
:1006900020EA020000EBD3705EEA430E08BF20EAB6
:1006A000D37070BD94F0000F0FD101F000464000F0
:1006B00041EB010111F4801F08BF013CF7D041EA72
:1006C000060195F0000F18BF704703F00046520076
:1006D00043EB030313F4801F08BF013DF7D043EA47
:1006E0000603704794EA0C0F0CEA135518BF95EAFD
:1006F0000C0F0CD050EA410618BF52EA4306D1D184
:1007000081EA030101F000414FF0000070BD50EAA2
:10071000410606BF1046194652EA430619D094EA2C
:100720000C0F02D150EA013613D195EA0C0F05D116
:1007300052EA03361CBF104619460AD181EA03016A
:1007400001F0004141F0FE4141F470014FF0000022
:1007500070BD41F0FE4141F4780170BD70B54FF0BD
:10076000FF0C4CF4E06C1CEA11541DBF1CEA13553D
:1007700094EA0C0F95EA0C0F00F0A7F8A4EB05041F
:1007800081EA030E52EA03354FEA013100F0888016
:100790004FEA03334FF0805545EA131343EA1263DF
:1007A0004FEA022245EA111545EA10654FEA002694
:1007B0000EF000419D4208BF964244F1FD0404F54D
:1007C000407402D25B084FEA3202B61A65EB0305A9
:1007D0005B084FEA32024FF480104FF4002CB6EB66
:1007E000020E75EB030E22BFB61A754640EA0C00E6
:1007F0005B084FEA3202B6EB020E75EB030E22BF26
:10080000B61A754640EA5C005B084FEA3202B6EB66
:10081000020E75EB030E22BFB61A754640EA9C0025
:100820005B084FEA3202B6EB020E75EB030E22BFF5
:10083000B61A754640EADC0055EA060E18D04FEAB3
:10084000051545EA16754FEA06164FEAC30343EA53
:1008500052734FEAC2025FEA1C1CC0D111F4801F20
:100860000BD141EA00014FF000004FF0004CB6E719
:1008700011F4801F04BF01430020B4F1FD0C88BFB8
:10088000BCF5E06F3FF6AFAEB5EB030C04BFB6EBC3
:10089000020C5FEA500C50F1000041EB045170BDB6
:1008A0000EF0004E4EEA113114EB5C04C2BFD4EBE3
:1008B0000C0541EA045170BD41F480114FF0000E67
:1008C000013C90E645EA060E8DE60CEA135594EAE3
:1008D0000C0F08BF95EA0C0F3FF43BAF94EA0C0FE6
:1008E0000AD150EA01347FF434AF95EA0C0F7FF45B
:1008F00025AF104619462CE795EA0C0F06D152EAAF
:1009000003353FF4FDAE1046194622E750EA410692
:1009100018BF52EA43067FF4C5AE50EA41047FF4A3
:100920000DAF52EA43057FF4EBAE12E74FF0FF3C08
:1009300006E000BF4FF0010C02E000BF4FF0010CD9
:100940004DF804CD4FEA410C7FEA6C5C4FEA430C52
:1009500018BF7FEA6C5C1BD001B050EA410C0CBFA1
:1009600052EA430C91EA030F02BF90EA020F002003
:10097000704710F1000F91EA030F58BF994208BF6A
:1009800090422CBFD8176FEAE37040F00100704727
:100990004FEA410C7FEA6C5C02D150EA013C07D17E
:1009A0004FEA430C7FEA6C5CD6D152EA033CD3D0C9
:1009B0005DF8040B704700BF8446104662468C46C3
:1009C0001946634600E000BF01B5FFF7B7FF0028F6
:1009D00048BF10F1000F01BD4DF808EDFFF7F4FF1F
:1009E0000CBF012000205DF808FB00BF4DF808EDAA
:1009F000FFF7EAFF34BF012000205DF808FB00BFCD
:100A00004DF808EDFFF7E0FF94BF012000205DF8EE
:100A100008FB00BF4DF808EDFFF7CEFF94BF0120A3
:100A200000205DF808FB00BF4DF808EDFFF7C4FF9C
:100A300034BF012000205DF808FB00BF4FEA410CE5
:100A40007FEA6C5C02D150EA013C0AD14FEA430CC8
:100A50007FEA6C5C02D152EA033C02D14FF0000005
:100A600070474FF0010070474FEA410212F5001243
:100A700015D211D56FF47873B3EB625212D94FEAE5
:100A8000C12343F0004343EA505311F0004F23FACF
:100A900002F018BF404270474FF00000704750EA24
:100AA000013005D111F0004008BF6FF000407047E1
:100AB0004FF00000704700BF4FEA4102B2F1E0433F
:100AC00024BFB3F5001CDCF1FE5C0DD901F0004C35
:100AD0004FEAC0024CEA5070B2F1004F40EB830085
:100AE00008BF20F00100704711F0804F21D113F1B1
:100AF0003872BCBF01F00040704741F480114FEAEA
:100B00005252C2F11802C2F1200C10FA0CF320FA72
:100B100002F018BF40F001004FEAC1234FEAD3238F
:100B200003FA0CFC40EA0C0023FA02F34FEA4303F9
:100B3000CCE77FEA625307D150EA01331EBF4FF082
:100B4000FE4040F44000704701F0004040F0FE409D
:100B500040F40000704700BF7BB972B90029BEBFE6
:100B600000204FF0004106E008BF00281CBF6FF0D6
:100B700000414FF0FF3000F003BFADF1080C6DE90C
:100B800004CE002909DB002B1ADB00F091FDDDF813
:100B900004E0DDE9022304B07047404261EB41010B
:100BA000002B1BDB00F084FDDDF804E0DDE902230F
:100BB00004B0404261EB4101524263EB4303704792
:100BC000524263EB430300F073FDDDF804E0DDE91E
:100BD000022304B0404261EB41017047524263EB93
:100BE000430300F065FDDDF804E0DDE9022304B015
:100BF000524263EB430370472DE9F04F2DED068B16
:100C0000B0EE428AF0EE628AB0EE42AAF0EE62AA3C
:100C100055EC104B8DB053EC122B10EE100A2946F8
:100C20005BEC11AB57EC136BFFF76EFC3246CDE972
:100C300000013B4650465946FFF766FC3246804667
:100C400089463B4620462946CDE90689FFF75CFCEC
:100C50005246CDE902015B4651EC180BFFF754FCFC
:100C600042464B46CDE90401DDE90001FFF794FA65
:100C7000DDE9042380468946DDE90201FFF78EFAAB
:100C8000424641EC180B4B4640464946FFF7D6FE1C
:100C900050B9B0EE481AF0EE681A49EC108B0DB05E
:100CA000BDEC068BBDE8F08F53EC182B51EC180B04
:100CB000FFF7C4FE0028ECD04FF001038DF8203080
:100CC00025F0004309EE903A09EE104A9B4B51EC97
:100CD000190B4FF0FF32FFF7B1FE48B9974B51ECBB
:100CE000190B4FF0FF32FFF78BFE08B98DF820008B
:100CF000089B83F00103DBB20B9351EC190B8F4B74
:100D00004FF0FF32FFF79AFE48B951EC190B8B4BAD
:100D10004FF0FF32FFF774FE002800F0C6802BF082
:100D200000430993CDF820A0DDE90801834B4FF083
:100D3000FF32FFF783FE48B9DDE908017F4B4FF032
:100D4000FF32FFF75DFE002800F0AF8000230B9319
:100D500052EC1A1B22F0004309EE903AB0EE4A9A88
:100D6000764B51EC190B4FF0FF32FFF767FE00286E
:100D700040F0E880714B51EC190B4FF0FF32FFF758
:100D80003FFE002840F0DE8027F0004308960993DC
:100D90006A4B51EC190B4FF0FF324FF00108FFF78F
:100DA0004DFE40B951EC190B644B4FF0FF32FFF789
:100DB00027FE00B9804688F0010000F00100FFF72F
:100DC00039FB1AEE903ACDE90001009A21F000417A
:100DD00003F0004C41EA0C0343EC1A2BDDE9080157
:100DE000564B4FF0FF324FF00108FFF727FE40B996
:100DF000DDE90801514B4FF0FF32FFF701FE00B96A
:100E0000804688F0010000F00100FFF713FB07F0B7
:100E1000004321F0004242EA0307064622462B46E1
:100E200020462946FFF70AFE002840F04D81524631
:100E30005B4650465946FFF701FE002840F03781D7
:100E400053EC1A2B20462946FFF75EFB32468046BC
:100E500089463B4650465946FFF756FB02460B462D
:100E600040464946FFF798F9354B0022FFF74CFB07
:100E700032463B468046894620462946FFF744FBDA
:100E800053EC1A2B04460D4650465946FFF73CFBDF
:100E900002460B4620462946FFF780F9284B0022E0
:100EA000FFF732FB41EC180BF3E60B98FFF7C2FAA1
:100EB0002BF000444FF0010205F0004309948DF837
:100EC0002C20CDF820A021F0004242EA0305044680
:100ED0001A4BDDE908014FF0FF32FFF7AFFD48B9CB
:100EE000DDE90801154B4FF0FF32FFF789FD08B926
:100EF0008DF82C000B9B83F0010000F00100FFF740
:100F000099FA21F00042824651EC1A0B0BF0004393
:100F100042EA030B1AEE102A0B46FFF78FFD00285A
:100F200040F0DE8032463B4630463946FFF786FDCC
:100F3000002840F0AD8001230B9309E7FFFFEF7F0E
:100F40000000F07F27F0004309930896DDE90801CF
:100F50007E4B4FF0FF32FFF771FD48B9DDE9080124
:100F60007A4B4FF0FF32FFF74BFD00283FF410AFF4
:100F70000B9B002B7FF464AFDDE9001222F00043ED
:100F800009930891DDE90801704B4FF0FF32FFF73C
:100F900055FD40B9DDE908016C4B4FF0FF32FFF71A
:100FA0002FFD002846D0DDE9061222F00043019310
:100FB0000091DDE90001654B4FF0FF32FFF73EFD88
:100FC00040B9DDE90001614B4FF0FF32FFF718FD3A
:100FD00000282FD0DDE9021222F000430193009196
:100FE000DDE90001594B4FF0FF32FFF727FD38B91B
:100FF000DDE90001554B4FF0FF32FFF701FDC8B1AD
:10100000DDE9041222F0004301930091DDE90001C3
:101010004E4B4FF0FF32FFF711FD00287FF439AE41
:10102000DDE90001494B4FF0FF32FFF7E9FC0028F2
:101030007FF42FAE22462B4620462946FFF7FEFCC2
:10104000002876D152465B4650465946FFF7F6FCDB
:10105000002861D151EC1A0B1AEE102A0B46FFF74B
:10106000EDFC00284AD132463B4630463946FFF770
:10107000E5FC00283FF4E4AE002F4FF000024FF0F3
:101080000003BCBF00224FF0004316461F46D7E6C0
:10109000002F4FF00003B8BF4FF000434FF00002A5
:1010A0001F46B8BF0022012316460B9350E6BBF142
:1010B000000F4FF000024FF00003BCBF00224FF0C2
:1010C000004392469B46BBE6002D4FF000024FF0D6
:1010D0000003BCBF00224FF0004314461D46A6E6A5
:1010E0001AEE901A00294FF000024FF00003BCBF27
:1010F00000224FF0004343EC1A2B13E71AEE901A2C
:1011000000294FF000024FF00003BCBF00224FF057
:10111000004343EC1A2BA6E7BBF1000F4FF000028F
:101120004FF00003BCBF00224FF0004392469B46A5
:1011300090E7002D4FF000024FF00003BCBF0022EB
:101140004FF0004314461D467CE700BFFFFFEF7FD2
:101150002DE9F04F2DED0A8BB0EE409AF0EE609A3B
:10116000B0EE40BAF0EE60BA55EC134BB0EE418AE7
:10117000F0EE618A85B05BEC12ABB0EE41CAF0EEE6
:1011800061CA25F000432BF000498DED003A019330
:10119000DDE9002312EE100A494612EE108AFFF72D
:1011A00025FC002846D022462B4650465946FFF7DC
:1011B000D5FA06460F4632463B4650465946FFF79B
:1011C000A3F922462B46FEF7E9FF324641EC1A0B03
:1011D0003B4651EC190BFFF797F953EC182BFEF730
:1011E000DDFF53EC1A2BFFF7B9FA32463B460646B1
:1011F0000F4651EC180BFFF787F953EC192BFEF74C
:10120000CBFF53EC1A2BFFF7A9FA324641EC180B2F
:101210003B4630463946FFF711FC00284AD1B0EE74
:10122000481AF0EE681A47EC106B05B0BDEC0A8B5B
:10123000BDE8F08F52465B4620462946FFF78EFAFE
:1012400006460F4632463B4620462946FFF75CF9E4
:1012500052465B46FEF7A2FF53EC1C2B41EC180BE9
:1012600030463946FFF750F953EC192BFEF796FF3D
:1012700053EC182BFFF772FA02460B4630463946FC
:1012800016461F4653EC192BFFF73EF902460B4654
:1012900051EC1C0BFEF780FF53EC182BFFF75EFAA6
:1012A000324641EC180B3B4630463946FFF7C6FB49
:1012B0000028B4D053EC182B51EC180BFFF7BEFBF1
:1012C0000028ACD00022002350465946FFF784FB8B
:1012D000A0B30022002320462946FFF77DFB68B318
:1012E00051EC1B0B1BEE102A0B46FFF7A7FBE0B9D6
:1012F000BBF1000FDFF81092B8BFDFF810924FF08B
:101300000008B8BF4FF0000853EC1B2B404649467D
:10131000FFF7FAF853EC1C2B06460F4640464946A9
:10132000FFF7F2F841EC180B79E751EC1C0B1CEEBF
:10133000102A0B46FFF782FB0028D9D052EC1B1B6A
:1013400022F0004309EE903AB0EE4B9A6D4B51EC0F
:10135000190B4FF0FF32FFF771FB38B9694B51ECB5
:10136000190B4FF0FF32FFF74BFBD0B152EC1C1BB7
:1013700022F0004303938DED02CADDE90201614BC7
:101380004FF0FF32FFF75AFB002840F0C180DDE943
:1013900002015C4B4FF0FF32FFF732FB002840F0B8
:1013A000B780584B4FF0FF3240464946FFF746FBA7
:1013B000002840F0AD80534B4FF0FF324046494685
:1013C000FFF732FB002840F0A380DDE900014D4B20
:1013D0004FF0FF32FFF732FB002840F09980DDE943
:1013E0000001484B4FF0FF32FFF71EFB002840F092
:1013F0008F8058EC197B434B19EE100A4FF0FF32E7
:1014000041464FF00106FFF719FB48B919EE100AE3
:101410003C4B41464FF0FF32FFF7F2FA00B9064667
:1014200086F0010000F00100FFF704F859EC1C8B76
:101430001BEE903A21F0004203F0004C29F00047E7
:101440004FF001038DF80030804642EA0C092D4B25
:101450001CEE100A4FF0FF323946FFF7EFFA50B991
:101460001CEE100A274B39464FF0FF32FFF7C8FA3F
:1014700008B98DF80000009B83F0010000F0010026
:10148000FEF7D8FF1CEE903A21F0004203F0004333
:1014900042EA0307064642464B4650465946FFF786
:1014A00033F8324641EC180B3B4620462946FFF7FD
:1014B0002BF802460B4651EC180BFEF76FFE124B51
:1014C0000022FFF721F841EC170B32463B4650460D
:1014D000594657EC176BFFF717F842464B468046C4
:1014E000894620462946FFF70FF802460B4640463C
:1014F0004946FEF751FE044B0022FFF705F841EC88
:10150000180B8CE6FFFFEF7F0000F07F0000F0FF7C
:10151000664B4FF0FF3240464946FFF78FFA38B925
:10152000624B4FF0FF3240464946FFF769FA98B1E7
:10153000DDE900015D4B4FF0FF32FFF77FFA002835
:101540007FF46DAEDDE90001584B4FF0FF32FFF73D
:1015500057FA00287FF463AE544B51EC190B4FF04F
:10156000FF32FFF76BFA00287FF459AE51EC190BEC
:101570004E4B4FF0FF32FFF757FA00287FF44FAE83
:1015800052EC1C1B22F0004303938DED02CADDE9EF
:101590000201464B4FF0FF32FFF750FA00287FF46C
:1015A0003EAEDDE90201414B4FF0FF32FFF73CFA5E
:1015B00000287FF434AE3D4B4FF0FF3240464946A1
:1015C0004FF00106FFF73AFA40B9384B404649461A
:1015D0004FF0FF32FFF714FA00B9064686F001001B
:1015E00000F00100FEF726FFDDE9007821F000425F
:1015F0000BF0004342EA030B82462C4B4FF0FF32C4
:10160000384641464FF00106FFF718FA40B9274B1C
:10161000384641464FF0FF32FFF7F2F900B906466F
:1016200086F0010000F00100FEF704FF05F0004322
:1016300021F0004242EA0309804652465B4651ECE3
:101640001B0BFEF761FF55EC1C4B06460F4642464E
:101650004B4629461CEE100AFEF756FF02460B4683
:1016600030463946FEF79AFD00220023FEF74CFF74
:1016700052465B4606460F461CEE100A2946FEF708
:1016800043FF42464B4604460D4651EC1B0BFEF70A
:101690003BFF02460B4620462946FEF77DFD002211
:1016A0000023FEF731FF41EC180BB8E5FFFFEF7F99
:1016B0002DE9F047089D04468E46002B4DD18A4205
:1016C000944669D9B2FA82F252B101FA02F3C2F138
:1016D000200120FA01F10CFA02FC41EA030E9440C9
:1016E0004FEA1C48210CBEFBF8F61FFA8CF708FBEA
:1016F00016E341EA034306FB07F199420AD91CEBC2
:10170000030306F1FF3080F01F81994240F21C81F3
:10171000023E63445B1AA4B2B3FBF8F008FB10333B
:1017200044EA034400FB07F7A7420AD91CEB040470
:1017300000F1FF3380F00A81A74240F20781644440
:10174000023840EA0640E41B00261DB1D4400023C5
:10175000C5E900433146BDE8F0878B4209D9002D29
:1017600000F0EF800026C5E9000130463146BDE8B3
:10177000F087B3FA83F6002E4AD18B4202D382421D
:1017800000F2F980841A61EB030301209E46002DCC
:10179000E0D0C5E9004EDDE702B9FFDEB2FA82F221
:1017A000002A40F09280A1EB0C014FEA1C471FFA7F
:1017B0008CFE0126200CB1FBF7F307FB131140EA66
:1017C00001410EFB03F0884208D91CEB010103F133
:1017D000FF3802D2884200F2CB804346091AA4B2F5
:1017E000B1FBF7F007FB101144EA01440EFB00FEC9
:1017F000A64508D91CEB040400F1FF3102D2A6452E
:1018000000F2BB800846A4EB0E0440EA03409CE7CC
:10181000C6F12007B34022FA07FC4CEA030C20FA79
:1018200007F401FA06F31C43F9404FEA1C4900FA99
:1018300006F3B1FBF9F8200C1FFA8CFE09FB181116
:1018400040EA014108FB0EF0884202FA06F20BD989
:101850001CEB010108F1FF3A80F08880884240F2D9
:101860008580A8F102086144091AA4B2B1FBF9F01D
:1018700009FB101144EA014100FB0EFE8E4508D918
:101880001CEB010100F1FF346CD28E456AD902389D
:10189000614440EA0840A0FB0294A1EB0E01A14282
:1018A000C846A64656D353D05DB1B3EB080261EBF0
:1018B0000E0101FA07F722FA06F3F1401F43C5E9CA
:1018C000007100263146BDE8F087C2F12003D84000
:1018D0000CFA02FC21FA03F3914001434FEA1C4742
:1018E0001FFA8CFEB3FBF7F007FB10360B0C43EA34
:1018F000064300FB0EF69E4204FA02F408D91CEBE4
:10190000030300F1FF382FD29E422DD902386344E1
:101910009B1B89B2B3FBF7F607FB163341EA034181
:1019200006FB0EF38B4208D91CEB010106F1FF38D0
:1019300016D28B4214D9023E6144C91A46EA0046C7
:1019400038E72E46284605E70646E3E61846F8E659
:101950004B45A9D2B9EB020864EB0C0E0138A3E7A2
:101960004646EAE7204694E74046D1E7D0467BE783
:10197000023B614432E7304609E76444023842E7FB
:10198000704700BF10B588B000248DF807401822BA
:10199000214602A800F0B4FB3F23ADF808308123B4
:1019A000ADF80A300DF10703069301230793214692
:1019B00002A800F02FFDA04203DB9DF8070008B04D
:1019C00010BDFF20FBE72DE9F04FCBB09C469DF802
:1019D00054619DF85C5106F1080A04AC04EB0A0B53
:1019E00077190937E31901930DF10F094FF000083A
:1019F0008DF80F808DF81000ADF81110ADF81320A0
:101A00008DF815C09DF850318DF816308DF817609F
:101A10003246569906A800F06FFB04F80A500936C2
:101A20002A4658990BF1010000F066FB3544BDF8D9
:101A30006431E353BDF86831019A538004351822AC
:101A4000414644A800F05CFB3F23ADF810318323EE
:101A5000ADF8123146944795CDF820910123499372
:101A6000414644A800F0D6FC404504DB9DF80F0039
:101A70004BB0BDE8F08FFF20FAE770B5C8B00DF1AC
:101A8000070500248DF8074002AE8DF808001822E3
:101A9000214642A800F034FB3F23ADF808318523EE
:101AA000ADF80A3144960123459346954793214664
:101AB00042A800F0AFFCA04203DB9DF8070048B04D
:101AC00070BDFF20FBE770B5C8B00DF1070600251B
:101AD0008DF8075002AC8DF808008DF809108DF8CC
:101AE0000A208DF80B309DF830318DF80C309DF8C0
:101AF00034318DF80D309DF838318DF80E304F9B14
:101B0000CDF80F309DF840318DF81330182229465A
:101B100042A800F0F5FA3F23ADF808318623ADF86E
:101B20000A3144940C234593469601234793294652
:101B300042A800F06FFCA84203DB9DF8070048B004
:101B400070BDFF20FBE770B5C8B00DF1070600249B
:101B50008DF8074002ADADF80800CDF80A10182244
:101B6000214642A800F0CCFA3F23ADF80831882383
:101B7000ADF80A31449506234593469601234793D1
:101B8000214642A800F046FCA04203DB9DF8070076
:101B900048B070BDFF20FBE72DE9F041C8B0074613
:101BA0000E461546984607220021684600F0A8FA1E
:101BB00002AC8DF808708DF809608DF80A50182273
:101BC000002142A800F09CFA3F23ADF808318A2397
:101BD000ADF80A31449403234593CDF818D1072377
:101BE0004793002142A800F015FC002811DB9DF866
:101BF000000058B9BDF80130A8F80030BDF8032046
:101C00004E9B1A80BDF805204F9B1A8048B0BDE856
:101C1000F081FF20FAE7F0B5C9B004460DF10706E0
:101C200000258DF8075002AF8DF8080002460DF12F
:101C3000090000F061FA01341822294642A800F098
:101C40005FFA3F23ADF808318E23ADF80A3144978F
:101C50004594469601234793294642A800F0DAFBB3
:101C6000A84203DB9DF8070049B0F0BDFF20FBE769
:101C700010B588B000248DF807401822214602A82C
:101C800000F03EFA3F23ADF808309223ADF80A3059
:101C90000DF10703069301230793214602A800F0E4
:101CA000B9FBA04203DB9DF8070008B010BDFF2080
:101CB000FBE770B5C8B00DF1070600248DF80740AA
:101CC00002ADADF808008DF80A101822214642A88E
:101CD00000F016FA3F23ADF80831A523ADF80A311C
:101CE000449503234593469601234793214642A8F2
:101CF00000F090FBA04203DB9DF8070048B070BDE8
:101D0000FF20FBE710B588B000248DF807401822AB
:101D1000214602A800F0F4F93F23ADF8083040F264
:101D20000113ADF80A300DF1070306930123079361
:101D3000214602A800F06EFBA04203DB9DF80700DD
:101D400008B010BDFF20FBE72DE9F041C8B0044604
:101D5000884617461E4601283CD0022838D0012567
:101D600002AB1D440322002101A800F0C9F98DF83F
:101D70000840012C30D0022C30D11024224641469C
:101D80000DF1090000F0B8F92F706E7003341822BD
:101D9000002142A800F0B4F93F23ADF808314FF418
:101DA0008173ADF80A3102AB4493459401AB46937D
:101DB00003234793002142A800F02CFB002811DBED
:101DC0009DF8040058B9BDF805204E9B1A8006E026
:101DD0001125C5E70325C3E70224CFE7972048B0C4
:101DE000BDE8F081FF20FAE72DE9F041C8B00646D2
:101DF0000C4690461F4601294CD0022948D00325A5
:101E000002AB1D440322002101A800F079F9ADF8CE
:101E100008608DF80A40012C3ED0022C3ED11024DF
:101E2000224641460DF10B0000F066F92F809DF827
:101E30003831AB709DF83C31EB709DF840312B711F
:101E40009DF844316B719DF84831AB710A3418220A
:101E5000002142A800F054F93F23ADF808314FF4B7
:101E60008273ADF80A3102AB4493459401AB4693BB
:101E700003234793002142A800F0CCFA002811DB8D
:101E80009DF8040058B9BDF80520539B1A8006E060
:101E90001325B5E70525B3E70224C1E7972048B02D
:101EA000BDE8F081FF20FAE7F0B5C9B01C460DF19E
:101EB000070700268DF8076002ADADF80800ADF801
:101EC0000A108DF80C208DF80D301A464E990DF140
:101ED0000E0000F011F906341822314642A800F035
:101EE0000FF93F23ADF808314FF48373ADF80A3191
:101EF00044954594469701234793314642A800F004
:101F000089FAB04203DB9DF8070049B0F0BDFF201D
:101F1000FBE770B5C8B00DF1070500248DF8074048
:101F200002AEADF808001822214642A800F0E8F8F9
:101F30003F23ADF8083140F22713ADF80A3144963B
:101F400002234593469501234793214642A800F07A
:101F500061FAA04203DB9DF8070048B070BDFF2086
:101F6000FBE7F0B5C9B00C4611460DF10707002597
:101F70008DF8075002AE8DF808008DF80940224612
:101F80000DF10A0000F0B8F802341822294642A8E0
:101F900000F0B6F83F23ADF808310C23ADF80A3154
:101FA00044964594469701234793294642A800F05A
:101FB00031FAA84203DB9DF8070049B0F0BDFF20CD
:101FC000FBE770B5C8B00DF1070600248DF8074097
:101FD00002AD8DF808008DF809101822214642A89C
:101FE00000F08EF83F23ADF808310F23ADF80A3129
:101FF000449502234593469601234793214642A8E0
:1020000000F008FAA04203DB9DF8070048B070BD5D
:10201000FF20FBE770B5C8B00DF1070500248DF86F
:10202000074002AEADF808001822214642A800F091
:1020300067F83F23ADF808311823ADF80A3144960C
:1020400002234593469501234793214642A800F079
:10205000E1F9A04203DB9DF8070048B070BDFF2006
:10206000FBE710B588B000248DF807401822214600
:1020700002A800F045F80323ADF80830ADF80A30A7
:102080000DF10703069301230793214602A800F0F0
:10209000C1F9A04203DB9DF8070008B010BDFF2086
:1020A000FBE770B5C8B00DF1070600258DF80750A5
:1020B00002AC8DF808008DF809108DF80A2018225E
:1020C000294642A800F01CF80823ADF80831312356
:1020D000ADF80A3144940323459346960123479370
:1020E000294642A800F096F9A84203DB9DF80700B4
:1020F00048B070BDFF20FBE708B526F01BFC08BD0B
:1021000008B526F03FFC08BD704770477047704720
:102110007047704770477047704770477047704707
:102120007047704770477047704708B5FFF7ECFF7E
:10213000FFF7EBFFFFF7EAFFFFF7E9FFFFF7E8FF25
:10214000FFF7E7FFFFF7E6FFFFF7E5FFFFF7E4FF25
:10215000FFF7E3FFFFF7E2FFFFF7E1FFFFF7E0FF25
:10216000FFF7DFFFFFF7DEFFFFF7DEFFFFF7DBFF25
:1021700000F0B4FE08BD000008B5044B00221A7739
:1021800083F82020FFF7D1FF08BD00BF900000209A
:10219000034A137F42F8230001331377704700BFCF
:1021A0009000002038B505464378FF2B06D1B0F8E3
:1021B000033003F47F43B3F5406F03D0284600F0AB
:1021C0004BFD38BD002422460A4B1B7FA34209D990
:1021D000084B53F8243028469847024610B901347A
:1021E000E4B2F1E7002AE9D0022A01D10020E8E7B1
:1021F0000120E6E79000002000B585B06B4600F1B5
:102200000C022C214FF6664000F012FA9DF80E00E9
:1022100005B05DF804FB00B585B06B4600F10C021B
:102220000F214FF6684000F003FA9DF80E0005B04C
:102230005DF804FB00B585B002466B460E214FF6F3
:10224000754000F0F5F99DF80E0005B05DF804FB4F
:1022500030B4214BDB6BC3F30D039B0003F1005340
:1022600003F540331A6811681C4B99422DD013694D
:1022700054699569516892684FEA136C80F800C000
:102280004FEA134C80F801C04FEA132C80F802C0CB
:10229000C3F3031C80F803C003F00F030371230E84
:1022A0004371230C8371230AC371047245720B0EB0
:1022B00083720B0CC372090A0173130E4373130C60
:1022C0008373C273002030BC704753699469D56929
:1022D000D1681269D0E700BF00400058B95646A93E
:1022E00008B520B9054B1B6803B1984708BD034BDF
:1022F0001B68002BFAD001209847F7E7A40A0020BA
:1023000030B585B004460A4800F026FB094D284642
:1023100040F8044B00F020FB01232B73064B1B6895
:1023200023B10294054A00926846984705B030BD33
:102330009C0A0020B4000020A80A0020B92400084C
:1023400010B50B461146084A1468A4F80900E37258
:102350001A4604F10C0026F0EDFA044B1B6900212B
:102360000846984710BD00BFB4000020A80A00200E
:1023700010B50C464A68054B1A60054BD8611846E3
:1023800000F0B4F82068FFF7BBFF10BDA40A0020DE
:10239000A80A002000B585B01B4800F0E0FA10B98B
:1023A0001A4B1B7B4BB9184800F0D9FA10B9174BE0
:1023B0001B7B23BB05B05DF804FB03A9124800F0AA
:1023C000FEFA134BDB698BB1039A029201228DF85E
:1023D000042001A898479DF804200C4B1A730B4B5E
:1023E0001B7B3BB1039800F06FFADCE7074B01223F
:1023F0001A73F4E70399044800F0BDFAD3E70248E2
:1024000000F0A2FCD6E700BFB8000020B400002016
:10241000A80A0020F0B583B007460020FFF760FF50
:10242000B7F90250C5F309053B8845EA8325ADB2EB
:10243000BA68397B2846FFF783FF0026002E33D188
:1024400048F2E80000F08BFC05E0B4F80D30AB4238
:1024500016D0237B33BB174800F081FA0028EDD15A
:1024600001A9144800F0ABFA019C637A0F2BECD061
:10247000A389AB4208D0E37A002BECD00126EAE72F
:102480003B69E27A1A70E4E7A27A033AD2B27B6936
:102490009A42A8BF1A467A6104F10E01386926F003
:1024A00049FAE8E70126D6E70120FFF719FF0020E7
:1024B00003B0F0BD9C0A002010B50146437A0E3BE4
:1024C000DBB2012B07D9074C204600F060FA20460A
:1024D00000F03AFC10BD044800F059FA002000F06A
:1024E00039FCF7E7B80000209C0A0020024B03608B
:1024F000024B0361704700BF39270008812700089D
:1025000008B538B9084B1B6803B19847074B002240
:102510001A7008BD054B01221A70034B1B68002B73
:10252000F7D010469847F4E7C80A0020C8000020FA
:1025300030B585B004460B4D686005F1080000F029
:102540000BFA0120FFF7DCFF01232B74064B1B68FD
:1025500033B10394054A0192054A029201A89847B3
:1025600005B030BDC8000020CC0A0020912600082C
:102570007525000810B50146034C204600F007FA07
:10258000204600F0CAFF10BDD000002010B50C4658
:102590004A68054B1A60054BD861184600F07EF872
:1025A0002068FFF7C5FF10BDC80A0020CC0A002034
:1025B00000B585B01B4800F0D2F910B91A4B1B7C4E
:1025C0004BB9184800F0CBF910B9174B1B7C23BB53
:1025D00005B05DF804FB03A9124800F0F0F9134BB5
:1025E000DB698BB1039A029201228DF8042001A8C5
:1025F00098479DF804200C4B1A740B4B1B7C3BB185
:10260000039800F061F9DCE7074B01221A74F4E744
:102610000399044800F0AFF9D3E7024800F07DFFCA
:10262000D6E700BFD0000020C8000020CC0A002060
:102630002DE9F04107460C4616461D460020FFF7DF
:102640005FFFDFF84880D8F80400A0F80970C47272
:10265000224631460C3026F06DF90B4B1B690021E8
:102660000846984748F2E80000F062FFD8F80410E6
:102670008A78033205F1080026F05CF90120FFF7A3
:102680003FFFBDE8F08100BFCC0A0020C800002059
:1026900008B5002000F047FF08BD0000024B0360B2
:1026A000024B0361704700BFDD27000819280008AE
:1026B00000B583B009E001A9084800F080F9084B93
:1026C0001B690199186900F062F9044800F047F9A4
:1026D0000028F0D003B05DF804FB00BFF40A00202E
:1026E0000000032008B500F09FFC08BD08B5104AA3
:1026F000104B136003F12001516003F13001916030
:1027000003F14001116203F14801516203F15001EC
:10271000D16003F15801116103F17401516103F1BA
:10272000780191618433D36100F0A6FC08BD00BF3D
:10273000000003202800032038B504460B4D28462E
:1027400000F00AF90A4B5B68A2681A60E268DA6076
:10275000084A5A609D6000F0B1FC2268064B1A607E
:102760006268064B1A60002038BD00BFB800032025
:1027700000000320DC000020F00A0020EC0A00200A
:1027800008B5054B5A681268012111725B6800F0A8
:102790009DFC002008BD00BF0000032000B583B0F1
:1027A00007E001A9074800F00AF9074B1B680198E8
:1027B0009847044800F0D3F80028F2D003B05DF841
:1027C00004FB00BFB8000320F00A002008B5024B4C
:1027D0001B68984708BD00BFEC0A002038B50446C6
:1027E000094D284600F0B8F8084BDB68A2681A606B
:1027F0005D6000F089FC2268054B1A606268054B39
:102800001A60002038BD00BFC00003200000032074
:10281000FC0A0020000B002008B5054BDA6812689E
:1028200010211172DB6800F077FC002008BD00BFAA
:102830000000032008B5044BDA68DA68034B1B6814
:102840001068984708BD00BF00000320FC0A002064
:1028500000B583B007E001A9074800F0B0F8074BC6
:102860001B6801989847044800F079F80028F2D0D6
:1028700003B05DF804FB00BFC0000320000B002084
:1028800038B504460C4D284600F066F80B4800F0B9
:1028900063F80B4B1B690B4A1360A2689A60E268ED
:1028A000DA601D6122681A6062685A6022695A61A2
:1028B00062699A6138BD00BFC8000320F40A002095
:1028C00000000320040B002008B50146034800F077
:1028D0005EF8034800F06EFC08BD00BFF40A00205B
:1028E000B126000810B5054C204600F035F8044B21
:1028F0005B691C6000F076FC10BD00BFD0000320B7
:10290000000003207047000000B583B006E001A975
:10291000064800F054F80198FFF7F4FF034800F070
:102920001EF80028F3D003B05DF804FBD0000320AC
:1029300001460748C3798B4204D0064A904201D031
:102940000838F7E78B4200D170470020FCE700BF52
:10295000F873FF1F0070FF1F006040607047EFF3C7
:10296000108372B60268824203D0002083F310887D
:1029700070470120FAE7EFF3108372B602680A602D
:10298000486001600A68516083F310887047EFF374
:10299000108372B6086042684A6041604A681160FC
:1029A00083F310887047EFF3108372B642680168B2
:1029B000116002684168516083F31088704710B558
:1029C000EFF3108472B603680B600068FFF7EBFF4B
:1029D00084F3108810BD000008B5064B93F88030D2
:1029E000052B00D108BDFEF7CDFF024B002283F876
:1029F0008020F7E76009002000B583B0054B009305
:102A0000054B019369460548FFF7B2FC03B05DF83A
:102A100004FB00BFD80003203B2A0008212A00083D
:102A200010B5044640680830FFF7BCFB10B1012325
:102A3000237010BD00232370FBE708B510B10128F7
:102A400004D008BD072000F0ADFDFAE7072000F034
:102A5000B7FDF6E708B50F4BD3F88025B2F1FF3F7D
:102A600010D0D3F884350C480270C2F307224270AC
:102A70008370C3F30722C270C3F3074202711B0EB7
:102A8000437108BD0020FFF753FF0028F9D1034828
:102A9000F7E700BF0070FF1F0C0B0020D88C020866
:102AA000F0B589B00024ADF81840FFF7DAFAFFF767
:102AB000D1FF024606212046FFF753FA2C4A102187
:102AC0001820FFF74EFA2B4A10210820FFF749FA89
:102AD00018210120FFF775FAFFF714F90DF11A0319
:102AE000019307AB00930DF11E030722214601203D
:102AF000FFF752F8BDF81E60BDF81C701E4D284649
:102B0000FDF73EFB0095C3B2224639463046FFF73B
:102B1000CBF906AB009302232246BDF81A10BDF88C
:102B20001E00FFF7C1F9022211462046FFF7B9FA4D
:102B3000124D2C702046FEF7A0FF0121697008237A
:102B40002B7110226A71EC700D48A860AC7004946F
:102B50000390029401920093234602222046FEF73E
:102B6000B2FFAB780BB909B0F0BDFFF781F8FAE717
:102B7000C88C0208B88C0208B08C020860090020DA
:102B800040E2010000B589B00B4B83F880000020C3
:102B900006900590049003900290019000900346E7
:102BA000A0228021FEF70FFF04490920FFF733F828
:102BB00009B05DF804FB00BF600900200C00002094
:102BC00030B58FB0EC461F4C0FCCACE80F000FCCEB
:102BD000ACE80F000FCCACE80F0094E803008CE8E1
:102BE0000300FFF709FF0121022000F0B1FC164AA3
:102BF0000021022000F0DCFD6846FFF7FDFAF0B985
:102C0000FFF74EFFFFF7B8FA104C002584F880500C
:102C10004FF6FF73E3820E4A2946012000F0C8FDFB
:102C20000620FFF7F7F900F0FFF865762576022019
:102C3000FFF7A8FF074B01221A700FB030BD1FF03D
:102C400021FCDDE7308C0208952300086009002094
:102C5000D9290008120B002010B543783E2B23D051
:102C6000FF2B4BD0052B01D0012010BD8288324BA9
:102C7000DB8A9A4212D0304B93F8803013B92F4B35
:102C800001221A700220FFF77DFF2D4801230370F7
:102C9000294BDB8A438000F0C5F8E5E7264B00228C
:102CA000DA8283F88020E6E7C378012BDCD1224B5F
:102CB00093F88030042B1CD01F4B052283F8802012
:102CC000B0F805301C4CE3821D480022027043809E
:102CD00000F0A8F894F88030052BC5D1174B0022DE
:102CE0001A7001224FF400714FF090401FF0B2FFB4
:102CF000BAE7114B062283F88020E1E7B0F80330F1
:102D000040F2094293420DD040F6164293420FD052
:102D100040F202429342A7D10A49074BD88AFEF7F4
:102D200012FFA1E70121044BD88AFEF7C2FF9BE7FF
:102D300000F04AF898E700BF60090020120B00205D
:102D4000080B002040E2010008B50021022000F03D
:102D500015FC08BD08B5012000F03EFC08BD08B513
:102D6000012000F0F9FC08BD08B5134B1B7803B92E
:102D700008BD124B1978124BF42201FB02310020DE
:102D800000F02AF964280CD00C4A13780133DBB226
:102D900013701378DBB2092BEAD9134600221A709C
:102DA000E6E7084B00221A70044A1378D9B2013BB7
:102DB000DBB213701170DBE7140B0020A0140020AD
:102DC000180B0020130B002008B50021042000F090
:102DD000D5FB024B01221A7008BD00BF130B002067
:102DE00008B50021042000F0C9FB024B01221A7033
:102DF00008BD00BF130B00200378012B02D0022B6B
:102E000006D070470123054A1370054A13707047B6
:102E10000023024A1370024A13707047140B0020FB
:102E2000130B00207047000008B5054A002104205C
:102E300000F0BEFC01F032FF01F048FF08BD00BF0A
:102E4000692D000810B584B04378FF2B03D000240F
:102E5000204604B010BDB0F8033040F6144293424F
:102E600027D040F61642934232D040F601429342B8
:102E700001D00024ECE7B0F80720174B5B88023341
:102E80009A4201D00024E3E7447B1CB1012C09D015
:102E90000124DDE702238DF800306846FFF7ACFF20
:102EA0000124D5E701238DF800306846FFF7A4FF21
:102EB000CEE7B0F80720084B5B8801339A4201D077
:102EC0000024C5E7B0F80500FFF723F80124BFE7A9
:102ED000FFF786FF0024BBE7C400002030B58BB0AD
:102EE0003A48FFF755F98F238DF81830E5238DF810
:102EF0001930B3238DF81A30D5238DF81B302E23CB
:102F00008DF81C307F238DF81D304A238DF81E303C
:102F100098238DF81F302A238DF8203048238DF810
:102F200021307A238DF82230CC238DF823300024F1
:102F30008DF824408DF825408DF826408DF82740E7
:102F4000234D00950423012206A90220FEF7FCFE72
:102F500019238DF81830ED238DF8193082228DF861
:102F60001A20AE228DF81B208DF81C3021238DF8FD
:102F70001D304C238DF81E309D238DF81F304123CA
:102F80008DF8203045238DF8213022238DF8223012
:102F90008E238DF823308DF824408DF825408DF850
:102FA00026408DF8274035F8020B05950494102330
:102FB00003930722029201940093064B1B7806AA02
:102FC0000221FEF711FF0BB030BD00BF452E0008F7
:102FD000C40000201500002008B19220704700B501
:102FE00083B006480091064B1B7800224188008878
:102FF000FEF75AFF03B05DF804FB00BFC4000020D9
:103000001500002010B5064C636843F4002363608C
:10301000044B1B6898474FF40023A36010BD00BF0A
:10302000000C0058A414002082B04FF0B043D3F835
:10303000502142F48012C3F85021D3F8503103F4E8
:1030400080130193019B0A4B1A6A42F400721A62C0
:10305000D3F8D42042F40072C3F8D42040BF20BF7C
:10306000044AD36843F40043D36002B0704700BF02
:10307000000800580004005800B583B04FF0B0437A
:103080001A6D42F480121A651B6D03F480130193CC
:10309000019B094B1A6842F001021A601A6842F457
:1030A00080321A602C2021F071FC2D2021F06EFC62
:1030B00003B05DF804FB00BF000C0058024A5368DF
:1030C00023F0010353607047000C0058024B4FF48B
:1030D00080329A60704700BF000C005808B5044A5F
:1030E000536843F400135360FFF770FB08BD00BF43
:1030F000000C005808B5FFF751FB024B01229A6003
:1031000008BD00BF000C0058024A536823F00203B8
:1031100053607047000C0058044B4FF400329A6023
:103120005A6822F400325A60704700BF000C005801
:1031300008B5044A536843F400335360FFF77AFB41
:1031400008BD00BF000C005808B5144BDB6813F035
:10315000020F04D1114B5B6813F4003F14D00F4BE6
:10316000DB6813F0080F04D10C4B5B6813F4002FDD
:103170000DD00A4BDB6813F0200F04D1074B5B68BE
:1031800013F4001F06D008BDFFF7D2FFFBE7FFF7DF
:1031900039FFF8E7FFF7A2FFF5E700BF000C005882
:1031A00008B5FFF755FB024B02229A6008BD00BF2D
:1031B000000C005808B5094BDB6813F0080F05D167
:1031C0008047064B4FF400229A6008BD044B1860FC
:1031D000024A536823F400235360F6E7000C0058BA
:1031E000A4140020024A536823F008035360704778
:1031F000000C005808B5FFF787FB024B08229A60C5
:1032000008BD00BF000C005808B5144BDB6913F073
:10321000020F0AD1114BDB6913F0010F0DD10F4BD7
:10322000DB6913F0080F10D108BD0C4B5B6813F07D
:10323000020FEFD1FFF7B4FFF6E7084B5B6813F01E
:10324000010FECD1FFF756FFEEE7044B5B6813F07C
:10325000080FE9D1FFF7CEFFE6E700BF000C0058EA
:1032600010B588B00DF1040C094C0FCCACE80F0080
:1032700094E80700ACE803002CF8022B120C8CF841
:103280000020FFF72FFB01A8FEF7C5FF08B010BD17
:10329000688C020882B04FF0B0431A6D42F480127D
:1032A0001A651B6D03F480130193019B0A4B3F22A7
:1032B0009A609A615A6842F47C125A605A6942F4E0
:1032C0007C125A615A6842F03F025A605A6942F0D1
:1032D0003F025A6102B07047000C0058054BCA22E9
:1032E0005A6253225A629A6822F007029A60FF22B9
:1032F0005A62704700280040704708B54FF0B0434D
:10330000D3F8943013F0806F18D04FF0B043D3F857
:10331000943013F0805F11D121F088FB21F086FBFF
:103320004FF0B043D3F8902042F48032C3F890209D
:10333000D3F8902022F48032C3F8902008BD08B55D
:10334000FFF7DBFFFFF7A6FF08BD000008B5002070
:10335000FFF7EEFA68B181794FF0B042054BC2F841
:103360009C30D2F89C3023F47C5343EA0123C2F80A
:103370009C3008BDFECAFECA08B54FF0B042936843
:1033800043F40043936000F0D9F8054AD2F8803046
:1033900023F0070343F00403C2F8803008BD00BFE8
:1033A0000004005810B588B0FFF7A0F90F4A0021BB
:1033B000082000F0FDF90E4C00940E4B0193694675
:1033C0000D48FFF7E3F804F58673029304F50673DE
:1033D000039304F54974049440F23C53059302A806
:1033E000FFF74EFAFFF77EF908B010BDB1250008CF
:1033F00000010020F93200085534000800B585B0FE
:103400000023009301930293ADF80C3043685B7B7B
:1034100023B1012B19D005B05DF804FBFFF720FFA5
:103420000D238DF800307F238DF80230084B1B6888
:103430001B0CADF80C306846FEF7FCFEFFF7C0FB36
:103440000021012000F084F8E5E700230370E2E7A3
:10345000002004E04368B3F80B30B3F5124F00D0FE
:10346000704710B584B004466846FEF7F1FE20466A
:10347000FFF7C4FF04B010BD08B5044B4FF4004281
:103480001A61FFF75CFFFFF761FF08BD00400058BD
:10349000034AD2F8903043F05003C2F8903070479E
:1034A0000008005808B5FFF7F3FFFFF717FF08BD46
:1034B00008B5FFF7F7FFFFF75FFF034900201EF095
:1034C000A3FCFFF76FFF08BDD420002038B50446E9
:1034D0001FF0D4FA0546B4F1FF3F09D01FF0DAFA25
:1034E000044405E0054A136923F00403136130BF67
:1034F0001FF0C4FA401BA042F4D338BD00ED00E039
:1035000008B54FF0FF3000F093F808BD704708B5DC
:103510004FF0FF3000F08CF808BD08B500210820FE
:1035200000F02CF808BD08B5022000F055F808BDE1
:1035300008B5022000F010F908BD00000023024A7F
:103540001360024A13607047AC140020A8140020D6
:10355000EFF3108372B641B1012903D106490A681D
:103560001043086083F31088704703490A6822EA11
:1035700000000860F6E700BFA8140020EFF3108CED
:1035800072B6064A136803431360054A52F8313095
:10359000184342F831008CF3108870474C15002016
:1035A0003C150020EFF3108172B6044A136823EA39
:1035B0000000106081F31088704700BF1C000020DD
:1035C000EFF3108172B6034A13681843106081F359
:1035D000108870471C000020EFF3108172B6034A78
:1035E00013681843106081F310887047B4140020EA
:1035F00070477047030C1B04B3B90004102310F08C
:103600007F4F02D10833DBB2000210F0704F02D1BD
:103610000433DBB20001000F044A105C1844C0B24E
:10362000C0F11F00C0B270470023E8E7108E020807
:1036300030B583B0404B1C68204018603F4B1A687F
:103640003F4B1B683F4909683F4805684AE0013322
:103650003E4A52F833200A400242F8D03B4D55F81A
:1036600033200A40024005EBC3056968114202D1CC
:103670004FF0FF306860354D05EBC30568681040BA
:10368000FFF7B8FF3249086001906A68012303FA26
:1036900000F022EA00006860EFF3108572B60A6855
:1036A0009340D84325490A6822EA03030B600223AA
:1036B00006E0013B254951F83320024041F8332010
:1036C000002BF6D185F31088214B1A68214B53F853
:1036D00022309847194B1A68194B1B681949096819
:1036E000194805680A4014480068024201D02B407E
:1036F000AED0174B4FF0FF321A60FFF779FFEFF3B0
:10370000108572B60D4B1B680D4A11680D4A126880
:103710001340094A1268134203D10B4B1B680B423A
:1037200007D085F31088FFF764FF034B1C6003B0DC
:1037300030BDFFF7EBFEF4E7180000204C15002029
:10374000B41400201C000020B81400203C150020F8
:10375000B0140020BC140020F8B50446114B1E68BC
:10376000B6F1FF3F05D00125B5400F4B1F681C6027
:1037700005E00025F9E721462846FFF7C8FE0B4B78
:103780001B682342F7D0074B1E60EFF3108272B61E
:10379000064B186820EA04041C6082F31088024B70
:1037A0001F60F8BDB0140020B8140020B41400202D
:1037B00038B51446EFF3108572B6FFF71BFF034BC5
:1037C00043F8204085F3108838BD00BFBC140020AA
:1037D00038B505460C46016002616FF060439942BE
:1037E00005D2880022F094FF611E034606E04FF0E8
:1037F000FF30F7E7002243F8042B01390029F9DAFA
:1038000068602C686FF060439C4205D2A00022F0F3
:103810007FFF631E024606E04FF0FF30F7E700210E
:1038200042F8041B013B002BF9DAA8602C686FF00A
:1038300060439C4205D2A00022F06AFF631E02464C
:1038400006E04FF0FF30F7E7002142F8041B013B90
:10385000002BF9DAE860284638BD10B5044600238D
:103860000360406808B122F051FFA06808B122F05F
:103870004DFFE06808B122F049FF204610BD90EDF1
:10388000000B704708B5D0E90023D0E90201FCF72E
:103890003BFE41EC100B08BD08B5D0E90023D0E990
:1038A0000401FCF731FE41EC100B08BD08B5D0E96E
:1038B0000023D0E90A01FCF727FE41EC100B08BDFC
:1038C00008B5D0E90023D0E90601FCF71DFE41EC64
:1038D000100B08BD08B5D0E90023D0E90801FCF7BA
:1038E00013FE41EC100B08BD2DE9F04784B0824671
:1038F00055EC104B51EC110B59EC128B57EC136B30
:103900008DED004B8DED025B8AED000B10EE102A61
:103910002B46FCF723FFCAE9020122462B4640460C
:103920004946FCF71BFFCAE9040122462B463046F4
:103930003946FCF713FFCAE90A0122462B46DDE9A6
:103940000001FCF70BFFCAE9060122462B46DDE920
:103950000201FCF703FFCAE9080104B0BDE8F087E3
:103960002DE9F04F2DED068B87B0019055EC104BF3
:1039700057EC116B5BEC12AB59EC138B8DED024BDA
:103980008DED046B0022002311EE100A3946FDF77D
:1039900023F800285FD100224FF0404320462946FB
:1039A000FCF7B2FD41EC180B22462B462046294677
:1039B000FCF7AAFD04460D4632463B4630463946E2
:1039C000FCF7A2FD02460B4620462946FCF7E6FB23
:1039D00041EC190B0022002340464946FCF7FCFF4E
:1039E00000284FD100224FF0404350465946FCF783
:1039F0008BFD41EC1A0B52465B4650465946FCF78C
:103A000083FD04460D4642464B4640464946FCF778
:103A10007BFD02460B4620462946FCF7BFFB41ECE6
:103A2000150B9FED250BB0EE4A4AF0EE6A4AB0EE58
:103A3000403AF0EE603AB0EE492AF0EE692AB0EE74
:103A4000481AF0EE681A0198FFF74EFF07B0BDEC78
:103A5000068BBDE8F08FDDE9026732463B46204623
:103A60002946FCF79BFB08EE100A01F1004308EE23
:103A7000903A32463B4620462946FCF745FD41EC4C
:103A8000190BA7E752465B46DDE904452046294667
:103A9000FCF784FB0AEE100A01F100430AEE903AAB
:103AA00052465B4620462946FCF72EFD41EC150B9D
:103AB000B7E700BFAFF30080000000000000F03F58
:103AC000D0B5044657EC106B10EE102A3B46D0E9F7
:103AD0000A01FCF719FDC4E90A0132463B46D4E964
:103AE0000601FCF711FDC4E9060132463B46D4E964
:103AF0000801FCF709FDC4E90801D0BD00230363F8
:103B00004B6B43638B6B8363704700230363704786
:103B1000006B7047000000002DE9F00F98B057ECE3
:103B2000116B55EC134B11EE10AA07F1004B13EE7D
:103B3000108A05F100499FED227B8DED007B8DED14
:103B4000027B8DED047B8DED067B8DED080B8DEDFD
:103B50000A1B8DED0C0BCDE90EAB8DED102B8DED11
:103B6000123B8DED142BCDE91689826B016B01EBB5
:103B7000D17121F0010303EB610302EB431383EDE9
:103B8000007B83ED027B83ED047B83ED067B83ED7D
:103B9000080B83ED0A1B83ED0C0BC3E90EAB83ED21
:103BA000102B83ED123B83ED142BC3E91689036BB5
:103BB0000233036318B0BDE8F00F7047AFF3008025
:103BC000000000000000000010B499B08DED000B63
:103BD0008DED021B8DED042B8DED063B00220023A5
:103BE000CDE90823CDE90A23CDE90C23CDE90E2345
:103BF000CDE91023CDE91223CDE91423CDE9162315
:103C0000816B046B04EBD47C2CF0010404EB6C0C92
:103C100001EB4C1181ED000B81ED021B81ED042BBA
:103C200081ED063BC1E90823C1E90A23C1E90C2360
:103C3000C1E90E23C1E91023C1E91223C1E914230C
:103C4000C1E91623036B0133036319B05DF8044B1C
:103C50007047806B01EB410100EB4110704790ED24
:103C6000100B704790ED120B704780ED100B80ED3C
:103C7000121B70470023C0F8A8300B68C0F8AC30A6
:103C80004B68C0F8B03070472DE9F04F2DED028B36
:103C900097B0044651EC100BE2A3D3E90023FCF7E4
:103CA00033FC06460F4608EE100A01F1004308EE09
:103CB000903AB0EE480AF0EE680A22F049FD8DED28
:103CC000120BB0EE480AF0EE680A22F019FE8DEDF4
:103CD000140B00224FF0404330463946FCF714FCE9
:103CE00041EC180B41EC100B22F032FD8DED0E0B68
:103CF000B0EE480AF0EE680A22F002FE8DED100BDD
:103D00009FEDC37B8DED007B9FEDC37B8DED027B33
:103D10009DED007B8DED047B9DED027B8DED067BA3
:103D2000D4F8B0A0D4F8A8309B4614E09DED0A3B2F
:103D30009DED082B9DED021B9DED000BFCF75CFF3C
:103D400057EC106B55EC114BFAE0CDE90467CDE967
:103D500006450AF1500ABBF1010B00F139814FF021
:103D600000084FF000095046FFF7A0FD55EC104B3E
:103D70005046FFF784FD53EC102B20462946FCF7F4
:103D8000EDFC06460F465046FFF79AFD55EC104BEA
:103D90005046FFF774FD53EC102B20462946FCF7E4
:103DA000DDFC04460D46DDE91223FCF7ADFB0246BF
:103DB0000B4630463946FCF7F1F906460F46DDE979
:103DC000142320462946FCF79FFB02460B4640463B
:103DD0004946FCF7E3F9CDE90A015046FFF77AFDC1
:103DE00055EC104B5046FFF74AFD53EC102B204684
:103DF0002946FCF7B3FC04460D46DDE90E23FCF72B
:103E000083FB02460B4630463946FCF7C7F9CDE93D
:103E10000801DDE9102320462946FCF775FB024620
:103E20000B46DDE90A01FCF7B9F9CDE90A01504674
:103E3000FFF728FD55EC104B5046FFF720FD53ECE3
:103E4000102B20462946FCF789FC04460D46DDE987
:103E50001223FCF759FB02460B4600207049FCF781
:103E60009DF906460F46DDE9142320462946FCF756
:103E70004BFB02460B4640464946FCF78FF980460D
:103E800089465046FFF708FD55EC104B5046FFF7AA
:103E9000F6FC53EC102B20462946FCF75FFC044649
:103EA0000D46DDE90E23FCF72FFB02460B4630469C
:103EB0003946FCF773F9CDE90C01DDE91023204602
:103EC0002946FCF721FB02460B4640464946FCF7D3
:103ED00065F980468946DDE90023DDE90801FCF744
:103EE00013FB04460D46DDE90223DDE90A01FCF778
:103EF0000BFB02460B4620462946FCF74DF90646C9
:103F00000F46DDE90223DDE90801FCF7FDFA04466E
:103F10000D46DDE90023DDE90A01FCF7F5FA02466A
:103F20000B4620462946FCF739F904460D46024661
:103F30000B4630463946FCF781FD00287FF4F6AE8B
:103F4000CDE90067CDE90245DDE90423DDE90C0197
:103F5000FCF7DAFA04460D46DDE9062340464946F9
:103F6000FCF7D2FA02460B4620462946FCF714F924
:103F700006460F46DDE9042340464946FCF7C4FAED
:103F800004460D46DDE90623DDE90C01FCF7BCFA29
:103F900002460B4620462946FCF700F904460D462A
:103FA00002460B4630463946FCF748FD00283FF4F0
:103FB000CCAE49EC138B9DED0C2B9DED061B9DEDBE
:103FC000040BFCF719FE57EC106B55EC114BBCE6DB
:103FD0009DED063B9DED042B9DED021B9DED000B21
:103FE000FDF7B6F8B0EE406AF0EE606AB0EE417AE6
:103FF000F0EE617AB0EE460AF0EE660AB0EE471ACD
:10400000F0EE671A17B0BDEC028BBDE8F08F00BF71
:10401000000000000000F03F000000000000000071
:104020000000F03F182D4454FB211940000000000F
:104030002DE9F04788B005460E460846FFF768FDB3
:10404000013000EBD0704010C5F8A800D5F8B07072
:10405000002418E09FED581B9FED590BB0EE415A1C
:10406000F0EE615AB0EE414AF0EE614AB0EE403AED
:10407000F0EE603AB0EE412AF0EE612A3846FFF7E2
:1040800033FC01345037D5F8AC30A342E2DCD5F82C
:10409000B070002418E021463046FFF7DAFD90EDBD
:1040A000146B90ED167B90ED0C4B90ED0E5B90ED4C
:1040B000102B90ED123B90ED080B90ED0A1B38464B
:1040C000FFF74EFC01345037D5F8A830A342E2DCAC
:1040D000D5F8B0A03046FFF7C5FD8DED000B30469A
:1040E000FFF7BDFD51EC100B37A3D3E90023FCF71C
:1040F00035FB41EC100B2846FFF7C6FD57EC106B63
:1041000059EC118B10EE100A27F00041CDE90601A1
:1041100011EE102A29F00043CDE90423FCF766FCD8
:10412000B8B906ABD3E90045002200232046294652
:10413000FCF752FC78B122462B46DDE90001FCF782
:104140000DFB41EC100B5046FFF7BAFC08B0BDE880
:10415000F08704ABE6E722462B4630463946FCF7AB
:10416000FDFACDE9020122462B4640464946FCF7BE
:10417000F5FA06460F46DDE9020102460B46FCF75A
:10418000C3F98046894632463B4630463946FCF7FD
:10419000BBF902460B4640464946FBF7FFFF41ECA0
:1041A000100B22F0AFFC53EC102B20462946FCF7F5
:1041B000ABF904460D46BEE7000000000000000019
:1041C000000000000000F03F182D4454FB2119406E
:1041D0002DE9F04F2DED028B81B0064655EC104BCA
:1041E00059EC118B0022304B10EE100A2946FCF7D7
:1041F000F3FB58B10022002340464946FCF7ECFB94
:1042000020B19FED256B9FED267B37E0D6E92EABE5
:1042100022462B4650465946FCF776F906460F468D
:1042200042464B4650465946FCF76EF904460D4649
:1042300000221E4B30463946FBF7B0FF41EC180B0D
:10424000304607F10041264605F100470022174B92
:10425000FBF7A4FF47EC136B41EC120B45EC114B41
:10426000B0EE480AF0EE680AFCF772FFB0EE406A62
:10427000F0EE606AB0EE417AF0EE617AB0EE460A96
:10428000F0EE660AB0EE471AF0EE671A01B0BDEC28
:10429000028BBDE8F08F00BF000000000000F0BFFF
:1042A00000000000000000000000F07F0000F03F70
:1042B0002DE9F8432DED048B064659EC108B0F4683
:1042C00015460846FFF721FC4DA3D3E900234046DD
:1042D0004946FCF719F941EC100B22F059FB86ED29
:1042E0002E0B2846FFF714FC814600EBD0784FEAEE
:1042F0006808002431E021462846FFF7AAFC90ED2B
:10430000080B90ED0A1B3046FFF762FFB0EE409AB3
:10431000F0EE609AB0EE418AF0EE618A21462846BE
:10432000FFF797FC90ED100B90ED121B3046FFF756
:104330004FFFB0EE402AF0EE602AB0EE413AF0EEC8
:10434000613AB0EE490AF0EE690AB0EE481AF0EEB2
:10435000681A3846FFF7E0FB01344445CBDB19F01F
:10436000010F18D12846FFF77AFCB0EE408AF0EE34
:10437000608A2846FFF776FCB0EE401AF0EE601A2D
:10438000B0EE480AF0EE680A3846FFF76EFCBDEC66
:10439000048BBDE8F88341462846FFF75AFC90EDB0
:1043A000080B90ED0A1B3046FFF712FFB0EE409A63
:1043B000F0EE609AB0EE418AF0EE618A41462846FE
:1043C000FFF747FC90ED100B90ED121B3046FFF706
:1043D000FFFEB0EE402AF0EE602AB0EE413AF0EE79
:1043E000613AB0EE490AF0EE690AB0EE481AF0EE12
:1043F000681A3846FFF7E8FBB4E700BFAFF3008068
:10440000182D4454FB21094038B504461546FFF7E2
:1044100075FB5022294604F1580024F08BFA38BD70
:1044200000220023C0E90023C0E9022370472DE9E0
:10443000F84F2DED028B054657EC106B0C46D0E97A
:1044400000AB52465B46D1E90201FCF75DF802463B
:104450000B4630463946FBF79FFE06460F46D5E928
:10446000028942464B46D4E90401FCF74DF8024666
:104470000B4630463946FBF78FFE41EC180B0246DF
:104480000B46D4E90A01FCF73FF806460F46D4E98B
:10449000062350465946FCF737F802460B4630468D
:1044A0003946FBF77BFE06460F46D4E90823404613
:1044B0004946FCF729F802460B4630463946FBF7D9
:1044C0006DFEC5E902AB85ED008B41EC100BBDEC38
:1044D000028BBDE8F88F000010B504469FED0E1B5F
:1044E00080ED001B9FED0E0B80ED020B80ED040BA9
:1044F00080ED060B80ED080B80ED0A1B00230363A3
:10450000436380ED121B4FF0FF330365FFF7ADFBF4
:10451000204610BDAFF30080000000000000F03F17
:104520000000000000000000036D8B4200D17047C6
:104530002DE9F0412DED048B80460D460165FFF716
:10454000E4FA6800FBF776FF06460F4605EBD575E3
:104550006D10002431E060000130FBF76BFF1EA3FB
:10456000D3E90023FBF7D0FF32463B46FCF7F6F8D1
:104570001BA3D3E90023FBF711FE41EC180B41EC20
:10458000100B22F0E5F8B0EE409AF0EE609AB0EE33
:10459000480AF0EE680A22F0B3F9B0EE401AF0EEE5
:1045A000601A9FED092B9FED0A3BB0EE490AF0EE31
:1045B000690A4046FFF7B0FA0134AC42CBDBBDECF0
:1045C000048BBDE8F08100BF000000000000F07F18
:1045D0000000000000000000182D4454FB21094099
:1045E000182D4454FB21F93F2DE9F843044659ECBA
:1045F000108B57EC116BFFF797FF04F158054246FB
:104600004B4630463946FCF7A9F841EC100B2246E0
:1046100029462046FFF74CFE29462046FFF708FDB5
:10462000BDE8F88310B504464FF4F47200F50D614F
:1046300008481FF0A3F838B94FF4F4722146064831
:104640001FF014F818B910BD1DF01CFFF4E71DF0A1
:1046500019FFF8E7BC2100205422002000B583B0E8
:1046600080F8D21780F8D3274FF0FF32009200F283
:10467000D272982104481FF01DFF10B903B05DF8F5
:1046800004FB1DF0FFFEF9E73420002030B583B0B5
:10469000044680F8D21715464FF0FF3300931346B7
:1046A00000F2D27298210B481FF004FF60B94FF05E
:1046B000FF3300932B4604F2D772982105481FF070
:1046C000B7FF20B903B030BD1DF0DCFEEFE71DF0F1
:1046D000D9FEF7E73420002010B50446022300225B
:1046E0001146FFF7BBFF022300227F212046FFF780
:1046F000B5FF0223012211462046FFF7AFFF0A2033
:10470000FEF7E4FE0223012203212046FFF7A6FF65
:1047100002231A4606212046FFF7A0FF02230322A8
:1047200007212046FFF79AFF022330220821204666
:10473000FFF794FF02230C2219462046FFF78EFF55
:10474000012202212046FFF7A1FF01222421204659
:10475000FFF79CFF0E4B1A785200022302F0FE0274
:1047600003212046FFF77AFF9FED051B9FED060B07
:1047700004210848FFF738FF074B01221A7010BDCB
:104780000000000000005E40000000000040CF403C
:1047900020000020681500205015002008B50D4BA2
:1047A0001B7813B90C4B1B7873B10C4B1A78520061
:1047B000022302F0FE020321FFF750FF054B1B7896
:1047C0001BB1044B00221A7008BD034B00221A7063
:1047D000FAE700BFD0200020CF20002020000020DA
:1047E00038B50446144D294600F2DC7000F084FA16
:1047F00004F5805292F87000431CDBB282F87030EE
:10480000F42229460D4B00FB023024F093F80C4BA8
:104810001B7863B904F5805393F87030DBB2092B31
:1048200004D904F58054002384F8703038BD002189
:104830000420FEF7A3FEEDE7281F0020180B002040
:10484000130B00202DE9F04F85B08246029193466C
:104850000393BDF83C300193FFF7A0FF294A13787A
:10486000013313704FF0000847461DE031462046E3
:10487000FFF7DDFD50361034013DF7D551EC100B3C
:10488000FCF7F2F800B20AF58053A3F87600B3F80B
:104890007620029921F81920B3F87230039A22F891
:1048A0001830023708F10108019BBB421BDD5BF8A1
:1048B00027301A140AF58053A3F8722007F1010972
:1048C0005BF829201214A3F87420B3F8720000B228
:1048D000FBF7B0FD41EC100B04250B4C04F1C006B6
:1048E00004F50074C8E75046FFF77AFF054B1B78C4
:1048F0000A2B02D005B0BDE8F08F024B00221A70DF
:10490000F8E700BF511500206815002000B583B0FE
:104910001A4B1B7823B1012B19D003B05DF804FBAF
:10492000174B1B78002BF8D0F423019300F5747318
:10493000009300F2DC7300F50D620146FFF782FF81
:104940000F4B00221A700D4B01221A70E5E70D4B38
:104950001B78002BE1D0F423019300F5B76300939B
:1049600000F2DC7300F54A6200F5F471FFF76AFFAC
:104970000023044A1370014A1370CEE7CE200020B2
:10498000CB200020C9200020F0B5ABB00546FFF7D2
:10499000A3FD00208C49C5E9160100220023C5E9CA
:1049A0001823C5E91A23C5E91C23C5E91E23C5E957
:1049B00020010023C5F88830C5F88C30C5E92801EE
:1049C000C5F8A830C5F8AC30C5F8B03005F1C00462
:1049D00023460322002A17DB00267B4FC3E900672A
:1049E00000200021C3E90201C3E90401C3E9060173
:1049F000C3E90801C3E90A67002119635963C3E9E0
:104A000012675033013AE5E704F5A0760327002F3B
:104A10000BDB00220023C6E90023C6E9022330464F
:104A2000FFF7FEFC1036013FF1E704F5C0730122E9
:104A3000002A1CDB00200021C3E90001C3E90201B8
:104A4000C3E90401C3E90601C3E90801C3E90A0196
:104A5000C3E90C01C3E90E01C3E91001C3E9120166
:104A6000C3E91401C3E916016033013AE0E705F533
:104A7000407423460322002A17DB0026524FC3E965
:104A8000006700200021C3E90201C3E90401C3E972
:104A90000601C3E90801C3E90A67002119635963E4
:104AA000C3E912675033013AE5E704F5A07603271E
:104AB000002F0BDB00220023C6E90023C6E90223F6
:104AC0003046FFF7ADFC1036013FF1E704F5C07347
:104AD0000122002A1CDB00200021C3E90001C3E9F8
:104AE0000201C3E90401C3E90601C3E90801C3E9FE
:104AF0000A01C3E90C01C3E90E01C3E91001C3E9CE
:104B00001201C3E91401C3E916016033013AE0E779
:104B100005F5A8642346072216E09FED277B83ED69
:104B2000007B00200021C3E90201C3E90401C3E9BD
:104B30000601C3E9080183ED0A7B0021196359636B
:104B400083ED127B5033013A002AE6DA04F5207631
:104B500007270AE000220023C6E90023C6E9022352
:104B60003046FFF75DFC1036013F002FF2DA04F506
:104B700040730322002A29DB9FED117B83ED007B2C
:104B800083ED027B83ED047B83ED067B83ED087B65
:104B900083ED0A7B83ED0C7B83ED0E7B83ED107B35
:104BA00083ED127B83ED147B83ED167B6033013A3A
:104BB000E0E700BFAFF30080000000000000F03F1E
:104BC00000000000000000000000F03F05F1C003FD
:104BD00004262896299328A92846FFF74BF805F5BF
:104BE000906700201849CDE9000100220023CDE99B
:104BF0000223CDE90423CDE90623CDE90823CDE93D
:104C00000A0100240C940D960E97CDE9120105F5CA
:104C10000466CDE91401CDE91623CDE91823CDE9C9
:104C20001A23CDE91C23CDE91E01209408232193EA
:104C30002296CDE9260114AA69462846FFF7E4FB2F
:104C400028462BB0F0BD00BF0000F03F012800D087
:104C500070474FF6FF739942FAD110B50748FFF736
:104C600093FE074C40F6CC4228212046FEF7B0FDCB
:104C7000044A0549204621F044FD10BD6815002076
:104C800054150020080000205B38000808B54FF6D6
:104C9000FF710120FFF7DAFF08BD000010B5094CD5
:104CA000234640F6010201214FF47A501AF018F819
:104CB000054B18602368002B01DB002010BD01208C
:104CC000FCE700BF202000201C20002008B54FF486
:104CD0007A3240F6A271064B18681CF069F8054B51
:104CE0001860002801DB002008BD0120FCE700BFA0
:104CF0001C2000202020002000B583B00B46F422A9
:104D000000924FF470720146064800681CF028F8C3
:104D1000054B1860002803DB002003B05DF804FB9E
:104D20000120FAE71C2000202420002030B54FF09D
:104D3000000E16E030F91E3045F6822505FB03F41F
:104D400031F91EC005FB0CF304EB030C4CF3CF3C14
:104D500020F81EC01B1B43F3CF3321F81E300EF189
:104D6000010E9645E6DB30BD00B58C468142A8BFFA
:104D70008446154B83FB0CE3A3EBEC7318441944F6
:104D800003468842B8BF0B460133B3FA83F3C3F13D
:104D90001F0CC3F11103002B09DD184100B2108074
:104DA000002B0ADD194109B251805DF804FBCCF1FA
:104DB0000E0E00FA0EF000B2F1E7CCF10E0C01FA83
:104DC0000CF109B2F0E700BF565555552DE9F041F9
:104DD0000C461546069F079E82683A4453F82210F7
:104DE00053F827200B469142B8BF1346002B25DD10
:104DF000B3FA83F3C3F11F031846A3F10D07002F85
:104E00001EDD42FA07F80FFA88F8002F1FDD41FA7D
:104E100007F73FB208FB08F0013007FB070007F077
:104E200015FB411C08B24FEA883292FBF0F212B235
:104E3000B90391FBF0F109B200201BE00023DBE78E
:104E4000C3F10D0302FA03F30FFA83F8DDE7C0F1B3
:104E50000D0701FA07F73FB2DCE734F9107035F9B6
:104E6000103001FB03F307FB023343F38F3324F8C5
:104E700010300130B042F0DBBDE8F081F8B58E466D
:104E8000154606998269581C32F9100032F913C090
:104E9000A0EB0C0C01FB0CFC023332F913301B1A93
:104EA00001FB03F34FEA4C06C3EB4C014F00A3EBAD
:104EB0000C035C0022460EEB41010EEB4C0023F08C
:104EC00039FD079B03B9F8BD2246E919A81923F05B
:104ED00031FDF8E72DE9F04F83B004460D46174643
:104EE0001E46002108460B4608E035F9132034F928
:104EF00013C00CFB020002FB021101339E42F4DCE2
:104F00003A0480FB02C34FEA670A0AFB0A11A1EBCD
:104F1000830001EB830A374B9A455CDD98425ADDEA
:104F2000B0FA80F8C8F11F084FEA6808BAFA8AF99F
:104F3000C9F11F094FEA6909A8F107035B00002BBB
:104F400051DD184107F049FA0090A9F1070040002F
:104F500000284BDD4AFA00F007F03FFAB8F1060FDF
:104F600001DC4FF00708B9F1060F01DC4FF007092B
:104F700000220190B24233DA34F9123007FB03F316
:104F800003F5804335F912E0C3F3CF331FFA8EFEE9
:104F9000A3EB0E0A0FFA8AFA08F1010B012101FABC
:104FA0000BFC4CFA01FC009800FB0ACC4CFA0BFB02
:104FB00024F812B073440FFA83FE09EB010C01FAD6
:104FC0000CF30B41019901FB0E3343FA0CF325F866
:104FD00012300132CEE772002146284623F0AAFCA7
:104FE00003B0BDE8F08F5B429840ABE740420AFA5D
:104FF00000F0B1E7247502002DE9F04700AF8C46C0
:10500000154602FB01F24FEA420A0AF1070121F0BC
:105010000701ADEB010D694653B305F18048A8F1D6
:105020000208002610E005FB036908EB0604154A98
:1050300052F824400CFB043E30F9194021F81E4080
:1050400001336345EFDB0136AE4214DA0023F8E7A3
:1050500005FB034E0CFB043630F91EE021F816E088
:1050600001336345F4DB0134AC4204DA4346F8E72C
:1050700098461C46F8E7524623F05CFCBD46BDE866
:10508000F08700BF508E02082DE9F84300AF8C4630
:10509000154602FB01F24FEA420909F1070121F02E
:1050A0000701ADEB010D694653B305F18048A8F146
:1050B0000208002610E008EB0604164A52F82440C5
:1050C0000CFB043E05FB036430F91EE021F814E0FC
:1050D00001336345EFDB0136AE4214DA0023F8E713
:1050E0000CFB043E05FB034630F91EE021F816E0F8
:1050F00001336345F4DB0134AC4204DA4346F8E79C
:1051000098461C46F8E74A4623F014FCBD46BDE825
:10511000F88300BF508E02082DE9F04F83B004469B
:105120000191D0F800B0D0F81CA09146B2F100086F
:1051300018BF4FF001080F46002510E0012150462E
:1051400006F015FA0646236A083B2362636813B12A
:10515000B6B1134B3B800135A84514DB4F46236A9B
:10516000072B0BDDBBF1000FE8D0B7F90060F60F9D
:1051700001223146504606F07DFBE4E70026E5E7D4
:105180004FF48043E6E70C9B2BB1019BB3F9003051
:105190001B110C9A1380012003B0BDE8F08F00BFF3
:1051A00000C0FFFF10B54FEA400E0EF1FF3C029C1D
:1051B0000CB102280AD002FB0C1EBEF1000F08DB66
:1051C000BCF5807F40D9BEFBFCF20AE0AEF1020CD8
:1051D000F1E7CEF1000EBCF5807F1CD9BEFBFCF2DE
:1051E0005242C91AA1F11F03934201DCA1F120022E
:1051F0001346402AA8BF4023032A3EDD03F00701DF
:105200001F4A32F91100DB10C3F10E0318410130BF
:1052100020F0010010BDCCF100000CEA0000B0FA53
:1052200080F0C0F120022CFA02F2164C54F8224011
:10523000C0F11F002EFA00F2A4FB024202FB1CEE9A
:10524000F44598BF0132CBE7CCF100000CEA000036
:10525000B0FA80F0C0F120022CFA02F2094C54F8A6
:105260002220C0F11F002EFA00F0A2FB000202FB78
:105270001CEEF44598BF0132B3E70120CAE700BF36
:10528000408E020804A4020810B58646029C002045
:1052900000E00130984203DA31F910C0F445F8DD3E
:1052A000A04207DD31F9143032F914C063449E4541
:1052B00000DA2046A0420ADA04F10043013B31F94A
:1052C000131032F91330CB1A9E4500DD204610BD75
:1052D000024A034B02FB0030704700BF0D66190005
:1052E0005FF36E3C00FB00F000F5805141F34F335B
:1052F0000E4A03FB02F202F5804042F2550202EB35
:10530000E03203FB02F202F58042D213A2F5EF5223
:10531000033A10B203FB00F000F58040C013A0EB8D
:10532000613080B2A0F5004000B270478EFDFFFFF3
:1053300000B5B1FA81F3B0FA80FEA3F111029140F9
:10534000AEF111029040A3EB0E0E00B20F4A02FB29
:1053500000F303F5804341F6FC6C0CEBE33300FBF8
:1053600003F303F58043DB1303EBCE2308B200FB0A
:1053700002F202F580420CEBE23202FB00F000F593
:105380008040A3EBE0305DF804FB00BFDBF5FFFFDE
:105390002DE9F04F8DB081460D4606920593DDF85C
:1053A0005CA01B9FD0F8008083680793C2680492BA
:1053B0000469D0F81CB0416A08911B6B33F91230B4
:1053C0001A9A03EBC203591027B1169A022A5CD02D
:1053D000042200E0042200978A1ADAF800101698D6
:1053E000FFF7E0FE06461FB1049BA34200DB012647
:1053F000B8F1000F4BD14446584606F00FF8039021
:10540000012E00F07E81B8F1000F75D01FB1D9F8E0
:105410003030002B5ED106FB04F404F50054A413D5
:10542000002F69D1D9F83830002B65D0002C63DD0E
:10543000A64261DDA203B6F5807F33D9B2FBF6F94F
:105440000FFA89F0FFF74EFF0990C9F5804000B2CE
:10545000FFF748FF169B03F1FF394FEAC9190FFA0E
:1054600089F90999FFF764FF00B200FB09F909F512
:1054700080494FEAE932DAF80030B3EBE93F61DB0B
:105480005B42934238DD3C4636E01022A3E7D9F870
:105490002C300093169B3A460599069809F030FC8B
:1054A0000446A9E773423340B3FA83F3C3F1200102
:1054B00026FA01F1B64850F82110C3F11F0922FA6B
:1054C00009F9A1FB091909FB1622964298BF09F1B7
:1054D0000109B5E7B4F5005F30DD47F6FF7090FBDA
:1054E000F6F004FB0604A41324EAE474B44200DBDF
:1054F000741E002B00DB0134002F5DD0169B022BA5
:105500005ADD06EBD6794FEA690909F101030B93DD
:1055100003EB430309934B440A93B8F1000F1FD0E8
:105520004C4511DC04EB44014C4513DC621C02EBDE
:1055300042020A9B584606F0CBF848E0954890FB9B
:10554000F6F0CEE73446D7E7611EA1EB0901099BCF
:105550001944E9E7A4EB0902099B13441A46E8E75A
:105560000A99584605F0AAFF099B834213DD8A4C2D
:1055700084FB0034A4EBE0744C4512DC04EB4401E2
:105580004C4514DC04F1010909EB49020A9B584619
:1055900005F0C6FF1BE0099BC41A0B9B23441C4665
:1055A000EAE7611EA1EB0901099B1944E8E7A4EBB6
:1055B0000909099A4A44E9E7199B012B23DDB8F14F
:1055C000000F3BD0721C2146584606F074F9A00328
:1055D000B6F5807F77D9B0FBF6F4B8F1000F00F094
:1055E000DD80002F00F0DB80002C40F08380169BD4
:1055F0000193049B0093089B059A06990798FFF76F
:10560000E5FB2746CBE0002FD9D14FEA660909F127
:1056100001030A9303FB03F30993B8F1000F20D0B1
:10562000A14511DB621CA14511DB04FB04414910BB
:10563000099B0A44584606F04BF8C8E7711C5846C7
:1056400005F0B2FF0446C2E7721C121BEBE7711CA7
:10565000091BB31C1B1B03FB01F1099BA3EB61019D
:10566000E6E70999584605F029FF0A9B03FB09F96B
:10567000B0EB690F0FDAC000013006F097FE013879
:105680004408621C04FB04414910099B0A44584623
:1056900005F046FF9BE706F101094FEA4904099B23
:1056A000181A0138C000013006F080FE201A4408A4
:1056B000A9EB5002B11CA1EB500102FB01F1099BC7
:1056C000A3EB6101E1E773423340B3FA83F3C3F123
:1056D000200226FA02F22E4951F82220C3F11F04BB
:1056E00020FA04F4A2FB042404FB1600864298BFAF
:1056F000013472E7169A05990698FFF717FB002701
:105700004DE0002F4BD0B8F1000F30D0B4F5005F62
:1057100010DDD9F8343053B100260CE031F81320F5
:10572000524221F8132001338342F7DB03E005994D
:105730001698F9E70026169B0193049B0093089B9B
:10574000059A06990798FFF741FBDAF80030102B0D
:1057500015DDD9F82030102B18DDB8F1000F08D076
:1057600002223146584606F02FF8374608E04646F2
:10577000EBE70221584605F0E6FE074600E0002769
:10578000D9F834405CB100273C4608E00027F7E731
:1057900004A402080180FFFF565555554746584658
:1057A00005F03CFE039BC61ADAF800309B1BCAF8D2
:1057B0000030BCB90123189A9340013B1C9A12682F
:1057C00013401C9A1360A04647F6FF791C4B2F60CC
:1057D000C5F80490C5F80880EB602C616E610DB0CF
:1057E000BDE8F08FB4F5804F19D020B2FFF77AFDF5
:1057F00082468146C4F5804000B2FFF773FD8046C3
:10580000169B013BDB010FFA83FB5146FFF790FD2E
:1058100003B203FB0BF303F58043DB13D7E701234C
:10582000189A9340013B93401C9A126813401C9AAB
:105830001360234647F6FF784FF00009C7E700BF23
:1058400000C0FFFF2DE9F04F97B00546894609914A
:1058500017460F93229EBDF98C300A930368816826
:10586000C268D0F814E0C0690B90D1F85CC0886DB4
:105870008C6806FB0444144430F914000CEB00045B
:10588000B6F1FF3F00F0F1801CF80000245C0C34FE
:105890000F98844280F2E980022F40F3E6804FEABD
:1058A000670A27F001084B4643440B9306F1FF3B80
:1058B000209B012B00F08580209B5F1C7F1024AB78
:1058C000069300230593CDF810B0209B0393029715
:1058D0000FAB0193CDF800A00B9B099A10A92846A5
:1058E000FFF756FD139B14990E91159ABDF94400CC
:1058F0000C90BDF948000D90209801280BDD08465A
:10590000C1F30D0139B1B0F5005F61DDCBF10401E8
:1059100043FA01F15B1A0F9EF31A03EBD374641080
:10592000B442A8BF344624EAE474361B2B6AA3EBC6
:105930000209C5F82090219B002B52D09844B44214
:1059400052DB0C9B0A9A02FB03F303F58043249A73
:10595000049243F3CF330393CDF808B0219B019316
:1059600000972346524609992846FFF76BFF099096
:105970002B6AA9EB0303E41A182C03DD0E9B0BB171
:10598000183C26440A9B0D9A02FB03F303F580435F
:10599000249A3A41049243F3CF330393CDF808B0ED
:1059A000CDF804800097334652460B992846FFF7FE
:1059B00049FF209B5E1000FA06F6099B33431E4602
:1059C000D6E0249A02F0010343EA4203249373E7EA
:1059D0004FEACA01CBF1050001410B4403EAE3732E
:1059E00099E7DDF88480AAE70D9B0A9A02FB03F38E
:1059F00003F58043249A3A41049243F3CF3303934F
:105A0000CDF808B0CDF804800097334652460B9984
:105A10002846FFF717FF209B5B1000FA03F82B6A5C
:105A2000A9EB0309A6EB0906182E05DD0E9BB3F5BD
:105A3000804F01D0183E34440A9B0C9A02FB03F3BA
:105A400003F58043249A049243F3CF330393CDF8B4
:105A500008B0219B01930097234652460999284696
:105A6000FFF7F0FE48EA000682E0CC6D886806FB8E
:105A7000000C9444886D30F91C0004EB000A245C8F
:105A80000F9800F1FF3B4FF00008C44602E080464B
:105A90000CF1010CBCF1050F09DC08EB040001302E
:105AA00040101AF80090CB45F1DC0446F0E7B8F15D
:105AB000000F1FD01AF808C0ABEB0C0C1AF804004A
:105AC000A0EB0B00844500DC4446D1F85C8088687C
:105AD00006FB000C9444886D30F91C006CB1404406
