:020000040800F2
:1000000000000320D98B0008BF8A0008C18A0008BD
:10001000C38A0008C58A0008C78A000800000000DB
:10002000000000000000000000000000C98A000875
:10003000CB8A000800000000CD8A0008CF8A0008A3
:10004000318C0008318C0008318C0008D78A0008F8
:10005000318C0008318C0008318C0008DF8A0008E0
:10006000318C0008E98A0008F38A0008FD8A00083C
:100070000D8B0008318C0008318C0008318C000891
:10008000318C0008318C0008318C0008318C00085C
:10009000318C0008318C0008318C0008318C00084C
:1000A000318C0008318C0008318C0008318C00083C
:1000B0004D8B0008318C0008318C0008318C000811
:1000C000318C0008318C0008318C0008318C00081C
:1000D000318C0008318C00081D8B0008318C000821
:1000E000318C0008318C0008318C0008318C0008FC
:1000F000358B00083D8B0008458B0008318C0008CB
:10010000318C0008318C0008318C0008318C0008DB
:10011000318C0008318C0008318C0008318C0008CB
:10012000318C0008318C0008318C0008318C0008BB
:0C013000318C0008318C0008318C000874
:1001400010B5054C237833B9044B13B10448AFF311
:1001500000800123237010BD800A002000000000F1
:100160007C90000808B5034B1BB103490348AFF36B
:10017000008008BD00000000840A00207C90000878
:10018000034613F8012B002AFBD1181A01387047D7
:1001900010B588B000248DF807401822214602A827
:1001A00000F0B4FB3F23ADF808308123ADF80A30EE
:1001B0000DF10703069301230793214602A800F0DF
:1001C0002FFDA04203DB9DF8070008B010BDFF2003
:1001D000FBE72DE9F04FCBB09C469DF854619DF8AC
:1001E0005C5106F1080A04AC04EB0A0B77190937D5
:1001F000E31901930DF10F094FF000088DF80F80FE
:100200008DF81000ADF81110ADF813208DF815C061
:100210009DF850318DF816308DF81760324656999A
:1002200006A800F06FFB04F80A5009362A465899D0
:100230000BF1010000F066FB3544BDF86431E35377
:10024000BDF86831019A538004351822414644A80C
:1002500000F05CFB3F23ADF810318323ADF8123181
:1002600046944795CDF8209101234993414644A8EF
:1002700000F0D6FC404504DB9DF80F004BB0BDE814
:10028000F08FFF20FAE770B5C8B00DF10705002424
:100290008DF8074002AE8DF808001822214642A8CA
:1002A00000F034FB3F23ADF808318523ADF80A3167
:1002B00044960123459346954793214642A800F072
:1002C000AFFCA04203DB9DF8070048B070BDFF20E3
:1002D000FBE770B5C8B00DF1070600258DF8075093
:1002E00002AC8DF808008DF809108DF80A208DF801
:1002F0000B309DF830318DF80C309DF834318DF88D
:100300000D309DF838318DF80E304F9BCDF80F3001
:100310009DF840318DF813301822294642A800F08C
:10032000F5FA3F23ADF808318623ADF80A3144943D
:100330000C234593469601234793294642A800F093
:100340006FFCA84203DB9DF8070048B070BDFF209A
:10035000FBE770B5C8B00DF1070600248DF8074023
:1003600002ADADF80800CDF80A101822214642A8C7
:1003700000F0CCFA3F23ADF808318823ADF80A31FC
:10038000449506234593469601234793214642A868
:1003900000F046FCA04203DB9DF8070048B070BDAA
:1003A000FF20FBE72DE9F041C8B007460E46154691
:1003B000984607220021684600F0A8FA02AC8DF8A2
:1003C00008708DF809608DF80A501822002142A8A3
:1003D00000F09CFA3F23ADF808318A23ADF80A31CA
:1003E000449403234593CDF818D107234793002164
:1003F00042A800F015FC002811DB9DF8000058B958
:10040000BDF80130A8F80030BDF803204E9B1A80DB
:10041000BDF805204F9B1A8048B0BDE8F081FF2051
:10042000FAE7F0B5C9B004460DF1070600258DF8CE
:10043000075002AF8DF8080002460DF1090000F0E8
:1004400061FA01341822294642A800F05FFA3F23DE
:10045000ADF808318E23ADF80A314497459446969D
:1004600001234793294642A800F0DAFBA84203DBA8
:100470009DF8070049B0F0BDFF20FBE710B588B03C
:1004800000248DF807401822214602A800F03EFA09
:100490003F23ADF808309223ADF80A300DF1070381
:1004A000069301230793214602A800F0B9FBA0425E
:1004B00003DB9DF8070008B010BDFF20FBE770B517
:1004C000C8B00DF1070600248DF8074002ADADF865
:1004D00008008DF80A101822214642A800F016FAEA
:1004E0003F23ADF80831A523ADF80A314495032325
:1004F0004593469601234793214642A800F090FB7E
:10050000A04203DB9DF8070048B070BDFF20FBE769
:1005100010B588B000248DF807401822214602A8A3
:1005200000F0F4F93F23ADF8083040F20113ADF8C4
:100530000A300DF10703069301230793214602A811
:1005400000F06EFBA04203DB9DF8070008B010BD71
:10055000FF20FBE72DE9F041C8B004468846174666
:100560001E4601283CD0022838D0012502AB1D448C
:100570000322002101A800F0C9F98DF80840012CE0
:1005800030D0022C30D11024224641460DF1090012
:1005900000F0B8F92F706E7003341822002142A8C1
:1005A00000F0B4F93F23ADF808314FF48173ADF892
:1005B0000A3102AB4493459401AB4693032347931E
:1005C000002142A800F02CFB002811DB9DF804005C
:1005D00058B9BDF805204E9B1A8006E01125C5E7E5
:1005E0000325C3E70224CFE7972048B0BDE8F08198
:1005F000FF20FAE72DE9F041C8B006460C469046C8
:100600001F4601294CD0022948D0032502AB1D44C6
:100610000322002101A800F079F9ADF808608DF8F7
:100620000A40012C3ED0022C3ED1102422464146E5
:100630000DF10B0000F066F92F809DF83831AB709A
:100640009DF83C31EB709DF840312B719DF84431A1
:100650006B719DF84831AB710A341822002142A811
:1006600000F054F93F23ADF808314FF48273ADF830
:100670000A3102AB4493459401AB4693032347935D
:10068000002142A800F0CCFA002811DB9DF80400FC
:1006900058B9BDF80520539B1A8006E01325B5E72D
:1006A0000525B3E70224C1E7972048B0BDE8F081F3
:1006B000FF20FAE7F0B5C9B01C460DF10707002688
:1006C0008DF8076002ADADF80800ADF80A108DF89E
:1006D0000C208DF80D301A464E990DF10E0000F0E9
:1006E00011F906341822314642A800F00FF93F23D1
:1006F000ADF808314FF48373ADF80A314495459451
:10070000469701234793314642A800F089FAB04248
:1007100003DB9DF8070049B0F0BDFF20FBE770B593
:10072000C8B00DF1070500248DF8074002AEADF802
:1007300008001822214642A800F0E8F83F23ADF84F
:10074000083140F22713ADF80A314496022345934D
:10075000469501234793214642A800F061FAA04242
:1007600003DB9DF8070048B070BDFF20FBE7F0B544
:10077000C9B00C4611460DF1070700258DF807504A
:1007800002AE8DF808008DF8094022460DF10A00EE
:1007900000F0B8F802341822294642A800F0B6F852
:1007A0003F23ADF808310C23ADF80A314496459447
:1007B000469701234793294642A800F031FAA84200
:1007C00003DB9DF8070049B0F0BDFF20FBE770B5E3
:1007D000C8B00DF1070600248DF8074002AD8DF872
:1007E00008008DF809101822214642A800F08EF862
:1007F0003F23ADF808310F23ADF80A3144950223A9
:100800004593469601234793214642A800F008FAF3
:10081000A04203DB9DF8070048B070BDFF20FBE756
:1008200070B5C8B00DF1070500248DF8074002AE81
:10083000ADF808001822214642A800F067F83F23CF
:10084000ADF808311823ADF80A31449602234593D8
:10085000469501234793214642A800F0E1F9A042C2
:1008600003DB9DF8070048B070BDFF20FBE710B523
:1008700088B000248DF807401822214602A800F015
:1008800045F80323ADF80830ADF80A300DF1070341
:10089000069301230793214602A800F0C1F9A04264
:1008A00003DB9DF8070008B010BDFF20FBE770B523
:1008B000C8B00DF1070600258DF8075002AC8DF881
:1008C00008008DF809108DF80A201822294642A840
:1008D00000F01CF80823ADF808313123ADF80A31D7
:1008E000449403234593469601234793294642A8FF
:1008F00000F096F9A84203DB9DF8070048B070BDF0
:10090000FF20FBE708B508F059FA08BD08B508F064
:1009100063FA08BD7047704770477047704770476B
:10092000704770477047704770477047704770470F
:1009300070477047704708B5FFF7ECFFFFF7EBFF14
:10094000FFF7EAFFFFF7E9FFFFF7E8FFFFF7E7FF31
:10095000FFF7E6FFFFF7E5FFFFF7E4FFFFF7E3FF31
:10096000FFF7E2FFFFF7E1FFFFF7E0FFFFF7DFFF31
:10097000FFF7DEFFFFF7DEFFFFF7DBFF00F0B4FE5F
:1009800008BD000008B5044B00221A7783F8202028
:10099000FFF7D1FF08BD00BF90000020034A137F7E
:1009A00042F8230001331377704700BF9000002006
:1009B00038B505464378FF2B06D1B0F8033003F471
:1009C0007F43B3F5406F03D0284600F04BFD38BDA0
:1009D000002422460A4B1B7FA34209D9084B53F837
:1009E000243028469847024610B90134E4B2F1E7B2
:1009F000002AE9D0022A01D10020E8E70120E6E739
:100A00009000002000B585B06B4600F10C022C214F
:100A10004FF6664000F012FA9DF80E0005B05DF842
:100A200004FB00B585B06B4600F10C020F214FF6B8
:100A3000684000F003FA9DF80E0005B05DF804FB75
:100A400000B585B002466B460E214FF6754000F0AA
:100A5000F5F99DF80E0005B05DF804FB30B4214BAC
:100A6000DB6BC3F30D039B0003F1005303F540332D
:100A70001A6811681C4B99422DD013695469956905
:100A8000516892684FEA136C80F800C04FEA134C2B
:100A900080F801C04FEA132C80F802C0C3F3031C96
:100AA00080F803C003F00F030371230E4371230C7E
:100AB0008371230AC371047245720B0E83720B0C8F
:100AC000C372090A0173130E4373130C8373C27349
:100AD000002030BC704753699469D569D1681269A8
:100AE000D0E700BF00400058B95646A908B520B964
:100AF000054B1B6803B1984708BD034B1B68002BCF
:100B0000FAD001209847F7E7A40A002030B585B055
:100B100004460A4800F026FB094D284640F8044BDD
:100B200000F020FB01232B73064B1B6823B10294BA
:100B3000054A00926846984705B030BD9C0A0020DF
:100B4000B4000020A80A0020C50C000810B50B4610
:100B50001146084A1468A4F80900E3721A4604F121
:100B60000C0008F02BF9044B1B690021084698473C
:100B700010BD00BFB4000020A80A002010B50C462C
:100B80004A68054B1A60054BD861184600F0B4F866
:100B90002068FFF7BBFF10BDA40A0020A80A0020B0
:100BA00000B585B01B4800F0E0FA10B91A4B1B7B6A
:100BB0004BB9184800F0D9FA10B9174B1B7B23BB6F
:100BC00005B05DF804FB03A9124800F0FEFA134BD0
:100BD000DB698BB1039A029201228DF8042001A8EF
:100BE00098479DF804200C4B1A730B4B1B7B3BB1B1
:100BF000039800F06FFADCE7074B01221A73F4E761
:100C00000399044800F0BDFAD3E7024800F0A2FCC3
:100C1000D6E700BFB8000020B4000020A80A0020DA
:100C2000F0B583B007460020FFF760FFB7F9025028
:100C3000C5F309053B8845EA8325ADB2BA68397B1F
:100C40002846FFF783FF0026002E33D148F2E80044
:100C500000F08BFC05E0B4F80D30AB4216D0237BDE
:100C600033BB174800F081FA0028EDD101A91448E0
:100C700000F0ABFA019C637A0F2BECD0A389AB4256
:100C800008D0E37A002BECD00126EAE73B69E27A50
:100C90001A70E4E7A27A033AD2B27B699A42A8BFFB
:100CA0001A467A6104F10E01386908F087F8E8E71E
:100CB0000126D6E70120FFF719FF002003B0F0BDA1
:100CC0009C0A002010B50146437A0E3BDBB2012B93
:100CD00007D9074C204600F060FA204600F03AFCA5
:100CE00010BD044800F059FA002000F039FCF7E785
:100CF000B80000209C0A0020024B0360024B0361F5
:100D0000704700BF450F00088D0F000808B538B9BF
:100D1000084B1B6803B19847074B00221A7008BDA7
:100D2000054B01221A70034B1B68002BF7D01046AD
:100D30009847F4E7C80A0020C800002030B585B005
:100D400004460B4D686005F1080000F00BFA012025
:100D5000FFF7DCFF01232B74064B1B6833B10394B0
:100D6000054A0192054A029201A8984705B030BD94
:100D7000C8000020CC0A00209D0E0008810D00084C
:100D800010B50146034C204600F007FA204600F05B
:100D9000CAFF10BDD000002010B50C464A68054BB4
:100DA0001A60054BD861184600F07EF82068FFF7FE
:100DB000C5FF10BDC80A0020CC0A002000B585B0D0
:100DC0001B4800F0D2F910B91A4B1B7C4BB91848DC
:100DD00000F0CBF910B9174B1B7C23BB05B05DF8B5
:100DE00004FB03A9124800F0F0F9134BDB698BB147
:100DF000039A029201228DF8042001A898479DF8D9
:100E000004200C4B1A740B4B1B7C3BB1039800F075
:100E100061F9DCE7074B01221A74F4E703990448EF
:100E200000F0AFF9D3E7024800F07DFFD6E700BF3E
:100E3000D0000020C8000020CC0A00202DE9F0419D
:100E400007460C4616461D460020FFF75FFFDFF8F9
:100E50004880D8F80400A0F80970C47222463146D0
:100E60000C3007F0ABFF0B4B1B690021084698477D
:100E700048F2E80000F062FFD8F804108A780332E4
:100E800005F1080007F09AFF0120FFF73FFFBDE8DA
:100E9000F08100BFCC0A0020C800002008B5002067
:100EA00000F047FF08BD0000024B0360024B0361E6
:100EB000704700BFE90F00082510000800B583B097
:100EC00009E001A9084800F080F9084B1B69019965
:100ED000186900F062F9044800F047F90028F0D0E2
:100EE00003B05DF804FB00BFF40A002000000320FB
:100EF00008B500F09FFC08BD08B5104A104B136000
:100F000003F12001516003F13001916003F14001D0
:100F1000116203F14801516203F15001D16003F104
:100F20005801116103F17401516103F1780191617C
:100F30008433D36100F0A6FC08BD00BF000003208D
:100F40002800032038B504460B4D284600F00AF966
:100F50000A4B5B68A2681A60E268DA60084A5A6065
:100F60009D6000F0B1FC2268064B1A606268064B77
:100F70001A60002038BD00BFB80003200000032025
:100F8000DC000020F00A0020EC0A002008B5054B28
:100F90005A681268012111725B6800F09DFC002004
:100FA00008BD00BF0000032000B583B007E001A921
:100FB000074800F00AF9074B1B6801989847044856
:100FC00000F0D3F80028F2D003B05DF804FB00BFB6
:100FD000B8000320F00A002008B5024B1B689847B0
:100FE00008BD00BFEC0A002038B50446094D28466C
:100FF00000F0B8F8084BDB68A2681A605D6000F08A
:1010000089FC2268054B1A606268054B1A60002053
:1010100038BD00BFC000032000000320FC0A0020F0
:10102000000B002008B5054BDA6812681021117218
:10103000DB6800F077FC002008BD00BF0000032043
:1010400008B5044BDA68DA68034B1B6810689847E8
:1010500008BD00BF00000320FC0A002000B583B0DB
:1010600007E001A9074800F0B0F8074B1B6801989A
:101070009847044800F079F80028F2D003B05DF8F2
:1010800004FB00BFC0000320000B002038B504465D
:101090000C4D284600F066F80B4800F063F80B4B47
:1010A0001B690B4A1360A2689A60E268DA601D61EE
:1010B00022681A6062685A6022695A6162699A619C
:1010C00038BD00BFC8000320F40A00200000032040
:1010D000040B002008B50146034800F05EF8034801
:1010E00000F06EFC08BD00BFF40A0020BD0E000831
:1010F00010B5054C204600F035F8044B5B691C60C8
:1011000000F076FC10BD00BFD000032000000320DB
:101110007047000000B583B006E001A9064800F062
:1011200054F80198FFF7F4FF034800F01EF8002878
:10113000F3D003B05DF804FBD0000320014607485C
:10114000C3798B4204D0064A904201D00838F7E7B1
:101150008B4200D170470020FCE700BFF873FF1FEF
:101160000070FF1F006040607047EFF3108372B69D
:101170000268824203D0002083F310887047012068
:10118000FAE7EFF3108372B602680A604860016004
:101190000A68516083F310887047EFF3108372B6CA
:1011A000086042684A6041604A68116083F31088B1
:1011B0007047EFF3108372B64268016811600268ED
:1011C0004168516083F31088704710B5EFF31084C5
:1011D00072B603680B600068FFF7EBFF84F31088BA
:1011E00010BD000008B5064B93F88030052B00D1E8
:1011F00008BDFEF7CDFF024B002283F88020F7E701
:101200006009002000B583B0054B0093054B0193A6
:1012100069460548FFF7B2FC03B05DF804FB00BF68
:10122000D8000320471200082D12000810B504460C
:1012300040680830FFF7BCFB10B10123237010BDDC
:1012400000232370FBE708B510B1012804D008BDC6
:10125000072000F0ADFDFAE7072000F0B7FDF6E744
:1012600008B50F4BD3F88025B2F1FF3F10D0D3F86B
:1012700084350C480270C2F3072242708370C3F3B6
:101280000722C270C3F3074202711B0E437108BDEF
:101290000020FFF753FF0028F9D10348F7E700BF0C
:1012A0000070FF1F0C0B00203C910008F0B589B0C6
:1012B0000024ADF81840FFF7DAFAFFF7D1FF024635
:1012C00006212046FFF753FA2C4A10211820FFF779
:1012D0004EFA2B4A10210820FFF749FA1821012065
:1012E000FFF775FAFFF714F90DF11A03019307AB35
:1012F00000930DF11E03072221460120FFF752F84B
:10130000BDF81E60BDF81C701E4D2846FEF738FF64
:101310000095C3B2224639463046FFF7CBF906ABFB
:10132000009302232246BDF81A10BDF81E00FFF7F5
:10133000C1F9022211462046FFF7B9FA124D2C706E
:101340002046FEF7A0FF0121697008232B711022AF
:101350006A71EC700D48A860AC700494039002941C
:1013600001920093234602222046FEF7B2FFAB789B
:101370000BB909B0F0BDFFF781F8FAE72C9100082E
:101380001C910008149100086009002040E201004F
:1013900000B589B00B4B83F88000002006900590C3
:1013A000049003900290019000900346A0228021B7
:1013B000FEF70FFF04490920FFF733F809B05DF885
:1013C00004FB00BF600900200C00002030B58FB086
:1013D000EC461F4C0FCCACE80F000FCCACE80F0074
:1013E0000FCCACE80F0094E803008CE80300FFF793
:1013F00009FF0121022000F0B1FC164A0021022061
:1014000000F0DCFD6846FFF7FDFAF0B9FFF74EFF8C
:10141000FFF7B8FA104C002584F880504FF6FF73A0
:10142000E3820E4A2946012000F0C8FD0620FFF79E
:10143000F7F900F0FFF8657625760220FFF7A8FFA0
:10144000074B01221A700FB030BD03F001F8DDE741
:1014500094900008A10B000860090020E511000825
:10146000120B002010B543783E2B23D0FF2B4BD01E
:10147000052B01D0012010BD8288324BDB8A9A42B5
:1014800012D0304B93F8803013B92F4B01221A70D1
:101490000220FFF77DFF2D4801230370294BDB8AD3
:1014A000438000F0C5F8E5E7264B0022DA8283F896
:1014B0008020E6E7C378012BDCD1224B93F8803003
:1014C000042B1CD01F4B052283F88020B0F8053078
:1014D0001C4CE3821D4800220270438000F0A8F8F3
:1014E00094F88030052BC5D1174B00221A700122C9
:1014F0004FF400714FF0904003F092FBBAE7114BAC
:10150000062283F88020E1E7B0F8033040F2094278
:1015100093420DD040F6164293420FD040F2024261
:101520009342A7D10A49074BD88AFEF712FFA1E7D9
:101530000121044BD88AFEF7C2FF9BE700F04AF86E
:1015400098E700BF60090020120B0020080B002064
:1015500040E2010008B50021022000F015FC08BDA2
:1015600008B5012000F03EFC08BD08B5012000F0E0
:10157000F9FC08BD08B5134B1B7803B908BD124B25
:101580001978124BF42201FB0231002000F02AF9F5
:1015900064280CD00C4A13780133DBB21370137833
:1015A000DBB2092BEAD9134600221A70E6E7084B92
:1015B00000221A70044A1378D9B2013BDBB21370CF
:1015C0001170DBE7140B0020A0140020180B002082
:1015D000130B002008B50021042000F0D5FB024BBE
:1015E00001221A7008BD00BF130B002008B50021AE
:1015F000042000F0C9FB024B01221A7008BD00BF95
:10160000130B00200378012B02D0022B06D0704769
:101610000123054A1370054A137070470023024ADC
:101620001370024A13707047140B0020130B002034
:101630007047000008B5054A0021042000F0BEFCF8
:1016400001F088F801F09EF808BD00BF751500088C
:1016500010B584B04378FF2B03D00024204604B09B
:1016600010BDB0F8033040F61442934227D040F644
:101670001642934232D040F60142934201D00024F8
:10168000ECE7B0F80720174B5B8802339A4201D091
:101690000024E3E7447B1CB1012C09D00124DDE7E1
:1016A00002238DF800306846FFF7ACFF0124D5E730
:1016B00001238DF800306846FFF7A4FFCEE7B0F8AD
:1016C0000720084B5B8801339A4201D00024C5E70C
:1016D000B0F80500FFF723F80124BFE7FFF786FF06
:1016E0000024BBE7C400002030B58BB03A48FFF7B8
:1016F00055F98F238DF81830E5238DF81930B32371
:101700008DF81A30D5238DF81B302E238DF81C3020
:101710007F238DF81D304A238DF81E3098238DF8D5
:101720001F302A238DF8203048238DF821307A236A
:101730008DF82230CC238DF8233000248DF82440FE
:101740008DF825408DF826408DF82740234D0095D3
:101750000423012206A90220FEF7FCFE19238DF8BE
:101760001830ED238DF8193082228DF81A20AE2220
:101770008DF81B208DF81C3021238DF81D304C2353
:101780008DF81E309D238DF81F3041238DF82030B9
:1017900045238DF8213022238DF822308E238DF8B9
:1017A00023308DF824408DF825408DF826408DF8A3
:1017B000274035F8020B0595049410230393072264
:1017C000029201940093064B1B7806AA0221FEF7B1
:1017D00011FF0BB030BD00BF51160008C40000203F
:1017E0001500002008B19220704700B583B006486C
:1017F0000091064B1B78002241880088FEF75AFFB3
:1018000003B05DF804FB00BFC400002015000020F9
:1018100010B5064C636843F400236360044B1B68F7
:1018200098474FF40023A36010BD00BF000C005880
:10183000A414002082B04FF0B043D3F8502142F4FA
:101840008012C3F85021D3F8503103F48013019370
:10185000019B0A4B1A6A42F400721A62D3F8D42030
:1018600042F40072C3F8D42040BF20BF044AD368BA
:1018700043F40043D36002B0704700BF0008005833
:101880000004005800B583B04FF0B0431A6D42F425
:1018900080121A651B6D03F480130193019B094BA1
:1018A0001A6842F001021A601A6842F480321A6023
:1018B0002C2005F051F82D2005F04EF803B05DF80E
:1018C00004FB00BF000C0058024A536823F00103D8
:1018D00053607047000C0058024B4FF480329A60FE
:1018E000704700BF000C005808B5044A536843F421
:1018F00000135360FFF770FB08BD00BF000C0058D9
:1019000008B5FFF751FB024B01229A6008BD00BFEA
:10191000000C0058024A536823F0020353607047DA
:10192000000C0058044B4FF400329A605A6822F4BD
:1019300000325A60704700BF000C005808B5044AD6
:10194000536843F400335360FFF77AFB08BD00BFD0
:10195000000C005808B5144BDB6813F0020F04D1DB
:10196000114B5B6813F4003F14D00F4BDB6813F08E
:10197000080F04D10C4B5B6813F4002F0DD00A4BF9
:10198000DB6813F0200F04D1074B5B6813F4001FD2
:1019900006D008BDFFF7D2FFFBE7FFF739FFF8E7F6
:1019A000FFF7A2FFF5E700BF000C005808B5FFF7EE
:1019B00055FB024B02229A6008BD00BF000C005884
:1019C00008B5094BDB6813F0080F05D18047064BBB
:1019D0004FF400229A6008BD044B1860024A536815
:1019E00023F400235360F6E7000C0058A4140020F1
:1019F000024A536823F0080353607047000C0058F4
:101A000008B5FFF787FB024B08229A6008BD00BFAC
:101A1000000C005808B5144BDB6913F0020F0AD113
:101A2000114BDB6913F0010F0DD10F4BDB6913F084
:101A3000080F10D108BD0C4B5B6813F0020FEFD1FB
:101A4000FFF7B4FFF6E7084B5B6813F0010FECD12A
:101A5000FFF756FFEEE7044B5B6813F0080FE9D180
:101A6000FFF7CEFFE6E700BF000C005810B588B0C6
:101A70000DF1040C094C0FCCACE80F0094E8070002
:101A8000ACE803002CF8022B120C8CF80020FFF7B6
:101A90002FFB01A8FEF7C5FF08B010BDCC900008D1
:101AA00082B04FF0B0431A6D42F480121A651B6D7C
:101AB00003F480130193019B0A4B3F229A609A61C1
:101AC0005A6842F47C125A605A6942F47C125A6194
:101AD0005A6842F03F025A605A6942F03F025A6126
:101AE00002B07047000C0058054BCA225A625322BC
:101AF0005A629A6822F007029A60FF225A6270477F
:101B000000280040704708B54FF0B043D3F8943038
:101B100013F0806F18D04FF0B043D3F8943013F027
:101B2000805F11D104F068FF04F066FF4FF0B0430E
:101B3000D3F8902042F48032C3F89020D3F890205C
:101B400022F48032C3F8902008BD08B5FFF7DBFF10
:101B5000FFF7A6FF08BD000008B50020FFF7EEFA6A
:101B600068B181794FF0B042054BC2F89C30D2F891
:101B70009C3023F47C5343EA0123C2F89C3008BD17
:101B8000FECAFECA08B54FF0B042936843F4004362
:101B9000936000F0D9F8054AD2F8803023F00703AB
:101BA00043F00403C2F8803008BD00BF00040058B1
:101BB00010B588B0FFF7A0F90F4A0021082000F007
:101BC000FDF90E4C00940E4B019369460D48FFF74A
:101BD000E3F804F58673029304F50673039304F5A2
:101BE0004974049440F23C53059302A8FFF74EFA5F
:101BF000FFF77EF908B010BDBD0D00080001002000
:101C0000051B0008611C000800B585B00023009387
:101C100001930293ADF80C3043685B7B23B1012B39
:101C200019D005B05DF804FBFFF720FF0D238DF8F8
:101C300000307F238DF80230084B1B681B0CADF879
:101C40000C306846FEF7FCFEFFF7C0FB00210120C8
:101C500000F084F8E5E700230370E2E7002004E0E9
:101C60004368B3F80B30B3F5124F00D0704710B58E
:101C700084B004466846FEF7F1FE2046FFF7C4FF35
:101C800004B010BD08B5044B4FF400421A61FFF7D1
:101C90005CFFFFF761FF08BD00400058034AD2F81F
:101CA000903043F05003C2F890307047000800585D
:101CB00008B5FFF7F3FFFFF717FF08BD08B5FFF7FB
:101CC000F7FFFFF75FFF0349002002F083F8FFF7FB
:101CD0006FFF08BDDC1F002038B5044602F0B4FEDB
:101CE0000546B4F1FF3F09D002F0BAFE044405E016
:101CF000054A136923F00403136130BF02F0A4FE08
:101D0000401BA042F4D338BD00ED00E008B54FF011
:101D1000FF3000F093F808BD704708B54FF0FF3072
:101D200000F08CF808BD08B50021082000F02CF860
:101D300008BD08B5022000F055F808BD08B502201E
:101D400000F010F908BD00000023024A1360024AA7
:101D500013607047AC140020A8140020EFF3108328
:101D600072B641B1012903D106490A6810430860DF
:101D700083F31088704703490A6822EA000008606C
:101D8000F6E700BFA8140020EFF3108C72B6064AE5
:101D9000136803431360054A52F83130184342F880
:101DA00031008CF3108870474C1500203C15002042
:101DB000EFF3108172B6044A136823EA0000106042
:101DC00081F31088704700BF1C000020EFF31081E2
:101DD00072B6034A13681843106081F31088704785
:101DE0001C000020EFF3108172B6034A13681843F9
:101DF000106081F310887047B4140020704770475A
:101E0000030C1B04B3B90004102310F07F4F02D160
:101E10000833DBB2000210F0704F02D10433DBB2A2
:101E20000001000F044A105C1844C0B2C0F11F004A
:101E3000C0B270470023E8E77492000830B583B061
:101E4000404B1C68204018603F4B1A683F4B1B6892
:101E50003F4909683F4805684AE001333E4A52F865
:101E600033200A400242F8D03B4D55F833200A4057
:101E7000024005EBC3056968114202D14FF0FF3003
:101E80006860354D05EBC30568681040FFF7B8FF83
:101E90003249086001906A68012303FA00F022EADF
:101EA00000006860EFF3108572B60A689340D8436B
:101EB00025490A6822EA03030B60022306E0013B7E
:101EC000254951F83320024041F83320002BF6D148
:101ED00085F31088214B1A68214B53F8223098471C
:101EE000194B1A68194B1B68194909681948056884
:101EF0000A4014480068024201D02B40AED0174B74
:101F00004FF0FF321A60FFF779FFEFF3108572B6DA
:101F10000D4B1B680D4A11680D4A12681340094A9F
:101F20001268134203D10B4B1B680B4207D085F399
:101F30001088FFF764FF034B1C6003B030BDFFF750
:101F4000EBFEF4E7180000204C150020B41400202C
:101F50001C000020B81400203C150020B014002004
:101F6000BC140020F8B50446114B1E68B6F1FF3FC3
:101F700005D00125B5400F4B1F681C6005E000250A
:101F8000F9E721462846FFF7C8FE0B4B1B682342A2
:101F9000F7D0074B1E60EFF3108272B6064B18683D
:101FA00020EA04041C6082F31088024B1F60F8BD15
:101FB000B0140020B8140020B414002038B5144622
:101FC000EFF3108572B6FFF71BFF034B43F8204079
:101FD00085F3108838BD00BFBC14002038B5054615
:101FE0000C46016002616FF06043994205D288009F
:101FF00006F076FE611E034606E04FF0FF30F7E77D
:10200000002243F8042B01390029F9DA68602C68B2
:102010006FF060439C4205D2A00006F061FE631E93
:10202000024606E04FF0FF30F7E7002142F8041BBC
:10203000013B002BF9DAA8602C686FF060439C42EA
:1020400005D2A00006F04CFE631E024606E04FF0EB
:10205000FF30F7E7002142F8041B013B002BF9DABF
:10206000E860284638BD10B5044600230360406888
:1020700008B106F033FEA06808B106F02FFEE06854
:1020800008B106F02BFE204610BD002303634B6B06
:1020900043638B6B8363704780ED100B80ED121BE5
:1020A00070470023C0F8A8300B68C0F8AC304B680C
:1020B000C0F8B030704738B504461546FFF7E5FF65
:1020C0005022294604F1580006F078FE38BD00225F
:1020D0000023C0E90023C0E902237047000000008C
:1020E00010B504469FED0E1B80ED001B9FED0E0BFF
:1020F00080ED020B80ED040B80ED060B80ED080BEC
:1021000080ED0A1B00230363436380ED121B4FF035
:10211000FF330365FFF7C0FF204610BDAFF300801B
:10212000000000000000F03F000000000000000080
:1021300010B504464FF4F47200F50D61084803F041
:1021400003FB38B94FF4F4722146064803F074FAE1
:1021500018B910BD02F07CF9F4E702F079F9F8E75C
:10216000C42000205C21002000B583B080F8D21785
:1021700080F8D3274FF0FF32009200F2D2729821FC
:10218000044804F07DF910B903B05DF804FB02F0D7
:102190005FF9F9E73C1F002030B583B0044680F8B2
:1021A000D21715464FF0FF330093134600F2D27258
:1021B00098210B4804F064F960B94FF0FF330093A5
:1021C0002B4604F2D7729821054804F017FA20B97B
:1021D00003B030BD02F03CF9EFE702F039F9F7E760
:1021E0003C1F002010B50446022300221146FFF7D1
:1021F000BBFF022300227F212046FFF7B5FF022309
:10220000012211462046FFF7AFFF0A20FFF764FDC9
:102210000223012203212046FFF7A6FF02231A46CC
:1022200006212046FFF7A0FF0223032207212046B4
:10223000FFF79AFF0223302208212046FFF794FF80
:1022400002230C2219462046FFF78EFF01220221AD
:102250002046FFF7A1FF012224212046FFF79CFF23
:1022600002231C2203212046FFF77EFF014B01229F
:102270001A7010BD5015002008B50D4B1B7813B90E
:102280000C4B1B7873B10C4B1A785200022302F0EE
:10229000FE020321FFF768FF054B1B781BB1044BBF
:1022A00000221A7008BD034B00221A70FAE700BF23
:1022B000D81F0020D71F00202000002010B50446A2
:1022C00000F5805292F87000431CDBB282F8703047
:1022D000F42204F2DC710D4B00FB023006F06EFDBF
:1022E0000B4B1B7863B904F5805393F87030DBB265
:1022F000092B04D904F58054002384F8703010BDF4
:1023000000210420FFF740FDEDE700BF180B00207F
:10231000130B00202DE9F04F85B081468A46904688
:102320000393BDF83CB0FFF7A7FF214A13780133B0
:10233000137001221F49002006F098F90026344648
:1023400021E058F824301B1409F58055A5F87230A7
:10235000671C58F827301B14A5F87430B5F87220A4
:102360000094134B1B7812B21349002006F098FB1F
:10237000B5F872302AF81730B5F87230039A22F89F
:10238000163002340136A345DBDC02220B49002063
:1023900006F06CF94846FFF791FF054B1B780A2BB6
:1023A00002D005B0BDE8F08F014B00221A70F8E7AB
:1023B0005115002084920008889200089492000829
:1023C00000B583B01A4B1B7823B1012B19D003B091
:1023D0005DF804FB174B1B78002BF8D0F423019316
:1023E00000F57473009300F2DC7300F50D62014692
:1023F000FFF790FF0F4B00221A700D4B01221A704D
:10240000E5E70D4B1B78002BE1D0F423019300F599
:10241000B763009300F2DC7300F54A6200F5F471D3
:10242000FFF778FF0023044A1370014A1370CEE7C8
:10243000D61F0020D31F0020D11F00200000000065
:10244000F0B5ABB00546FFF74BFE00208C49C5E95F
:10245000160100220023C5E91823C5E91A23C5E99E
:102460001C23C5E91E23C5E920010023C5F88830D7
:10247000C5F88C30C5E92801C5F8A830C5F8AC30DE
:10248000C5F8B03005F1C00423460322002A17DB4B
:1024900000267B4FC3E9006700200021C3E9020149
:1024A000C3E90401C3E90601C3E90801C3E90A67F6
:1024B000002119635963C3E912675033013AE5E714
:1024C00004F5A0760327002F0BDB00220023C6E9CA
:1024D0000023C6E902233046FFF7F9FD1036013F1D
:1024E000F1E704F5C0730122002A1CDB0020002163
:1024F000C3E90001C3E90201C3E90401C3E906011C
:10250000C3E90801C3E90A01C3E90C01C3E90E01EB
:10251000C3E91001C3E91201C3E91401C3E91601BB
:102520006033013AE0E705F5407423460322002AB0
:1025300017DB0026524FC3E9006700200021C3E9E2
:102540000201C3E90401C3E90601C3E90801C3E9C3
:102550000A67002119635963C3E912675033013ACE
:10256000E5E704F5A0760327002F0BDB002200230C
:10257000C6E90023C6E902233046FFF7A8FD10365E
:10258000013FF1E704F5C0730122002A1CDB0020A3
:102590000021C3E90001C3E90201C3E90401C3E961
:1025A0000601C3E90801C3E90A01C3E90C01C3E953
:1025B0000E01C3E91001C3E91201C3E91401C3E923
:1025C00016016033013AE0E705F5A86423460722C7
:1025D00016E09FED277B83ED007B00200021C3E9FF
:1025E0000201C3E90401C3E90601C3E9080183ED5F
:1025F0000A7B00211963596383ED127B5033013A42
:10260000002AE6DA04F5207607270AE000220023F4
:10261000C6E90023C6E902233046FFF758FD10360D
:10262000013F002FF2DA04F540730322002A29DB70
:102630009FED117B83ED007B83ED027B83ED047BBB
:1026400083ED067B83ED087B83ED0A7B83ED0C7BBA
:1026500083ED0E7B83ED107B83ED127B83ED147B8A
:1026600083ED167B6033013AE0E700BFAFF30080F3
:10267000000000000000F03F00000000000000002B
:102680000000F03F05F1C00304262896299328A9ED
:102690002846FFF706FD05F5906700201849CDE9AB
:1026A000000100220023CDE90223CDE90423CDE976
:1026B0000623CDE90823CDE90A0100240C940D96E8
:1026C0000E97CDE9120105F50466CDE91401CDE9B7
:1026D0001623CDE91823CDE91A23CDE91C23CDE932
:1026E0001E012094082321932296CDE9260114AAE5
:1026F00069462846FFF7DFFC28462BB0F0BD00BF37
:102700000000F03F012800D070474FF6FF73994258
:10271000FAD110B50748FFF793FE074C40F6CC42BC
:1027200028212046FFF75AFC044A0549204606F0B6
:10273000D0FA10BD681500205415002008000020B4
:102740006720000808B54FF6FF710120FFF7DAFF98
:1027500008BD000010B5094C234640F601020121D6
:102760004FF47A5000F0A6FC054B18602368002B4C
:1027700001DB002010BD0120FCE700BF2C1F002062
:10278000281F002008B54FF47A3240F6A271064B9C
:10279000186800F0DDFC054B1860002801DB002004
:1027A00008BD0120FCE700BF281F00202C1F0020CF
:1027B000B0F57A5F13D009DD45F6C053984214D0C6
:1027C0004BF68033984212D101207047B0F5FA5F82
:1027D00007D042F6E063984205D1042070470320F9
:1027E0007047062070470020704702207047002085
:1027F000704710B5044600224FF470714BF68030DC
:1028000000F0F2F94268A30202FB0433806804FB83
:1028100000F003EB40003D30800010BD0EB4F0B579
:1028200082B0044607AA52F8043B0192B3F57D6FCB
:102830003BDA40F6A272934234DBA3F6A2732D2B4F
:1028400000F27081DFE813F0B0006E016E016E01DE
:10285000AA006E016E016E0160006E016E016E01D4
:1028600096006E016E016E016E016E019F006E0199
:102870006E016E016E016E016E016E01F2006E015D
:102880006E0153016E016E016E016E01CE00D90022
:102890006E016E016E016E016E016E016E016E01C0
:1028A000E000E9006FF0040073E042F22C72934202
:1028B00000F33B8142F21272934222DBA3F51C53D8
:1028C000123B1A2B00F22B81DFE813F043002901A1
:1028D0002901290129012901820029012700290153
:1028E0003500290129010901E900290129012901EE
:1028F00029012901EF002901190129011F012901DD
:10290000FC006FF0040044E0019B1A1D01921B685B
:102910000A2B00F2018183613AE0019B1A1D0192AA
:102920001B68002BC0F2F880226892689A4240F33C
:10293000F38023622CE0019B1A1D01921B68002B7F
:1029400040F3EA80226892689A42C0F2E5806362AE
:102950001EE0019B1A1D01921B68022B00F2DC8015
:10296000012BCCBF002201226261B3FA83F35B0921
:10297000E3600DE0019B1A1D01921B68642B00F2BD
:10298000CB80836304E0019B1A1D01921B684363A3
:10299000002002B0BDE8F04003B07047019B1A1D53
:1029A00001921B68C362F3E7019B1A1D01921A682A
:1029B000B2F5FA7F03DCB2F1FF3F40F0AD8063680F
:1029C0005B4901FB03F39342A8BF1346A362DFE711
:1029D000019B1A1D01921B685A1E012A00F29C805D
:1029E000A360D5E7019B1A1D01921B68A3F10802A1
:1029F000102A00F29180C363CAE7019B1A1D01925D
:102A00001B68C26B1A60C3E7019B1A1D01921B6809
:102A1000012B00F281804364BAE7019B1A1D0192E9
:102A20001B68002B78D0426C1A60B1E700F1F40506
:102A3000416850F84C3B5F6807F5806201FB02F289
:102A40009E6801FB06F6730003EB820215448A02BE
:102A500007FB01221A443D3292004C3A002106F055
:102A6000BBF9002307E0F1184FF4104225F81120BC
:102A700025F81320013362682168896801FB02F29E
:102A80009A42F0DC0023C4F8D830012262650222A9
:102A900022654FF48072A2652366636678E7019B26
:102AA0001A1D01921B68236372E7019B1A1D019294
:102AB000196800293FF46CAF402204F1780006F059
:102AC0007DF965E7019B1A1D0192196800293FF401
:102AD0005FAF082204F1B80006F070F958E7019BD7
:102AE0001A1D01921B68BBB122681A6050E7019B56
:102AF0001A1D01921B687BB1C26C1A6048E7019BEA
:102B00001A1D01921B68236442E7019B1A1D019262
:102B10001B68C4F8EC303BE74FF0FF3039E76FF04B
:102B2000040036E76FF0040033E76FF0040030E78D
:102B3000A0F70300022A33D8F8B504460E4615461E
:102B40001F4600282FD0002930D04B68920203FB8B
:102B500005228B6805FB03F302EB43023D32920032
:102B6000002106F039F926606560A5600123E36164
:102B700000252562F26862622363A76463632361B0
:102B80004FF0FF33A362E562E5600523A3611823DC
:102B9000E36340F6BC712046FFF740FE2846F8BDCF
:102BA0004FF0FF3070476FF00600F8E76FF0060057
:102BB000F5E7F8B504460F4615461E4600224FF4C9
:102BC00070714BF6803000F00FF8014633462A460C
:102BD0002046FFF7AFFF054608B12846F8BD384646
:102BE000FFF7E6FDE061F8E700B54FF0000EBEF13B
:102BF000000F17DDDAB14FF0FF33136000205DF8EE
:102C000004FB0133032B0FDC4BF6803C6045F8D10D
:102C100001FA03FCBCF5707FF3D10AB10023136005
:102C20000448ECE70023EDE70EF1010EDFE7104664
:102C3000E5E700BF64B4000810B504467022002127
:102C400006F0CAF800230BE0591C322292FBF1F285
:102C5000012AB8BF0122163304EB83035A600B46E6
:102C6000032BF1DD002316E003F1160204EB8202D0
:102C70005268642101FB02F203F10E0104EB8101B1
:102C80004A606FF0004191FBF2F203F1120104EB94
:102C900081014A600133032BE6DD0F23E366002345
:102CA00006E003F10A024FF4C84144F82210013350
:102CB000032BF6DD002010BD00F58043D3F8B023D0
:102CC0000A60D3F8B4334B6000F58053D3F8CC21BD
:102CD0008A60D3F8D421CA60D3F8D8210A61D3F826
:102CE000DC214A61D3F804228A61D3F80022CA6148
:102CF000D3F808220A62D3F810224A62D3F8C82710
:102D00008A62D3F8BC270A63D3F844224A63B3F932
:102D1000E0214FF47A7C0CFB02F28A64D3F8B821EC
:102D2000CA64D3F8E031102B03D000230B650020D8
:102D30007047C3690BB10023F8E70123F6E744F2BB
:102D4000C8330360002070472DE9F04106460F4666
:102D5000904644F2C832002106F03EF800252C4689
:102D600008E0394642F2B81000FB046000F012F8A7
:102D700005440134012CF4DD06F580430122C3F83B
:102D8000B023C3F8B42341463046FFF795FF2844EB
:102D9000BDE8F08170B504460D4642F2B81200213C
:102DA00006F01AF804F58056C6F8E4534FF4701094
:102DB00000F00DF8A0F500600002A060E0600123C3
:102DC000C6F8383204F12400FFF736FF70BD00B5B5
:102DD0000346D0B1B0FA80F2A2F11800D2F1180186
:102DE00002D0002913DBCB4103F07F03C3F1800144
:102DF00003FB01F14FF4330C81FB0CE01844C2F1EA
:102E00001F0200EBC2105DF804FB2022E4E7C0F1D2
:102E10002000C341E8E708B543F2A86200210C3066
:102E200005F0DAFF08BD08B5002202608160FFF7F7
:102E3000F2FF08BD00B584468E4639B9D0F890102F
:102E4000114B83FB013ECB17C3EBEE1EDCF8A40055
:102E500010F57A7F04D0B0F1FF3F0DD05DF804FB90
:102E6000DCF89000C0EB00139B0093FBFEF3DCF852
:102E7000702002FB0030F1E7DCF8900002FB00F06C
:102E8000C00090FBFEF0E9E71F85EB51431E012BCC
:102E900001D90020704710B582B0044601A8FFF7A1
:102EA0004EFF10B1002002B010BD019B033323F090
:102EB000030301932046FFF79CFC019B03F57D5320
:102EC00018331844EFE700002DE9F04383B00446BF
:102ED0000F4690461E464BF6803399420ED045F67B
:102EE000C05399420AD0B1F57A5F07D042F6E06349
:102EF000994203D0B1F5FA5F40F0C48008F1FF3386
:102F0000012B00F2C280A6F50063012B04D940F624
:102F100003039E4240F0BC804046FFF7B7FF0246E5
:102F20000021204605F058FF01A8FFF708FF002800
:102F300040F0B180019D033525F00305019543F66E
:102F400058706060054425602544C4F8708004F51D
:102F50004053C3F87087C4F890700021C4F8B410CF
:102F600004F108022044FFF7EFFE002840F09680AD
:102F7000C4F80880C4F80C80D4F8903023614FF472
:102F80007A5363614FF4FA52A261E361142323621E
:102F900046F2A81363620023A3620922E26223635C
:102FA000A363E363E364D4F8B43042463946284669
:102FB000FFF7FFFD8146002873D1002242F2207105
:102FC0002846FFF72BFCE26A40F6AA712846FFF775
:102FD00025FC0125C4F89450C4F89850324BC4F82D
:102FE000A43008FB07F202F6B832C4F8A020E66667
:102FF000E367C4F8803040F25147C4F88470A36797
:10300000C4F888304FF0FF33C4F88C30D4F89030D7
:10301000264A82FB0312D917C1EB6212C4F8AC2016
:103020001822C4F8A82041F28832C4F89C20204A13
:1030300082FB0323C1EB2313636704F540564FF46F
:103040008043A6F8743747F6FF73A6F87C373C2018
:10305000FFF7BDFE0002C6F87807C6F8AC5740F28D
:10306000E933C6F89037C6F8A077D4F8901004F189
:10307000BC00FFF7D8FEE36EC4F8C030484603B08A
:10308000BDE8F0834FF0FF39F8E74FF0FF39F5E77F
:103090004FF0FF39F2E74FF0FF39EFE76FF0020929
:1030A000ECE76FF00209E9E718FCFFFF1F85EB5121
:1030B000D34D62102DE9F04104460D461646984660
:1030C0004BF6803290420DD045F6C053984209D05D
:1030D000B0F57A5F06D042F6E063984202D0B0F5D0
:1030E000FA5F1FD16B1E012B1CD8A6F50063012BC4
:1030F00003D940F603039E4214D12846FFF7C6FECB
:1031000005F04CFE0746B0B133462A462146FFF78C
:10311000DBFEB8F1000F01D0C8F8000098B93846BE
:10312000BDE8F081B8F1000F03D04FF0FF33C8F8CD
:1031300000300027F3E7B8F1000FF0D06FF006037E
:10314000C8F80030EBE7384605F030FE0027E6E728
:103150000EB470B59BB004461FAA52F8043B1992F6
:103160000568054440F6D17293423CDCB3F57A6FB2
:10317000C0F24183A3F57A63312B00F24383DFE889
:1031800013F07B009A00A500C300F0001201B1010A
:10319000BF011E0143016801770182018C01970183
:1031A000A60151015C0141034103D701E201D500B1
:1031B000E500EE01010241030F02A8022A024103C9
:1031C00036024103410341034103440251024103DA
:1031D00041035D026B0277028102410341038C02CD
:1031E0009A024103FB0242F6FA22934200F0A982BE
:1031F00014DD42F60A32934200F08E8142F60B3221
:10320000934236D1199B1A1D19921B68002B00F0AE
:10321000FE82D0F88C201A600020EEE242F2287282
:10322000934200F09D8242F22A7293420DD1199B83
:103230001A1D19921A6800F54054C4F8B02742F2DA
:103240002A712846FFF7EAFAD7E242F21F72934248
:103250000CD1199B1A1D19921A68002A00F0D78206
:1032600042F21F712846FFF7D9FAC6E26FF0040058
:10327000C3E26FF00400C0E2199B1A1D19921B688B
:10328000A3F50062012A06D940F60302934202D058
:103290004FF0FF30B1E204F54052D2F8AC272AB922
:1032A000E26E9A4202D04FF0FF30A6E2E366C4F825
:1032B000C0300020A1E2199B1A1D19921B68002B37
:1032C00000F0A582C26E1A60002096E2199B1A1DBA
:1032D00019921B6813F57A7F12D0B3F1FF3F0FD01C
:1032E000002B40F39482B3F5FA7F07DD026FAB4900
:1032F00001FB02F29A4203DA134601E04FF4FA733B
:10330000C4F8A430002078E2199B1A1D19921D6898
:10331000002D00F07C8200F5405340F2FC42D3F8CF
:103320009C17FFF787FD2860002066E2199B1A1D95
:1033300019921B68002B02DD026F9A4203DA13F523
:103340007A7F40F06482A367002056E2199B1A1D21
:1033500019921B68002B00F05A82826F1A600020BD
:103360004BE2199B1A1D19921B68A3F24D42042AC5
:1033700000F24D82C0F8843040F24D42934208D0B2
:1033800040F24E42934209D04FF47A5343610020F9
:1033900033E24FF4FA53436100202EE242F6E06339
:1033A0004361002029E2199B1A1D19921B68002B0A
:1033B00000F02D82D0F884201A6000201DE2199BB5
:1033C0001A1D19921B68A3F24D42042A03D913F562
:1033D0007A7F40F01C82C4F8803040F24D42934224
:1033E00008D040F24E42934209D04FF47A536361C1
:1033F000002002E24FF4FA5363610020FDE142F63F
:10340000E06363610020F8E1199B1A1D19921B68A3
:10341000002B00F0FC8100F54054D4F8A0271A607E
:103420000020EAE1199B1A1D19921B68012B00F27A
:10343000EE81C0F8B8300020DFE1199B1A1D199207
:103440001B68002B00F0E381D0F8B8201A60002040
:10345000D3E1199B1A1D19921A680A2A00F2D78122
:10346000C26240F6AA712846FFF7D8F90020C4E1ED
:10347000199B1A1D19921B68002B00F0C881C26AA3
:103480001A600020B9E1199B1A1D19921B68012BC3
:1034900000F2BD8103630020AFE1199B1A1D199250
:1034A0001B68002B00F0B381026B1A600020A4E1BE
:1034B000199B1A1D19921A68642A00F2A881826267
:1034C00040F6AE712846FFF7A9F9002095E1199B57
:1034D0001A1D19921B68002B00F09981826A1A60EC
:1034E00000208AE1199B1A1D19921B68012B00F21A
:1034F0008E81C0F89430C3F10103C36300207CE1E6
:10350000199B1A1D19921B68002B00F08081D0F8BE
:1035100094201A60002070E1199B1A1D19921B68F3
:103520005A1C652A00F27381C0F88C30002064E1D7
:10353000199B1A1D19921B68012B00F26881C0F8B3
:103540009830002059E1199B1A1D19921B68002B15
:1035500000F05D81D0F898201A6000204DE1199BA1
:103560001A1D19921B6813F57A7F08D040F6B932FC
:10357000934204D040F6BA32934240F04881E36768
:1035800000203AE1199B1A1D19921B68002B00F0CC
:103590003E81C26F1A6000202FE100BFE09304005B
:1035A000199B1A1D19921968002900F03081D0F872
:1035B0009030984A82FB0302DB17C3EBE2130B60E7
:1035C000E06E40F60302904200F01F81626F1344E8
:1035D0000B60002011E1199B1A1D19921B68002B2A
:1035E00000F01581D0F890201A60002005E1199BA9
:1035F0001A1D19921B68002B00F0098100F5405438
:10360000D4F8542F1A600020F7E0199B1A1D199264
:103610001B68A3F10802102A00F2F980C0F8A83054
:103620000020EAE0199B1A1D19921B68002B00F07C
:10363000EE80D0F8A8201A600020DEE0199B1A1D49
:1036400019921A68A2F59C53083B092B00F2DF80FF
:10365000C0F89C200020D0E0199B1A1D19921B680D
:10366000002B00F0D480D0F89C201A600020C4E029
:10367000199B1A1D19921B68012B00F2C880C364A4
:103680000020BAE0199B1A1D19921B68002B00F04C
:10369000BE80C26C1A600020AFE0199B1A1D1992FF
:1036A0001A68012A00F2B38040F6CE712846FFF76F
:1036B000B5F80020A1E0199B1A1D19921A68002A7A
:1036C00000F0A58040F6CF712846FFF7A7F800204C
:1036D00093E046680644BC30FFF79DFB4FF4FD6263
:1036E000002104F55D50303005F076FB40F6BC71EA
:1036F0002846FFF793F86A46D4F8B4103046FFF72F
:1037000023FB236F04F54054C4F870374FF4804313
:10371000A4F8743747F6FF73A4F87C370123C4F884
:10372000AC3740F2E933C4F8903740F25143C4F863
:10373000A0373C20FFF74BFB0002C4F878070020BD
:103740005BE0199B1A1D19921B68A3F57A72022A75
:1037500002D913F57A7F5AD1C4F8883000204CE0A2
:10376000199B1A1D19921A68C0F8B02042F22871EC
:103770002846FFF753F840E0199B1A1D19921B6861
:10378000002B44D0826B3AB100F54052D2F8942716
:10379000A2F57A72012A0DD9D4F8B80040B304F525
:1037A0004054D4F8482F092AD4BF002201221A60BD
:1037B000002022E04268104401221A60002202E048
:1037C000002119600132E16891420FDD196800297A
:1037D000F6D042F2B81101FB020141F2C475495919
:1037E000092901DC0021ECE70121EAE7002004E0DF
:1037F00000221A6001E06FF004001BB0BDE87040C9
:1038000003B070476FF00400F7E70020F5E74FF0D2
:10381000FF30F2E71F85EB5100B583B04FF0B043A6
:103820009A6C42F004029A649A6C02F004020192CB
:10383000019A9A6C42F001029A649B6C03F00103B6
:103840000093009B002211460B2003F04DF80B2043
:1038500003F082F8002211460C2003F045F80C20FA
:1038600003F07AF8002211460D2003F03DF80D20F8
:1038700003F072F803B05DF804FB00002DE9F0419D
:103880008AB00024059406940794089409944FF094
:10389000B043DA6C42F00402DA64DA6C02F004023B
:1038A0000492049ADA6C42F00202DA64DA6C02F0F2
:1038B00002020392039ADA6C42F00102DA64DA6CD3
:1038C00002F001020292029ADA6C42F00802DA6413
:1038D000DA6C02F008020192019ADA6C42F01002EE
:1038E000DA64DB6C03F010030093009B22464FF474
:1038F000C0614FF0904001F093F9334D22464FF4F0
:103900008041284601F08CF94FF4C06305930126ED
:1039100006960794089405A94FF0904001F0A6F888
:10392000022705974FF48818CDF81880079605A947
:10393000284601F09BF818230593CDF818800796C8
:1039400005A9224801F092F84FF48048CDF8148080
:1039500006960794089405A9284601F087F84FF4C5
:10396000806305930694079405A9284601F07EF824
:103970004FF480730593069707940897099405A957
:103980004FF0904001F072F822462146072002F0E5
:10399000ABFF072002F0E0FF22462146092002F09B
:1039A000A3FF092002F0D8FF224621460A2002F098
:1039B0009BFF0A2002F0D0FF32464146284601F024
:1039C0002FF90AB0BDE8F081000C00480010004853
:1039D000064A936A9BB2906A80B203E0034B9A6AEC
:1039E000034690B28342F9D1704700BF00280040DF
:1039F00010B401EB41020F4B03EBC2035B7DDBB262
:103A0000062B05D003EB43020A4C04EBC2021075EF
:103A1000084A00EB400C02EBCC0C8CF815308CF80B
:103A2000141001EB410102EBC10148755DF8044B34
:103A3000704700BFE4090020174B93F89030DBB2C9
:103A40008B421DD0144B01EB410203EBC202127DED
:103A50005FFA82FC02EB420203EBC202507500EBFC
:103A6000400203EBC202517500EB400203EBC202BD
:103A700082F814C001EB410103EBC10318757047D4
:103A8000054B00EB400203EBC202517501EB410113
:103A900003EBC10108757047E409002010B4254B01
:103AA00093F89030DBB283422CD0224C00EB4002E2
:103AB00004EBC20292F814C0537DDBB2527DD2B245
:103AC0000CEB4C0C04EBCC046275062B0BD0194AA2
:103AD00000EB400402EBC404247DE4B203EB430397
:103AE00002EBC3031C75134B00EB400003EBC0005B
:103AF0000122027393F89030DBB2062B11D05DF8EF
:103B0000044B70470B4B93F89020D2B283F891206E
:103B100000EB400203EBC202527DD2B283F8902048
:103B2000E1E70029EBD1034B4FF0FF32C3F89420BB
:103B3000E5E700BFE409002008B5124BD3F8943044
:103B4000B3F1FF3F02D1002080B208BDFFF740FF74
:103B50000C4BD3F8943083420BD30A4BD3F89430F8
:103B60001B1A094A107803FB00F0084B1B78D84059
:103B7000EAE7074B1B881B1A024AD2F89400034459
:103B8000EFE700BFE4090020301F0020361F0020AF
:103B9000341F002070B50446334B93F89030DBB2ED
:103BA000062B14D1304B93F89020D2B283F8912099
:103BB00083F8900000EB400403EBC4040622627516
:103BC0004FF0FF32C3F894200025284670BDFFF760
:103BD000B3FF0546244B04EB440203EBC202916899
:103BE0000144916004EB440203EBC202906893F835
:103BF000902002EB420203EBC2039B68834225D86C
:103C0000194A92F89030D9B203EB430302EBC30395
:103C10005B7DDBB20CE0144A01EB410102EBC10118
:103C20004B7DD9B203EB430302EBC3035B7DDBB2F5
:103C3000062B07D003EB43030B4A02EBC3039B683D
:103C40008342E8D92046FFF7D3FEBEE7064E96F83A
:103C500090102046FFF7F0FE96F89030DBB286F821
:103C6000913086F89040B0E7E409002010B560B3C9
:103C70000446012832D9013CA4B21B4B1B681B68C7
:103C8000DA6812F0040FF8D0DA68D2B262F4906207
:103C9000DA60164B4FF40022DA60032002F09EFE39
:103CA000134A53691B0C1B041C435461FFF790FE1D
:103CB000104BC3F894000C4B1B681A68936843F4CC
:103CC00080639360AFF3008010BDFFF781FE094B66
:103CD000C3F89400032002F073FEF5E7064B1B784F
:103CE000012BC8D1C9E700BF381F002000080058C9
:103CF00000280040E4090020361F002038B5314B71
:103D00009B6813F4806F06D02F4B1B681B68DB6821
:103D100013F0040FF8D12C4B1B681A68936823F436
:103D200080639360294A92F89030DCB203EB43033E
:103D300002EBC3039D68FFF7FFFE8446A84205D946
:103D4000224B012283F89820002026E0204B1B887C
:103D500010FA83F3AB4207D21D4B188880B21B4B7D
:103D6000002283F8982018E0A8B2A0EB0C0080B2E3
:103D7000164B012283F898200FE004EB4404134A09
:103D800002EBC404A268A2EB0C02A26003EB4303A3
:103D90000E4A02EBC3035C7DE4B2062C0FD023462F
:103DA00004EB4402094901EBC20292689445E4D94C
:103DB00004EB440401EBC4040022A260E6E7FFF731
:103DC00055FF38BD00280040381F0020E4090020BE
:103DD000321F002010B54C4B19600B68CA225A6282
:103DE0000B6853225A6249498B6843F020038B6069
:103DF0008B6803F00703C3F10403DAB2444B1A7073
:103E00000B6903F4FE034FF4FE0191FAA1F10029BE
:103E100032D0B1FA81F1CB40DBB20133DBB23D49A4
:103E20000B703A490969C1F30E0101313A4C218006
:103E3000013901FB03F3A3F5A073D3404FF6FE72E3
:103E400093421BD9354B4FF6FF721A80344B1A68D8
:103E500042F400221A60D3F8802042F40022C3F812
:103E60008020002845D12F4B012283F898204FF065
:103E7000FF32C3F894200EE02021CCE79BB2274A02
:103E80001380E3E700EB4002264B03EBC203002262
:103E90001A730130C0B20528F4D9224B062283F8E8
:103EA0009020194C226811688B6823F480638B6022
:103EB0001268D368DBB263F49063D360184B4FF49D
:103EC0000022DA60032002F089FD23681A689368F3
:103ED00043F4804393600C4B1B681B68FF225A62BB
:103EE00000220321084602F0FFFC032002F034FD0B
:103EF00010BD054B1B681B68DB6813F4806FEAD0AC
:103F0000032002F05DFDE6E7381F00200028004096
:103F1000361F0020301F0020341F0020321F0020D9
:103F200000080058E409002038B50446EFF3108576
:103F300072B6032002F01EFD294B1B681A68CA21C5
:103F400051621B6853225A6204EB4402254B03EB77
:103F5000C2031B7BDBB2022B0AD0214B1B681B6800
:103F6000FF225A62032002F0F7FC85F3108838BD67
:103F700000212046FFF792FD1A4B93F89030DBB2F8
:103F8000062B08D0174A92F89120D2B29A42E4D078
:103F9000FFF7B4FEE1E7144B9B6813F4806F06D083
:103FA0000F4B1B681B68DB6813F0040FF8D10C4B38
:103FB00019680A68936823F4806393600B68DA6871
:103FC00012F0040FFAD0DA68D2B262F49062DA60CA
:103FD000064B4FF40022DA60032002F0FFFCBCE73E
:103FE000381F0020E4090020002800400008005885
:103FF000F8B504460D4600EB4002234B03EBC20329
:104000001B7BDBB2022B38D0EFF3108672B6032095
:1040100002F0B0FC1D4B1B681A68CA2151621B6874
:1040200053225A62184F04EB440307EBC3030222E6
:104030001A739D605D602046FFF7ACFD97F89030E5
:10404000DBB297F89120D2B29A4219D10E4B04EB11
:10405000440203EBC2029268101A04EB440403EB1F
:10406000C404A060094B1B681B68FF225A6203202E
:1040700002F072FC86F31088F8BDFFF755FFC3E726
:10408000FFF73CFEEEE700BFE4090020381F0020E8
:1040900008B5904708BD0000F8B5EFF3108472B67C
:1040A000364B19680B68CA225A620B6853225A624F
:1040B0000A68936823F480639360314A92F89030E1
:1040C000DDB203EB4303D8000244137BDBB2022BC7
:1040D00015D00B68DA6812F0040FFAD0DA68D2B2A1
:1040E00062F49062DA60274B4FF40022DA6084F3C6
:1040F0001088224B1B681B68FF225A62F8BD204BB8
:1041000005EB4501CA0099189F580E6993F898303D
:1041100073B34B7BDBB2012B12D084F3108828469B
:10412000FFF702FF154B1B681A68CA2151621B6812
:1041300053225A623A4629463046FFF7A9FFD8E78C
:1041400001212846FFF7AAFC84F3108805EB4503FC
:10415000DA000B4B134459682846FFF749FF074B19
:104160001B681A68CA2151621B6853225A62E1E730
:10417000FFF7C4FD84F31088BBE700BF381F0020A1
:10418000E40900200008005808B51548154B0360E5
:10419000A3F13E53A3F57D23A3F2446343600023C0
:1041A00083600122C260036143618361C361036272
:1041B00002F007F950B90021094802F0DDFA40B9D0
:1041C0000021074802F006FB30B908BD00F040F9B5
:1041D000F1E700F03DF9F3E700F03AF9F5E700BF49
:1041E0003C1F00200054004010B59CB00446002144
:1041F0001791189119911A911B91502203A804F05C
:10420000EBFD22681A4B9A4201D01CB010BD04236A
:1042100003934FF440330B9303A803F002FC18BB45
:104220004FF0B044E36C43F00203E364E36C03F04B
:1042300002030293029B4FF4C07317931223189347
:104240000023199302231A9304231B9317A90948E7
:1042500000F00CFCA36D43F40013A365A36D03F4FD
:1042600000130193019BD0E700F0F2F8D8E700BFFC
:10427000005400400004004808B50548054B0360A1
:1042800002F0F2FA00B908BD00F0E2F8FBE700BF67
:10429000901F0020000C00580268124B9A4200D078
:1042A000704700B583B04FF0B0431A6D42F48012EE
:1042B0001A651B6D03F480130193019B00221146C4
:1042C0002C2002F011FB2C2002F046FB00221146AC
:1042D0002D2002F009FB2D2002F03EFB03B05DF81B
:1042E00004FB00BF000C0058084B1B7833B9084A88
:1042F000137801331370054B01221A70054B00220D
:104300001A70054B01221A70704700BFD31F00209E
:10431000D01F0020D21F0020D41F0020084B1B7884
:1043200033B9084A137801331370054B01221A7010
:10433000054B01221A70054B00221A70704700BF0E
:10434000D11F0020CF1F0020D21F0020D41F00202B
:1043500010B50446102804D0022C17D0082C3CD0ED
:1043600010BD344B1B78012BF6D14FF480614FF018
:10437000904000F05AFC304B1B781BB92E4B0122A9
:104380001A70E9E72C4B00221A70E5E72B4B1B78DB
:10439000002BE3D1274B1B78012BDFD1284B1B7857
:1043A000012B12D00533264A1370254B1B780E2B98
:1043B00002D9234B0E221A70204B01221A70214B76
:1043C0001B7833B91F4B1A70C8E703331C4A1370AC
:1043D000EBE71C4B00221A70C0E71B4B1B78002B2D
:1043E000BED1144B1B78012BBAD1154B1B78012B76
:1043F00007D0032B11D0042B13D0053B104A1370A8
:1044000002E00F4B01221A700F4B01221A700F4B62
:104410001B7853B90D4B1A70A2E7023B084A137080
:10442000F2E7033B064A1370EEE7084B00221A70CE
:1044300096E700BFD51F0020CC1F0020D81F00200A
:1044400020000020CE1F0020D71F0020CD1F0020FD
:1044500072B6FEE700B59BB04822002108A804F020
:10446000BBFC0023019302930393049305930693EB
:10447000079302F0C1FA4FF0B042D2F8903023F027
:10448000180343F01003C2F8903002F580621368FD
:1044900023F4C06343F400731360136803F4C06330
:1044A0000093009B072308934FF480330993012363
:1044B0000A934FF480730B9340230C9302231393BE
:1044C0000323149370231593202316934FF4003382
:1044D00017934FF0005319934FF00073189308A8E7
:1044E00002F090FB88B96F2301930321029100230E
:1044F00003930493059380220692079301A802F088
:104500000DFF20B91BB05DF804FBFFF7A1FFFFF71B
:104510009FFF00B595B050220021684604F05CFC76
:104520004FF441530093522301934FF460230293BD
:104530004FF4803305934FF480431193102313936A
:10454000684603F06EFA10B915B05DF804FBFFF78A
:104550007FFF000008B500F055FAFDF793FBFFF769
:1045600079FFFFF7D6FFFFF787FEFFF787F9FFF721
:1045700053F900F061F8FFF707FE00F0C3F900F00F
:104580000FF800F00FF8044800F098FBFDF796FBD9
:10459000024B01221A7008BDF8210020D51F00200F
:1045A0007047000008B50A480A4B036000234360C7
:1045B0007F228260FF22C26003618361C361436125
:1045C00001F008FB00B908BDFFF742FFFBE700BFA1
:1045D000DC1F00200028004010B596B00446502291
:1045E000002102A804F0F8FB2268124B9A4201D085
:1045F00016B010BD4FF4006302934FF48073129312
:1046000002A803F00EFA88B94FF0B043D3F8902017
:1046100042F40042C3F890209A6D42F480629A6599
:104620009B6D03F480630193019BE1E7FFF710FFAB
:10463000EAE700BF0028004008B51A481A4B03609B
:104640000123436000218160416181618162C16118
:104650004FF47A530362C160C162016302230322F3
:1046600000F090FFC0B91148114B03600021416078
:1046700081604FF40053436181618162C1614FF4F5
:104680007A530362C160C162016341630223032262
:1046900000F078FF18B908BDFFF7DAFEE3E7FFF78F
:1046A000D7FEF8E7C4200020045401405C2100201C
:1046B000245401402DE9F04188B004460268624B61
:1046C0009A4206D02268614B9A4258D008B0BDE8A1
:1046D000F0815F4B1B68002B3AD05D4A13680133B1
:1046E0001360082303930225049501270597069577
:1046F0000D26079603A9574800F0B8F94FF4085360
:104700000393049505970695079603A9524800F070
:10471000ADF95248524B036012234360002383607B
:10472000C360802303614FF4007343614FF400635F
:1047300083612023C3614FF40053036201F018FB2F
:10474000D0B9464BC4F884309C62C4F88030B9E7D5
:104750004FF0B0431A6E42F400121A661B6E03F457
:1047600000130193019B00221146262002F0BCF8A1
:10477000262002F0F1F8B0E7FFF76AFEE1E7344BDC
:104780001B68002B48D0324A136801331360402362
:104790000393022504950127059706950D26079694
:1047A00003A92D4800F062F94FF02008CDF80C80E5
:1047B000049505970695079603A94FF0904000F0E1
:1047C00055F94FF4007303930495059706950796E2
:1047D00003A9204800F04AF92248234B0360132321
:1047E0004360102383600023C360802303614FF480
:1047F000807343614FF480638361C0F81C804FF481
:104800000053036201F0B4FAD0B9164BC4F88430F7
:104810009C62C4F8803059E74FF0B0431A6E42F4FE
:1048200000121A661B6E03F400130293029B00220F
:104830001146262002F058F8262002F08DF8A2E753
:10484000FFF706FEE1E700BF045401402454014095
:104850000020002000080048000400480420002038
:104860001C000240642000200800024000B583B014
:104870004FF0B0431A6D42F400221A651B6D03F429
:1048800000230193019B002211462E2002F02CF8F8
:104890002E2002F061F803B05DF804FB01207047A0
:1048A00008B504F051FA162303604FF0FF3008BD3D
:1048B00008B54FF0FF31FFF7F3FFFEE710B50346F1
:1048C0000C4A0D490D48006840B10C48006803448B
:1048D000521A934206D8094A136010BD0748084C83
:1048E0000460F2E704F030FA0C2303604FF0FF306D
:1048F000F3E700BF0000032000040000F4210020C3
:104900009837002000B589B00023049305930693DF
:10491000079301930293039316484FF0804202607D
:104920004FF47A72426083604FF4A072C2600361F8
:104930008023836100F0FEFA90B94FF48053049312
:1049400004A90C4800F034FB68B9002301930393D9
:1049500001A9084800F0ACFB40B909B05DF804FBC0
:10496000FFF776FDE9E7FFF773FDEEE7FFF770FD70
:10497000F3E700BFF82100200368B3F1804F00D0B7
:10498000704700B583B04FF0B0439A6D42F001021A
:104990009A659B6D03F001030193019B0022114670
:1049A0001C2001F0A1FF1C2001F0D6FF03B05DF830
:1049B00004FB0000114B1B780BB90120704710B5A8
:1049C000044602F00FF90D4B1A784FF47A73B3FBDB
:1049D000F2F3B0FBF3F001F0DFFF68B90F2C01D95F
:1049E00001200AE0002221464FF0FF3001F07CFF59
:1049F000034B1C60002000E0012010BD21000020BE
:104A00002400002010B5094A136843F48073136032
:104A1000032001F057FF0F20FFF7CCFF10B1012456
:104A2000204610BD0446FFF721FFF9E7004000587B
:104A3000034B1B78034A11680B441360704700BF97
:104A40002100002044220020014B1868704700BF5D
:104A500044220020014B1868704700BF240000204A
:104A6000014B1878704700BF21000020F0B50023EB
:104A700066E085685E000324B44025EA0405CC683E
:104A8000B4402C438460446824EA0C0C4C68C4F3A2
:104A900000149C4044EA0C04446062E0DD080835E0
:104AA00050F8256003F007044FEA840C0F2404FA41
:104AB0000CF426EA040E0C6904FA0CF444EA0E0421
:104AC00040F8254064E0042400E0002404FA0EF4D9
:104AD0002C430CF1020C4F4D45F82C404E4C2568F0
:104AE000D44325EA02064F6817F4801F01D042EA3A
:104AF0000506494D2E606D6804EA05064F6817F4F7
:104B0000001F01D042EA0506434D6E60D5F8805083
:104B100004EA05064F6817F4803F01D042EA050613
:104B20003D4DC5F88060D5F884502C404E6816F491
:104B3000003F01D042EA0504374AC2F884400133FD
:104B40000A6832FA03F464D04FF0010C0CFA03FC4B
:104B50001CEA0202F3D04C6804F00304013C012C6F
:104B600087D94C6804F00304032C0CD0C4685D00A2
:104B70004FF0030C0CFA05FC24EA0C0C8C68AC40DA
:104B800044EA0C04C4604C6804F00304022C85D091
:104B900004684FEA430E4FF0030C0CFA0EFC24EAB3
:104BA0000C0C4C6804F0030404FA0EF444EA0C0400
:104BB00004604C6814F4403FC1D04FEA930C0CF1F0
:104BC0000205144C54F8255003F003044FEA840EF8
:104BD0000F2404FA0EF425EA0405B0F1904F3FF4D7
:104BE00074AF0E4CA0420ED004F58064A0420CD0ED
:104BF00004F58064A0420AD004F58064A0423FF42A
:104C000062AF072462E7012460E702245EE7032421
:104C10005CE7F0BD000001400008005800040048B7
:104C20000AB18161704781627047436901EA0302FA
:104C300021EA030141EA02418161704708B5054B51
:104C4000DB68034200D108BD024BD860FFF780FB50
:104C5000F9E700BF0008005810B4036A046A24F0A2
:104C600001040462846924F0F00C4CEA021223F07F
:104C70000A030B43826103625DF8044B704710B472
:104C8000046A24F0100404628469036A24F4704CFA
:104C90004CEA023223F0A00343EA0113826103626B
:104CA0005DF8044B7047836823F4401323F07003CE
:104CB0000B4343F0070383607047000090F83D30DA
:104CC000DBB2012B22D1022380F83D300268D36889
:104CD00043F00103D36003680F4A934208D0B3F155
:104CE000804F05D01A6842F001021A600020704718
:104CF00099680A4A0A40062A0AD0B2F5803F09D0CC
:104D00001A6842F001021A600020704701207047C3
:104D10000020704700207047002C01400700010070
:104D2000704770477047704710B5044603681A69AA
:104D300012F0020F11D0DA6812F0020F0DD06FF0EE
:104D400002021A610123037703689B6913F0030FC2
:104D500079D0FFF7E6FF0023237723681A6912F062
:104D6000040F12D0DA6812F0040F0ED06FF00402B4
:104D70001A610223237723689B6913F4407F68D06C
:104D80002046FFF7CEFF0023237723681A6912F02D
:104D9000080F12D0DA6812F0080F0ED06FF0080278
:104DA0001A61042323772368DB6913F0030F57D0BC
:104DB0002046FFF7B6FF0023237723681A6912F015
:104DC000100F12D0DA6812F0100F0ED06FF0100230
:104DD0001A61082323772368DB6913F4407F46D0E8
:104DE0002046FFF79EFF0023237723681A6912F0FD
:104DF000010F03D0DA6812F0010F3FD123681A695E
:104E000012F0800F03D0DA6812F0800F3DD12368D2
:104E10001A6912F4807F03D0DA6812F0800F3BD158
:104E200023681A6912F0400F03D0DA6812F0400FBD
:104E300039D123681A6912F0200F03D0DA6812F012
:104E4000200F37D110BDFFF76BFF2046FFF76AFF39
:104E500081E72046FFF764FF2046FFF763FF92E7F4
:104E60002046FFF75DFF2046FFF75CFFA3E72046E3
:104E7000FFF756FF2046FFF755FFB4E76FF001023A
:104E80001A61204603F002FFB8E76FF080021A6152
:104E9000204600F042F9BAE76FF480721A612046AA
:104EA00000F03CF9BCE76FF040021A612046FFF7C2
:104EB0003AFFBEE76FF020021A61204600F02CF99D
:104EC000C0E7000003681A4A904202D0B0F1804F58
:104ED00003D123F070034A681343154A90420AD065
:104EE000B0F1804F07D002F5C052904203D002F5D6
:104EF0008062904203D123F44073CA68134323F0C5
:104F000080034A69134303608B68C3620B68836242
:104F1000074B984207D003F5C053984203D003F5DE
:104F20008063984201D10B69036301234361704799
:104F3000002C014060B310B5044690F83D3013B327
:104F4000022384F83D30214651F8040BFFF7BAFFE5
:104F5000012384F8483084F83E3084F83F3084F8E8
:104F6000403084F8413084F8423084F8433084F88B
:104F7000443084F8453084F8463084F8473084F86B
:104F80003D30002010BD80F83C30FFF7F5FCD7E73E
:104F90000120704710B4846824F47F4C42EA032255
:104FA0000A4342EA0C0282605DF8044B704700003D
:104FB00090F83C30012B76D010B50446012380F8E0
:104FC0003C30022380F83D3002689068374B034044
:104FD00093600B68602B4CD029D8402B54D00CD94F
:104FE000502B22D1CA6849682068FFF735FE50214E
:104FF0002068FFF758FE002005E0202B0DD009D9CE
:10500000302B0AD00120012384F83D30002384F89E
:105010003C3010BD0BB1102B05D119462068FFF7AD
:1050200042FE0020EFE70120EDE70120EBE7B3F5BA
:10503000805F34D0B3F5005F0CD1CB684A688968D3
:105040002068FFF7A7FF2268936843F480439360CA
:105050000020D8E7702B24D1CB684A688968206883
:10506000FFF798FF2268936843F07703936000206E
:10507000C9E7CA6849682068FFF701FE6021206817
:10508000FFF711FE0020BEE7CA6849682068FFF7F5
:10509000E3FD40212068FFF706FE0020B3E7002073
:1050A000B1E70120AFE70220704700BF8800CEFFC4
:1050B00090F83C30012B2BD030B4012380F83C30E9
:1050C000022380F83D30026853689468114DAA426B
:1050D00019D023F070030D682B43536003680D4A09
:1050E000934202D0B3F1804F04D124F080048A6847
:1050F00014439C60012380F83D30002380F83C304D
:10510000184630BC704723F470034D682B43E0E72A
:1051100002207047002C014070477047704784465A
:105120000020CCF84400CCF84C00DCF8040028B196
:10513000022803D00120CCF8500002E00020CCF877
:1051400050004FF48030CCF85C004FF6FF70CCF884
:1051500074000020CCF86800CCF8703013F0010F18
:1051600064D159B9CCF860004FF48020CCF86400C9
:10517000032A3AD8DFE802F00A3B1B2A4FF400303A
:10518000CCF860000020CCF86400F1E78020CCF877
:1051900048005B085801CCF854001B01CCF858308B
:1051A0004023CCF86C300020022941D07047C02049
:1051B000CCF848005B089801CCF854005B01CCF8AF
:1051C00058308023CCF86C300020EDE7E020CCF89C
:1051D00048005B089801CCF854005B01CCF85830CB
:1051E0008023CCF86C300020DEE70120DCE710B42F
:1051F0008020CCF848005B089C01CCF854405B014F
:10520000CCF85830CCF86C000020022902D05DF8B0
:10521000044B7047012A05D0022AF8D10823CCF8A4
:105220006830F4E71023CCF86830F5E701207047C8
:10523000012A05D0022AB9D10823CCF86830B5E795
:105240001023CCF86830F5E730B400244464C4641B
:10525000446824B1022C02D00024046501E001243A
:1052600004650024C4654FF4003505664FF48025BD
:105270004566846603674FF6FF744467042907D0C8
:105280000D218165032A26D8DFE802F0050E151DE1
:1052900001218165F6E7802282641B01436540237A
:1052A000C366002030BC7047802282645B01436586
:1052B000C2660020F6E7C02282645B01436580235A
:1052C000C3660020EEE7E02282645B014365802331
:1052D000C3660020E6E70120E4E701290AD00123A4
:1052E000426C082A08D04268023A012A0CD943F0DD
:1052F000040070470923F3E74268032A01D0012A1A
:10530000F1D143F01003EEE743F060007047000076
:105310000E4B1B680E4AA2FB03231B0B9B0001686C
:105320000A6822F480320A603BB1013B02681268CD
:1053300012F4803FF8D100207047D0F8943043F049
:105340004003C0F894300320704700BF28000020BD
:105350001BECCB9570B5002800F00681044690F850
:105360003850012D21D094F891305BB32046FFF7DF
:10537000CFFF0546002840F0F980022384F89130E1
:10538000A368012B24D00026794B00221A60236ADF
:105390000BBB6368002B5DD0022B5BD0236D012B10
:1053A00000F0CA804FF0000C59E00268714B9A423D
:1053B00040F0BD804368012B40F0B980436C002B66
:1053C000D1D0B4E084F890302046FFF773F9CDE7F0
:1053D0004FF48066D8E7402002F0C4FCA369B3F51F
:1053E000002F21D0A36AB3F1806F31D0012100EBEF
:1053F00080004300226A01FB02F21202B3FBF2F3C7
:105400005D4AA2FB0312D208626202EB8201A3EBA7
:105410004103082B01D901326262636C042BB8D1BD
:10542000636A5B086362B4E7636C042B0BD0082BE0
:105430000BD0616D00EB80004300226A01FB02F299
:10544000B3FBF2F3DCE74021F4E74FF48071F1E7BE
:105450000221CCE7236D012B6BD04FF4007C216837
:105460000B68464A1A400A6021680A686368606CE3
:105470000343A06C0343E06C034343EA0C03334350
:10548000E06A034360690343A0690343606A43EA37
:105490000053A06A03432069034313430B6022684F
:1054A000536823F4604323F00F03536021684A6874
:1054B000E369206B0343606B034313434B60226833
:1054C00091682F4B0B40936020688268636D013BAD
:1054D000616E0B43E16D0B43216E0B43A16D0139EE
:1054E00043EA0123134383602268D36823F47D6376
:1054F00023F00F031B041B0CD3602068C268A36E4B
:10550000E16E0B43616F43EA0143216F013943EAC6
:1055100001231343C3602268164B9A420FD0002325
:10552000C4F89430012284F8912084F89030284601
:1055300070BD4FF0000C92E74FF4007C8FE70C4AEF
:10554000536C23F00103536494F83830012BE6D1F7
:10555000236CE26B013A43EA0212054B5A645A6C1F
:1055600042F001025A64DAE70125E0E70125DEE7AF
:105570000054014004540140CDCCCCCC10C005F007
:105580000080F8FF10B50446022906D9C81E01287C
:105590000BD82046FFF758FE01E0FFF7C0FD00B131
:1055A00010BD2046FFF7D6FEFAE70120F8E790F895
:1055B0009030012B3DD010B50446012380F8903087
:1055C00003681A6812F4003F0DD01A6822F4003202
:1055D0001A6090F89130DBB2122B1CD094F8913005
:1055E000DBB2222B1ED0236800221A6123684FF001
:1055F000FF329A612046FFF78BFE00B1012022683E
:10560000536843F008035360012384F8913000236A
:1056100084F8903010BDD0F880000028DED000F073
:105620005FFCDBE7D4F884000028DCD000F058FCF5
:10563000D9E70220704700002DE9F04104460F46EB
:105640001646FFF701FA002F6AD00546002E6AD0F1
:1056500094F891805FFA88F8B8F1010F68D194F856
:105660009030012B67D0012384F89030A767A4F80D
:105670007C60A4F87E600023C4F89430122284F881
:105680009120D4F880202D491163D4F880202C4932
:10569000D162D4F880202B495163D4F880209363E1
:1056A0002268B4F87C301C32A16FD4F8800000F07E
:1056B000CDFB064618BB00212046FFF70EFE2268F0
:1056C0001369034313612268136843F400331360C2
:1056D00023685A6912F4E02F15D1FFF7B5F9431B7F
:1056E000B3F57A7FF4D9D4F8943043F04003C4F88A
:1056F0009430002384F890304FF0030815E0002325
:1057000084F8903011E01A6812F4803F03D11A68CF
:1057100042F480321A60002384F89030B04604E0EE
:105720004FF0010801E04FF001084046BDE8F0816C
:105730004FF00208F9E74FF00208F6E75158000869
:10574000175800089F58000870B5002953D0044628
:105750000B46002A51D090F89150EDB2012D4FD157
:1057600090F8901001294DD0012180F890108367A6
:10577000A0F87C20A0F87E200023C0F894302222DC
:1057800080F89120D0F884201F491163D0F884203C
:105790001E49D162D0F884201D495163D0F884207D
:1057A00093630168B0F87C30826F1C31D0F88400BC
:1057B00000F04CFB064618B1002384F890301DE041
:1057C00000212046FFF789FD226813690343136116
:1057D0002268136843F40033136023681A6812F4D4
:1057E000803F03D11A6842F480321A60002384F8A3
:1057F0009030354602E0012500E00125284670BDC5
:105800000225FBE70225F9E7935800085B580008DA
:105810009F580008704710B5846AC369202B12D0C6
:105820000021A4F87E102268136823F4003313606B
:105830002046FFF752FD2268136923EA0003136133
:10584000012384F891302046FFF7E4FF10BD704734
:1058500008B5806AFFF7FBFF08BD10B5846AC3690D
:10586000202B12D02268136823F400331360002128
:10587000A4F87E102046FFF730FD2268136923EA62
:1058800000031361012384F891302046FEF746FDA2
:1058900010BD08B5806AFEF727FD08BD704710B53A
:1058A000846AD4F8943043F08003C4F894302268BA
:1058B000136823F4003313602046FFF729FD01230A
:1058C00084F891300023A4F87E302046FFF7E6FFED
:1058D00010BD000090F89130002B00F01C8110B535
:1058E000044603685A691969186812F0080F07D04E
:1058F00011F0080F04D0D4F88C302046984710BD22
:1059000012F0010F13D011F0010F10D001229A6193
:1059100094F89130DBB2222B00D00222D4F89430DC
:105920001343C4F894302046FFF7B8FFE7E712F0BE
:10593000020F0AD011F0020F07D002229A61D4F8A8
:105940008830002BDBD09847D9E712F0200F3ED0EB
:1059500011F0200F3BD020229A61D4F8943043F00C
:105960000403C4F8943010F4003F29D0D4F88030F8
:1059700033B1694A9A63D4F8800000F0EBFAA8B911
:10598000D4F88430002BBAD0634A9A63D4F88400E8
:1059900000F0E0FA0028B2D0D4F8943043F080034D
:1059A000C4F894302046FFF779FFA8E7D4F8943084
:1059B00043F08003C4F894302046FFF76FFFDFE721
:1059C0002046FFF7F4FD2046FFF768FF97E712F047
:1059D000400F40D011F0400F3DD040229A61D4F8E2
:1059E000943043F00803C4F8943010F4003F2BD0F7
:1059F000D4F8803033B1484A9A63D4F8800000F07C
:105A0000A9FAB8B9D4F88430002B3FF478AF424AF1
:105A10009A63D4F8840000F09DFA00283FF46FAF39
:105A2000D4F8943043F08003C4F894302046FFF754
:105A300035FF64E7D4F8943043F08003C4F8943021
:105A40002046FFF72BFFDDE72046FFF7B0FD20469D
:105A5000FFF724FF53E712F0040F49D011F0040FB1
:105A600046D004229A61D4F8943043F02003C4F85D
:105A7000943010F4003F2BD0D4F8803033B1264A54
:105A80009A63D4F8800000F065FAB8B9D4F884308D
:105A9000002B3FF434AF204A9A63D4F8840000F01E
:105AA00059FA00283FF42BAFD4F8943043F0800328
:105AB000C4F894302046FFF7F1FE20E7D4F8943084
:105AC00043F08003C4F894302046FFF7E7FEDDE79B
:105AD00022680023136122684FF0FF319161012297
